{"abi":[{"inputs":[],"stateMutability":"nonpayable","type":"constructor"},{"inputs":[{"internalType":"address","name":"","type":"address"}],"name":"addressToInfo","outputs":[{"internalType":"address","name":"addr","type":"address"},{"internalType":"string","name":"name","type":"string"},{"internalType":"string","name":"birth","type":"string"},{"internalType":"uint256","name":"notBefore","type":"uint256"},{"internalType":"uint256","name":"notAfter","type":"uint256"},{"internalType":"bytes32","name":"id","type":"bytes32"}],"stateMutability":"view","type":"function"},{"inputs":[{"internalType":"address","name":"","type":"address"}],"name":"certificates","outputs":[{"internalType":"bytes32","name":"certhash","type":"bytes32"},{"internalType":"address","name":"caPubkey","type":"address"},{"internalType":"address","name":"userPubkey","type":"address"}],"stateMutability":"view","type":"function"},{"inputs":[{"internalType":"uint256","name":"","type":"uint256"}],"name":"del","outputs":[{"internalType":"bytes32","name":"certhash","type":"bytes32"}],"stateMutability":"view","type":"function"},{"inputs":[],"name":"deleteCert","outputs":[],"stateMutability":"nonpayable","type":"function"},{"inputs":[],"name":"getCertInfo","outputs":[{"internalType":"bytes32","name":"","type":"bytes32"},{"internalType":"address","name":"","type":"address"},{"internalType":"address","name":"","type":"address"}],"stateMutability":"view","type":"function"},{"inputs":[],"name":"getCertificate","outputs":[{"internalType":"address","name":"","type":"address"},{"internalType":"string","name":"","type":"string"},{"internalType":"string","name":"","type":"string"},{"internalType":"uint256","name":"","type":"uint256"},{"internalType":"uint256","name":"","type":"uint256"},{"internalType":"bytes32","name":"","type":"bytes32"},{"internalType":"address","name":"","type":"address"}],"stateMutability":"view","type":"function"},{"inputs":[],"name":"hasinfo","outputs":[{"internalType":"bool","name":"","type":"bool"}],"stateMutability":"view","type":"function"},{"inputs":[{"internalType":"string","name":"name","type":"string"},{"internalType":"string","name":"birth","type":"string"}],"name":"issue","outputs":[],"stateMutability":"nonpayable","type":"function"},{"inputs":[],"name":"setId","outputs":[{"internalType":"bytes32","name":"","type":"bytes32"}],"stateMutability":"view","type":"function"},{"inputs":[{"internalType":"string","name":"name","type":"string"},{"internalType":"string","name":"birth","type":"string"},{"internalType":"uint256","name":"nbefore","type":"uint256"},{"internalType":"uint256","name":"nafter","type":"uint256"},{"internalType":"bytes32","name":"id","type":"bytes32"}],"name":"verification","outputs":[{"internalType":"bool","name":"","type":"bool"}],"stateMutability":"view","type":"function"}],"devdoc":{"kind":"dev","methods":{},"version":1},"evm":{"assembly":"    /* \"Certificate.sol\":36:5663  contract certificate {\r... */\n  mstore(0x40, 0x80)\n    /* \"Certificate.sol\":504:562  constructor() public  {\r... */\n  callvalue\n  dup1\n  iszero\n  tag_1\n  jumpi\n  0x00\n  dup1\n  revert\ntag_1:\n  pop\n    /* \"Certificate.sol\":544:554  msg.sender */\n  caller\n    /* \"Certificate.sol\":537:541  addr */\n  0x01\n  0x00\n    /* \"Certificate.sol\":537:554  addr = msg.sender */\n  0x0100\n  exp\n  dup2\n  sload\n  dup2\n  0xffffffffffffffffffffffffffffffffffffffff\n  mul\n  not\n  and\n  swap1\n  dup4\n  0xffffffffffffffffffffffffffffffffffffffff\n  and\n  mul\n  or\n  swap1\n  sstore\n  pop\n    /* \"Certificate.sol\":36:5663  contract certificate {\r... */\n  dataSize(sub_0)\n  dup1\n  dataOffset(sub_0)\n  0x00\n  codecopy\n  0x00\n  return\nstop\n\nsub_0: assembly {\n        /* \"Certificate.sol\":36:5663  contract certificate {\r... */\n      mstore(0x40, 0x80)\n      callvalue\n      dup1\n      iszero\n      tag_1\n      jumpi\n      0x00\n      dup1\n      revert\n    tag_1:\n      pop\n      jumpi(tag_2, lt(calldatasize, 0x04))\n      shr(0xe0, calldataload(0x00))\n      dup1\n      0x4ead778d\n      gt\n      tag_13\n      jumpi\n      dup1\n      0x4ead778d\n      eq\n      tag_8\n      jumpi\n      dup1\n      0x57771a23\n      eq\n      tag_9\n      jumpi\n      dup1\n      0x7f50670a\n      eq\n      tag_10\n      jumpi\n      dup1\n      0xae15eb8e\n      eq\n      tag_11\n      jumpi\n      dup1\n      0xd05c11e6\n      eq\n      tag_12\n      jumpi\n      jump(tag_2)\n    tag_13:\n      dup1\n      0x16e526\n      eq\n      tag_3\n      jumpi\n      dup1\n      0x040c2b0f\n      eq\n      tag_4\n      jumpi\n      dup1\n      0x087e926c\n      eq\n      tag_5\n      jumpi\n      dup1\n      0x1532f93a\n      eq\n      tag_6\n      jumpi\n      dup1\n      0x289fd654\n      eq\n      tag_7\n      jumpi\n    tag_2:\n      0x00\n      dup1\n      revert\n        /* \"Certificate.sol\":630:674  mapping(address => cert) public certificates */\n    tag_3:\n      tag_14\n      0x04\n      dup1\n      calldatasize\n      sub\n      0x20\n      dup2\n      lt\n      iszero\n      tag_15\n      jumpi\n      0x00\n      dup1\n      revert\n    tag_15:\n      dup2\n      add\n      swap1\n      dup1\n      dup1\n      calldataload\n      0xffffffffffffffffffffffffffffffffffffffff\n      and\n      swap1\n      0x20\n      add\n      swap1\n      swap3\n      swap2\n      swap1\n      pop\n      pop\n      pop\n      tag_16\n      jump\t// in\n    tag_14:\n      mload(0x40)\n      dup1\n      dup5\n      dup2\n      mstore\n      0x20\n      add\n      dup4\n      0xffffffffffffffffffffffffffffffffffffffff\n      and\n      dup2\n      mstore\n      0x20\n      add\n      dup3\n      0xffffffffffffffffffffffffffffffffffffffff\n      and\n      dup2\n      mstore\n      0x20\n      add\n      swap4\n      pop\n      pop\n      pop\n      pop\n      mload(0x40)\n      dup1\n      swap2\n      sub\n      swap1\n      return\n        /* \"Certificate.sol\":5497:5660  function deleteCert() public {\r... */\n    tag_4:\n      tag_17\n      tag_18\n      jump\t// in\n    tag_17:\n      stop\n        /* \"Certificate.sol\":2809:2936  function setId() public view returns(bytes32){\r... */\n    tag_5:\n      tag_19\n      tag_20\n      jump\t// in\n    tag_19:\n      mload(0x40)\n      dup1\n      dup3\n      dup2\n      mstore\n      0x20\n      add\n      swap2\n      pop\n      pop\n      mload(0x40)\n      dup1\n      swap2\n      sub\n      swap1\n      return\n        /* \"Certificate.sol\":3561:3762  function getCertInfo() public view returns(bytes32, address, address){\r... */\n    tag_6:\n      tag_21\n      tag_22\n      jump\t// in\n    tag_21:\n      mload(0x40)\n      dup1\n      dup5\n      dup2\n      mstore\n      0x20\n      add\n      dup4\n      0xffffffffffffffffffffffffffffffffffffffff\n      and\n      dup2\n      mstore\n      0x20\n      add\n      dup3\n      0xffffffffffffffffffffffffffffffffffffffff\n      and\n      dup2\n      mstore\n      0x20\n      add\n      swap4\n      pop\n      pop\n      pop\n      pop\n      mload(0x40)\n      dup1\n      swap2\n      sub\n      swap1\n      return\n        /* \"Certificate.sol\":3774:3976  function issue(string memory name, string memory birth) public {\r... */\n    tag_7:\n      tag_23\n      0x04\n      dup1\n      calldatasize\n      sub\n      0x40\n      dup2\n      lt\n      iszero\n      tag_24\n      jumpi\n      0x00\n      dup1\n      revert\n    tag_24:\n      dup2\n      add\n      swap1\n      dup1\n      dup1\n      calldataload\n      swap1\n      0x20\n      add\n      swap1\n      0x0100000000\n      dup2\n      gt\n      iszero\n      tag_25\n      jumpi\n      0x00\n      dup1\n      revert\n    tag_25:\n      dup3\n      add\n      dup4\n      0x20\n      dup3\n      add\n      gt\n      iszero\n      tag_26\n      jumpi\n      0x00\n      dup1\n      revert\n    tag_26:\n      dup1\n      calldataload\n      swap1\n      0x20\n      add\n      swap2\n      dup5\n      0x01\n      dup4\n      mul\n      dup5\n      add\n      gt\n      0x0100000000\n      dup4\n      gt\n      or\n      iszero\n      tag_27\n      jumpi\n      0x00\n      dup1\n      revert\n    tag_27:\n      swap2\n      swap1\n      dup1\n      dup1\n      0x1f\n      add\n      0x20\n      dup1\n      swap2\n      div\n      mul\n      0x20\n      add\n      mload(0x40)\n      swap1\n      dup2\n      add\n      0x40\n      mstore\n      dup1\n      swap4\n      swap3\n      swap2\n      swap1\n      dup2\n      dup2\n      mstore\n      0x20\n      add\n      dup4\n      dup4\n      dup1\n      dup3\n      dup5\n      calldatacopy\n      0x00\n      dup2\n      dup5\n      add\n      mstore\n      not(0x1f)\n      0x1f\n      dup3\n      add\n      and\n      swap1\n      pop\n      dup1\n      dup4\n      add\n      swap3\n      pop\n      pop\n      pop\n      pop\n      pop\n      pop\n      pop\n      swap2\n      swap3\n      swap2\n      swap3\n      swap1\n      dup1\n      calldataload\n      swap1\n      0x20\n      add\n      swap1\n      0x0100000000\n      dup2\n      gt\n      iszero\n      tag_28\n      jumpi\n      0x00\n      dup1\n      revert\n    tag_28:\n      dup3\n      add\n      dup4\n      0x20\n      dup3\n      add\n      gt\n      iszero\n      tag_29\n      jumpi\n      0x00\n      dup1\n      revert\n    tag_29:\n      dup1\n      calldataload\n      swap1\n      0x20\n      add\n      swap2\n      dup5\n      0x01\n      dup4\n      mul\n      dup5\n      add\n      gt\n      0x0100000000\n      dup4\n      gt\n      or\n      iszero\n      tag_30\n      jumpi\n      0x00\n      dup1\n      revert\n    tag_30:\n      swap2\n      swap1\n      dup1\n      dup1\n      0x1f\n      add\n      0x20\n      dup1\n      swap2\n      div\n      mul\n      0x20\n      add\n      mload(0x40)\n      swap1\n      dup2\n      add\n      0x40\n      mstore\n      dup1\n      swap4\n      swap3\n      swap2\n      swap1\n      dup2\n      dup2\n      mstore\n      0x20\n      add\n      dup4\n      dup4\n      dup1\n      dup3\n      dup5\n      calldatacopy\n      0x00\n      dup2\n      dup5\n      add\n      mstore\n      not(0x1f)\n      0x1f\n      dup3\n      add\n      and\n      swap1\n      pop\n      dup1\n      dup4\n      add\n      swap3\n      pop\n      pop\n      pop\n      pop\n      pop\n      pop\n      pop\n      swap2\n      swap3\n      swap2\n      swap3\n      swap1\n      pop\n      pop\n      pop\n      tag_31\n      jump\t// in\n    tag_23:\n      stop\n        /* \"Certificate.sol\":3984:5485  function verification(string memory name, string memory birth, uint nbefore, uint nafter, bytes32 id) public view returns(bool){\r... */\n    tag_8:\n      tag_32\n      0x04\n      dup1\n      calldatasize\n      sub\n      0xa0\n      dup2\n      lt\n      iszero\n      tag_33\n      jumpi\n      0x00\n      dup1\n      revert\n    tag_33:\n      dup2\n      add\n      swap1\n      dup1\n      dup1\n      calldataload\n      swap1\n      0x20\n      add\n      swap1\n      0x0100000000\n      dup2\n      gt\n      iszero\n      tag_34\n      jumpi\n      0x00\n      dup1\n      revert\n    tag_34:\n      dup3\n      add\n      dup4\n      0x20\n      dup3\n      add\n      gt\n      iszero\n      tag_35\n      jumpi\n      0x00\n      dup1\n      revert\n    tag_35:\n      dup1\n      calldataload\n      swap1\n      0x20\n      add\n      swap2\n      dup5\n      0x01\n      dup4\n      mul\n      dup5\n      add\n      gt\n      0x0100000000\n      dup4\n      gt\n      or\n      iszero\n      tag_36\n      jumpi\n      0x00\n      dup1\n      revert\n    tag_36:\n      swap2\n      swap1\n      dup1\n      dup1\n      0x1f\n      add\n      0x20\n      dup1\n      swap2\n      div\n      mul\n      0x20\n      add\n      mload(0x40)\n      swap1\n      dup2\n      add\n      0x40\n      mstore\n      dup1\n      swap4\n      swap3\n      swap2\n      swap1\n      dup2\n      dup2\n      mstore\n      0x20\n      add\n      dup4\n      dup4\n      dup1\n      dup3\n      dup5\n      calldatacopy\n      0x00\n      dup2\n      dup5\n      add\n      mstore\n      not(0x1f)\n      0x1f\n      dup3\n      add\n      and\n      swap1\n      pop\n      dup1\n      dup4\n      add\n      swap3\n      pop\n      pop\n      pop\n      pop\n      pop\n      pop\n      pop\n      swap2\n      swap3\n      swap2\n      swap3\n      swap1\n      dup1\n      calldataload\n      swap1\n      0x20\n      add\n      swap1\n      0x0100000000\n      dup2\n      gt\n      iszero\n      tag_37\n      jumpi\n      0x00\n      dup1\n      revert\n    tag_37:\n      dup3\n      add\n      dup4\n      0x20\n      dup3\n      add\n      gt\n      iszero\n      tag_38\n      jumpi\n      0x00\n      dup1\n      revert\n    tag_38:\n      dup1\n      calldataload\n      swap1\n      0x20\n      add\n      swap2\n      dup5\n      0x01\n      dup4\n      mul\n      dup5\n      add\n      gt\n      0x0100000000\n      dup4\n      gt\n      or\n      iszero\n      tag_39\n      jumpi\n      0x00\n      dup1\n      revert\n    tag_39:\n      swap2\n      swap1\n      dup1\n      dup1\n      0x1f\n      add\n      0x20\n      dup1\n      swap2\n      div\n      mul\n      0x20\n      add\n      mload(0x40)\n      swap1\n      dup2\n      add\n      0x40\n      mstore\n      dup1\n      swap4\n      swap3\n      swap2\n      swap1\n      dup2\n      dup2\n      mstore\n      0x20\n      add\n      dup4\n      dup4\n      dup1\n      dup3\n      dup5\n      calldatacopy\n      0x00\n      dup2\n      dup5\n      add\n      mstore\n      not(0x1f)\n      0x1f\n      dup3\n      add\n      and\n      swap1\n      pop\n      dup1\n      dup4\n      add\n      swap3\n      pop\n      pop\n      pop\n      pop\n      pop\n      pop\n      pop\n      swap2\n      swap3\n      swap2\n      swap3\n      swap1\n      dup1\n      calldataload\n      swap1\n      0x20\n      add\n      swap1\n      swap3\n      swap2\n      swap1\n      dup1\n      calldataload\n      swap1\n      0x20\n      add\n      swap1\n      swap3\n      swap2\n      swap1\n      dup1\n      calldataload\n      swap1\n      0x20\n      add\n      swap1\n      swap3\n      swap2\n      swap1\n      pop\n      pop\n      pop\n      tag_40\n      jump\t// in\n    tag_32:\n      mload(0x40)\n      dup1\n      dup3\n      iszero\n      iszero\n      dup2\n      mstore\n      0x20\n      add\n      swap2\n      pop\n      pop\n      mload(0x40)\n      dup1\n      swap2\n      sub\n      swap1\n      return\n        /* \"Certificate.sol\":681:704  deleteInfo[] public del */\n    tag_9:\n      tag_41\n      0x04\n      dup1\n      calldatasize\n      sub\n      0x20\n      dup2\n      lt\n      iszero\n      tag_42\n      jumpi\n      0x00\n      dup1\n      revert\n    tag_42:\n      dup2\n      add\n      swap1\n      dup1\n      dup1\n      calldataload\n      swap1\n      0x20\n      add\n      swap1\n      swap3\n      swap2\n      swap1\n      pop\n      pop\n      pop\n      tag_43\n      jump\t// in\n    tag_41:\n      mload(0x40)\n      dup1\n      dup3\n      dup2\n      mstore\n      0x20\n      add\n      swap2\n      pop\n      pop\n      mload(0x40)\n      dup1\n      swap2\n      sub\n      swap1\n      return\n        /* \"Certificate.sol\":574:623  mapping(address => userinfo) public addressToInfo */\n    tag_10:\n      tag_44\n      0x04\n      dup1\n      calldatasize\n      sub\n      0x20\n      dup2\n      lt\n      iszero\n      tag_45\n      jumpi\n      0x00\n      dup1\n      revert\n    tag_45:\n      dup2\n      add\n      swap1\n      dup1\n      dup1\n      calldataload\n      0xffffffffffffffffffffffffffffffffffffffff\n      and\n      swap1\n      0x20\n      add\n      swap1\n      swap3\n      swap2\n      swap1\n      pop\n      pop\n      pop\n      tag_46\n      jump\t// in\n    tag_44:\n      mload(0x40)\n      dup1\n      dup8\n      0xffffffffffffffffffffffffffffffffffffffff\n      and\n      dup2\n      mstore\n      0x20\n      add\n      dup1\n      0x20\n      add\n      dup1\n      0x20\n      add\n      dup7\n      dup2\n      mstore\n      0x20\n      add\n      dup6\n      dup2\n      mstore\n      0x20\n      add\n      dup5\n      dup2\n      mstore\n      0x20\n      add\n      dup4\n      dup2\n      sub\n      dup4\n      mstore\n      dup9\n      dup2\n      dup2\n      mload\n      dup2\n      mstore\n      0x20\n      add\n      swap2\n      pop\n      dup1\n      mload\n      swap1\n      0x20\n      add\n      swap1\n      dup1\n      dup4\n      dup4\n      0x00\n    tag_47:\n      dup4\n      dup2\n      lt\n      iszero\n      tag_49\n      jumpi\n      dup1\n      dup3\n      add\n      mload\n      dup2\n      dup5\n      add\n      mstore\n      0x20\n      dup2\n      add\n      swap1\n      pop\n      jump(tag_47)\n    tag_49:\n      pop\n      pop\n      pop\n      pop\n      swap1\n      pop\n      swap1\n      dup2\n      add\n      swap1\n      0x1f\n      and\n      dup1\n      iszero\n      tag_50\n      jumpi\n      dup1\n      dup3\n      sub\n      dup1\n      mload\n      0x01\n      dup4\n      0x20\n      sub\n      0x0100\n      exp\n      sub\n      not\n      and\n      dup2\n      mstore\n      0x20\n      add\n      swap2\n      pop\n    tag_50:\n      pop\n      dup4\n      dup2\n      sub\n      dup3\n      mstore\n      dup8\n      dup2\n      dup2\n      mload\n      dup2\n      mstore\n      0x20\n      add\n      swap2\n      pop\n      dup1\n      mload\n      swap1\n      0x20\n      add\n      swap1\n      dup1\n      dup4\n      dup4\n      0x00\n    tag_51:\n      dup4\n      dup2\n      lt\n      iszero\n      tag_53\n      jumpi\n      dup1\n      dup3\n      add\n      mload\n      dup2\n      dup5\n      add\n      mstore\n      0x20\n      dup2\n      add\n      swap1\n      pop\n      jump(tag_51)\n    tag_53:\n      pop\n      pop\n      pop\n      pop\n      swap1\n      pop\n      swap1\n      dup2\n      add\n      swap1\n      0x1f\n      and\n      dup1\n      iszero\n      tag_54\n      jumpi\n      dup1\n      dup3\n      sub\n      dup1\n      mload\n      0x01\n      dup4\n      0x20\n      sub\n      0x0100\n      exp\n      sub\n      not\n      and\n      dup2\n      mstore\n      0x20\n      add\n      swap2\n      pop\n    tag_54:\n      pop\n      swap9\n      pop\n      pop\n      pop\n      pop\n      pop\n      pop\n      pop\n      pop\n      pop\n      mload(0x40)\n      dup1\n      swap2\n      sub\n      swap1\n      return\n        /* \"Certificate.sol\":3198:3549  function getCertificate() public view returns(address, string memory, string memory, uint, uint, bytes32, address){\r... */\n    tag_11:\n      tag_55\n      tag_56\n      jump\t// in\n    tag_55:\n      mload(0x40)\n      dup1\n      dup9\n      0xffffffffffffffffffffffffffffffffffffffff\n      and\n      dup2\n      mstore\n      0x20\n      add\n      dup1\n      0x20\n      add\n      dup1\n      0x20\n      add\n      dup8\n      dup2\n      mstore\n      0x20\n      add\n      dup7\n      dup2\n      mstore\n      0x20\n      add\n      dup6\n      dup2\n      mstore\n      0x20\n      add\n      dup5\n      0xffffffffffffffffffffffffffffffffffffffff\n      and\n      dup2\n      mstore\n      0x20\n      add\n      dup4\n      dup2\n      sub\n      dup4\n      mstore\n      dup10\n      dup2\n      dup2\n      mload\n      dup2\n      mstore\n      0x20\n      add\n      swap2\n      pop\n      dup1\n      mload\n      swap1\n      0x20\n      add\n      swap1\n      dup1\n      dup4\n      dup4\n      0x00\n    tag_57:\n      dup4\n      dup2\n      lt\n      iszero\n      tag_59\n      jumpi\n      dup1\n      dup3\n      add\n      mload\n      dup2\n      dup5\n      add\n      mstore\n      0x20\n      dup2\n      add\n      swap1\n      pop\n      jump(tag_57)\n    tag_59:\n      pop\n      pop\n      pop\n      pop\n      swap1\n      pop\n      swap1\n      dup2\n      add\n      swap1\n      0x1f\n      and\n      dup1\n      iszero\n      tag_60\n      jumpi\n      dup1\n      dup3\n      sub\n      dup1\n      mload\n      0x01\n      dup4\n      0x20\n      sub\n      0x0100\n      exp\n      sub\n      not\n      and\n      dup2\n      mstore\n      0x20\n      add\n      swap2\n      pop\n    tag_60:\n      pop\n      dup4\n      dup2\n      sub\n      dup3\n      mstore\n      dup9\n      dup2\n      dup2\n      mload\n      dup2\n      mstore\n      0x20\n      add\n      swap2\n      pop\n      dup1\n      mload\n      swap1\n      0x20\n      add\n      swap1\n      dup1\n      dup4\n      dup4\n      0x00\n    tag_61:\n      dup4\n      dup2\n      lt\n      iszero\n      tag_63\n      jumpi\n      dup1\n      dup3\n      add\n      mload\n      dup2\n      dup5\n      add\n      mstore\n      0x20\n      dup2\n      add\n      swap1\n      pop\n      jump(tag_61)\n    tag_63:\n      pop\n      pop\n      pop\n      pop\n      swap1\n      pop\n      swap1\n      dup2\n      add\n      swap1\n      0x1f\n      and\n      dup1\n      iszero\n      tag_64\n      jumpi\n      dup1\n      dup3\n      sub\n      dup1\n      mload\n      0x01\n      dup4\n      0x20\n      sub\n      0x0100\n      exp\n      sub\n      not\n      and\n      dup2\n      mstore\n      0x20\n      add\n      swap2\n      pop\n    tag_64:\n      pop\n      swap10\n      pop\n      pop\n      pop\n      pop\n      pop\n      pop\n      pop\n      pop\n      pop\n      pop\n      mload(0x40)\n      dup1\n      swap2\n      sub\n      swap1\n      return\n        /* \"Certificate.sol\":723:884  function hasinfo() public view returns(bool){\r... */\n    tag_12:\n      tag_65\n      tag_66\n      jump\t// in\n    tag_65:\n      mload(0x40)\n      dup1\n      dup3\n      iszero\n      iszero\n      dup2\n      mstore\n      0x20\n      add\n      swap2\n      pop\n      pop\n      mload(0x40)\n      dup1\n      swap2\n      sub\n      swap1\n      return\n        /* \"Certificate.sol\":630:674  mapping(address => cert) public certificates */\n    tag_16:\n      mstore(0x20, 0x05)\n      dup1\n      0x00\n      mstore\n      keccak256(0x00, 0x40)\n      0x00\n      swap2\n      pop\n      swap1\n      pop\n      dup1\n      0x00\n      add\n      sload\n      swap1\n      dup1\n      0x01\n      add\n      0x00\n      swap1\n      sload\n      swap1\n      0x0100\n      exp\n      swap1\n      div\n      0xffffffffffffffffffffffffffffffffffffffff\n      and\n      swap1\n      dup1\n      0x02\n      add\n      0x00\n      swap1\n      sload\n      swap1\n      0x0100\n      exp\n      swap1\n      div\n      0xffffffffffffffffffffffffffffffffffffffff\n      and\n      swap1\n      pop\n      dup4\n      jump\t// out\n        /* \"Certificate.sol\":5497:5660  function deleteCert() public {\r... */\n    tag_18:\n        /* \"Certificate.sol\":5537:5540  del */\n      0x06\n        /* \"Certificate.sol\":5546:5566  deleteInfo(certhash) */\n      mload(0x40)\n      dup1\n      0x20\n      add\n      0x40\n      mstore\n      dup1\n        /* \"Certificate.sol\":5557:5565  certhash */\n      sload(0x00)\n        /* \"Certificate.sol\":5546:5566  deleteInfo(certhash) */\n      dup2\n      mstore\n      pop\n        /* \"Certificate.sol\":5537:5567  del.push(deleteInfo(certhash)) */\n      swap1\n      dup1\n      0x01\n      dup2\n      sload\n      add\n      dup1\n      dup3\n      sstore\n      dup1\n      swap2\n      pop\n      pop\n      0x01\n      swap1\n      sub\n      swap1\n      0x00\n      mstore\n      keccak256(0x00, 0x20)\n      add\n      0x00\n      swap1\n      swap2\n      swap1\n      swap2\n      swap1\n      swap2\n      pop\n      0x00\n      dup3\n      add\n      mload\n      dup2\n      0x00\n      add\n      sstore\n      pop\n      pop\n        /* \"Certificate.sol\":5585:5598  addressToInfo */\n      0x04\n        /* \"Certificate.sol\":5585:5610  addressToInfo[msg.sender] */\n      0x00\n        /* \"Certificate.sol\":5599:5609  msg.sender */\n      caller\n        /* \"Certificate.sol\":5585:5610  addressToInfo[msg.sender] */\n      0xffffffffffffffffffffffffffffffffffffffff\n      and\n      0xffffffffffffffffffffffffffffffffffffffff\n      and\n      dup2\n      mstore\n      0x20\n      add\n      swap1\n      dup2\n      mstore\n      0x20\n      add\n      0x00\n      keccak256\n      0x00\n        /* \"Certificate.sol\":5578:5610  delete addressToInfo[msg.sender] */\n      dup1\n      dup3\n      add\n      exp(0x0100, 0x00)\n      dup2\n      sload\n      swap1\n      0xffffffffffffffffffffffffffffffffffffffff\n      mul\n      not\n      and\n      swap1\n      sstore\n      0x01\n      dup3\n      add\n      0x00\n      tag_69\n      swap2\n      swap1\n      tag_70\n      jump\t// in\n    tag_69:\n      0x02\n      dup3\n      add\n      0x00\n      tag_71\n      swap2\n      swap1\n      tag_70\n      jump\t// in\n    tag_71:\n      0x03\n      dup3\n      add\n      0x00\n      swap1\n      sstore\n      0x04\n      dup3\n      add\n      0x00\n      swap1\n      sstore\n      0x05\n      dup3\n      add\n      0x00\n      swap1\n      sstore\n      pop\n      pop\n        /* \"Certificate.sol\":5628:5640  certificates */\n      0x05\n        /* \"Certificate.sol\":5628:5652  certificates[msg.sender] */\n      0x00\n        /* \"Certificate.sol\":5641:5651  msg.sender */\n      caller\n        /* \"Certificate.sol\":5628:5652  certificates[msg.sender] */\n      0xffffffffffffffffffffffffffffffffffffffff\n      and\n      0xffffffffffffffffffffffffffffffffffffffff\n      and\n      dup2\n      mstore\n      0x20\n      add\n      swap1\n      dup2\n      mstore\n      0x20\n      add\n      0x00\n      keccak256\n      0x00\n        /* \"Certificate.sol\":5621:5652  delete certificates[msg.sender] */\n      dup1\n      dup3\n      add\n      0x00\n      swap1\n      sstore\n      0x01\n      dup3\n      add\n      exp(0x0100, 0x00)\n      dup2\n      sload\n      swap1\n      0xffffffffffffffffffffffffffffffffffffffff\n      mul\n      not\n      and\n      swap1\n      sstore\n      0x02\n      dup3\n      add\n      exp(0x0100, 0x00)\n      dup2\n      sload\n      swap1\n      0xffffffffffffffffffffffffffffffffffffffff\n      mul\n      not\n      and\n      swap1\n      sstore\n      pop\n      pop\n        /* \"Certificate.sol\":5497:5660  function deleteCert() public {\r... */\n      jump\t// out\n        /* \"Certificate.sol\":2809:2936  function setId() public view returns(bytes32){\r... */\n    tag_20:\n        /* \"Certificate.sol\":2846:2853  bytes32 */\n      0x00\n        /* \"Certificate.sol\":2899:2914  block.timestamp */\n      timestamp\n        /* \"Certificate.sol\":2916:2926  msg.sender */\n      caller\n        /* \"Certificate.sol\":2882:2927  abi.encodePacked(block.timestamp, msg.sender) */\n      add(0x20, mload(0x40))\n      dup1\n      dup4\n      dup2\n      mstore\n      0x20\n      add\n      dup3\n      0xffffffffffffffffffffffffffffffffffffffff\n      and\n      0x60\n      shl\n      dup2\n      mstore\n      0x14\n      add\n      swap3\n      pop\n      pop\n      pop\n      mload(0x40)\n      0x20\n      dup2\n      dup4\n      sub\n      sub\n      dup2\n      mstore\n      swap1\n      0x40\n      mstore\n        /* \"Certificate.sol\":2872:2928  keccak256(abi.encodePacked(block.timestamp, msg.sender)) */\n      dup1\n      mload\n      swap1\n      0x20\n      add\n      keccak256\n        /* \"Certificate.sol\":2865:2928  return keccak256(abi.encodePacked(block.timestamp, msg.sender)) */\n      swap1\n      pop\n        /* \"Certificate.sol\":2809:2936  function setId() public view returns(bytes32){\r... */\n      swap1\n      jump\t// out\n        /* \"Certificate.sol\":3561:3762  function getCertInfo() public view returns(bytes32, address, address){\r... */\n    tag_22:\n        /* \"Certificate.sol\":3604:3611  bytes32 */\n      0x00\n        /* \"Certificate.sol\":3613:3620  address */\n      dup1\n        /* \"Certificate.sol\":3622:3629  address */\n      0x00\n        /* \"Certificate.sol\":3648:3660  certificates */\n      0x05\n        /* \"Certificate.sol\":3648:3672  certificates[msg.sender] */\n      0x00\n        /* \"Certificate.sol\":3661:3671  msg.sender */\n      caller\n        /* \"Certificate.sol\":3648:3672  certificates[msg.sender] */\n      0xffffffffffffffffffffffffffffffffffffffff\n      and\n      0xffffffffffffffffffffffffffffffffffffffff\n      and\n      dup2\n      mstore\n      0x20\n      add\n      swap1\n      dup2\n      mstore\n      0x20\n      add\n      0x00\n      keccak256\n        /* \"Certificate.sol\":3648:3681  certificates[msg.sender].certhash */\n      0x00\n      add\n      sload\n        /* \"Certificate.sol\":3683:3695  certificates */\n      0x05\n        /* \"Certificate.sol\":3683:3707  certificates[msg.sender] */\n      0x00\n        /* \"Certificate.sol\":3696:3706  msg.sender */\n      caller\n        /* \"Certificate.sol\":3683:3707  certificates[msg.sender] */\n      0xffffffffffffffffffffffffffffffffffffffff\n      and\n      0xffffffffffffffffffffffffffffffffffffffff\n      and\n      dup2\n      mstore\n      0x20\n      add\n      swap1\n      dup2\n      mstore\n      0x20\n      add\n      0x00\n      keccak256\n        /* \"Certificate.sol\":3683:3716  certificates[msg.sender].caPubkey */\n      0x01\n      add\n      0x00\n      swap1\n      sload\n      swap1\n      0x0100\n      exp\n      swap1\n      div\n      0xffffffffffffffffffffffffffffffffffffffff\n      and\n        /* \"Certificate.sol\":3718:3730  certificates */\n      0x05\n        /* \"Certificate.sol\":3718:3742  certificates[msg.sender] */\n      0x00\n        /* \"Certificate.sol\":3731:3741  msg.sender */\n      caller\n        /* \"Certificate.sol\":3718:3742  certificates[msg.sender] */\n      0xffffffffffffffffffffffffffffffffffffffff\n      and\n      0xffffffffffffffffffffffffffffffffffffffff\n      and\n      dup2\n      mstore\n      0x20\n      add\n      swap1\n      dup2\n      mstore\n      0x20\n      add\n      0x00\n      keccak256\n        /* \"Certificate.sol\":3718:3753  certificates[msg.sender].userPubkey */\n      0x02\n      add\n      0x00\n      swap1\n      sload\n      swap1\n      0x0100\n      exp\n      swap1\n      div\n      0xffffffffffffffffffffffffffffffffffffffff\n      and\n        /* \"Certificate.sol\":3641:3754  return(certificates[msg.sender].certhash, certificates[msg.sender].caPubkey, certificates[msg.sender].userPubkey) */\n      swap3\n      pop\n      swap3\n      pop\n      swap3\n      pop\n        /* \"Certificate.sol\":3561:3762  function getCertInfo() public view returns(bytes32, address, address){\r... */\n      swap1\n      swap2\n      swap3\n      jump\t// out\n        /* \"Certificate.sol\":3774:3976  function issue(string memory name, string memory birth) public {\r... */\n    tag_31:\n        /* \"Certificate.sol\":3864:3869  false */\n      0x00\n        /* \"Certificate.sol\":3851:3869  hasinfo() == false */\n      iszero\n      iszero\n        /* \"Certificate.sol\":3851:3860  hasinfo() */\n      tag_75\n        /* \"Certificate.sol\":3851:3858  hasinfo */\n      tag_66\n        /* \"Certificate.sol\":3851:3860  hasinfo() */\n      jump\t// in\n    tag_75:\n        /* \"Certificate.sol\":3851:3869  hasinfo() == false */\n      iszero\n      iszero\n      eq\n        /* \"Certificate.sol\":3848:3969  if(hasinfo() == false){\r... */\n      iszero\n      tag_76\n      jumpi\n        /* \"Certificate.sol\":3885:3894  setTime() */\n      tag_77\n        /* \"Certificate.sol\":3885:3892  setTime */\n      tag_78\n        /* \"Certificate.sol\":3885:3894  setTime() */\n      jump\t// in\n    tag_77:\n        /* \"Certificate.sol\":3909:3933  newUserInfo(name, birth) */\n      tag_79\n        /* \"Certificate.sol\":3921:3925  name */\n      dup3\n        /* \"Certificate.sol\":3927:3932  birth */\n      dup3\n        /* \"Certificate.sol\":3909:3920  newUserInfo */\n      tag_80\n        /* \"Certificate.sol\":3909:3933  newUserInfo(name, birth) */\n      jump\t// in\n    tag_79:\n        /* \"Certificate.sol\":3948:3957  newCert() */\n      tag_81\n        /* \"Certificate.sol\":3948:3955  newCert */\n      tag_82\n        /* \"Certificate.sol\":3948:3957  newCert() */\n      jump\t// in\n    tag_81:\n        /* \"Certificate.sol\":3848:3969  if(hasinfo() == false){\r... */\n    tag_76:\n        /* \"Certificate.sol\":3774:3976  function issue(string memory name, string memory birth) public {\r... */\n      pop\n      pop\n      jump\t// out\n        /* \"Certificate.sol\":3984:5485  function verification(string memory name, string memory birth, uint nbefore, uint nafter, bytes32 id) public view returns(bool){\r... */\n    tag_40:\n        /* \"Certificate.sol\":4106:4110  bool */\n      0x00\n        /* \"Certificate.sol\":4122:4132  uint _size */\n      dup1\n        /* \"Certificate.sol\":4168:4173  birth */\n      dup6\n        /* \"Certificate.sol\":4162:4181  bytes(birth).length */\n      mload\n        /* \"Certificate.sol\":4147:4151  name */\n      dup8\n        /* \"Certificate.sol\":4141:4159  bytes(name).length */\n      mload\n        /* \"Certificate.sol\":4135:4138  116 */\n      0x74\n        /* \"Certificate.sol\":4135:4159  116 + bytes(name).length */\n      add\n        /* \"Certificate.sol\":4135:4181  116 + bytes(name).length + bytes(birth).length */\n      add\n        /* \"Certificate.sol\":4122:4181  uint _size = 116 + bytes(name).length + bytes(birth).length */\n      swap1\n      pop\n        /* \"Certificate.sol\":4192:4210  bytes memory _data */\n      0x60\n        /* \"Certificate.sol\":4223:4228  _size */\n      dup2\n        /* \"Certificate.sol\":4213:4229  new bytes(_size) */\n      0xffffffffffffffff\n      dup2\n      gt\n      dup1\n      iszero\n      tag_84\n      jumpi\n      0x00\n      dup1\n      revert\n    tag_84:\n      pop\n      mload(0x40)\n      swap1\n      dup1\n      dup3\n      mstore\n      dup1\n      0x1f\n      add\n      not(0x1f)\n      and\n      0x20\n      add\n      dup3\n      add\n      0x40\n      mstore\n      dup1\n      iszero\n      tag_85\n      jumpi\n      dup2\n      0x20\n      add\n      0x01\n      dup3\n      mul\n      dup1\n      calldatasize\n      dup4\n      calldatacopy\n      dup1\n      dup3\n      add\n      swap2\n      pop\n      pop\n      swap1\n      pop\n    tag_85:\n      pop\n        /* \"Certificate.sol\":4192:4229  bytes memory _data = new bytes(_size) */\n      swap1\n      pop\n        /* \"Certificate.sol\":4250:4262  uint counter */\n      0x00\n        /* \"Certificate.sol\":4277:4295  bytes memory baddr */\n      0x60\n        /* \"Certificate.sol\":4315:4325  msg.sender */\n      caller\n        /* \"Certificate.sol\":4298:4326  abi.encodePacked(msg.sender) */\n      add(0x20, mload(0x40))\n      dup1\n      dup3\n      0xffffffffffffffffffffffffffffffffffffffff\n      and\n      0x60\n      shl\n      dup2\n      mstore\n      0x14\n      add\n      swap2\n      pop\n      pop\n      mload(0x40)\n      0x20\n      dup2\n      dup4\n      sub\n      sub\n      dup2\n      mstore\n      swap1\n      0x40\n      mstore\n        /* \"Certificate.sol\":4277:4326  bytes memory baddr = abi.encodePacked(msg.sender) */\n      swap1\n      pop\n        /* \"Certificate.sol\":4337:4357  bytes memory bBefore */\n      0x60\n        /* \"Certificate.sol\":4377:4384  nbefore */\n      dup9\n        /* \"Certificate.sol\":4360:4385  abi.encodePacked(nbefore) */\n      add(0x20, mload(0x40))\n      dup1\n      dup3\n      dup2\n      mstore\n      0x20\n      add\n      swap2\n      pop\n      pop\n      mload(0x40)\n      0x20\n      dup2\n      dup4\n      sub\n      sub\n      dup2\n      mstore\n      swap1\n      0x40\n      mstore\n        /* \"Certificate.sol\":4337:4385  bytes memory bBefore = abi.encodePacked(nbefore) */\n      swap1\n      pop\n        /* \"Certificate.sol\":4396:4415  bytes memory bafter */\n      0x60\n        /* \"Certificate.sol\":4435:4441  nafter */\n      dup9\n        /* \"Certificate.sol\":4418:4442  abi.encodePacked(nafter) */\n      add(0x20, mload(0x40))\n      dup1\n      dup3\n      dup2\n      mstore\n      0x20\n      add\n      swap2\n      pop\n      pop\n      mload(0x40)\n      0x20\n      dup2\n      dup4\n      sub\n      sub\n      dup2\n      mstore\n      swap1\n      0x40\n      mstore\n        /* \"Certificate.sol\":4396:4442  bytes memory bafter = abi.encodePacked(nafter) */\n      swap1\n      pop\n        /* \"Certificate.sol\":4453:4469  bytes memory bId */\n      0x60\n        /* \"Certificate.sol\":4489:4491  id */\n      dup9\n        /* \"Certificate.sol\":4472:4492  abi.encodePacked(id) */\n      add(0x20, mload(0x40))\n      dup1\n      dup3\n      dup2\n      mstore\n      0x20\n      add\n      swap2\n      pop\n      pop\n      mload(0x40)\n      0x20\n      dup2\n      dup4\n      sub\n      sub\n      dup2\n      mstore\n      swap1\n      0x40\n      mstore\n        /* \"Certificate.sol\":4453:4492  bytes memory bId = abi.encodePacked(id) */\n      swap1\n      pop\n        /* \"Certificate.sol\":4508:4514  uint i */\n      0x00\n        /* \"Certificate.sol\":4503:4615  for (uint i = 0; i < 20; i++){\r... */\n    tag_86:\n        /* \"Certificate.sol\":4524:4526  20 */\n      0x14\n        /* \"Certificate.sol\":4520:4521  i */\n      dup2\n        /* \"Certificate.sol\":4520:4526  i < 20 */\n      lt\n        /* \"Certificate.sol\":4503:4615  for (uint i = 0; i < 20; i++){\r... */\n      iszero\n      tag_87\n      jumpi\n        /* \"Certificate.sol\":4570:4575  baddr */\n      dup5\n        /* \"Certificate.sol\":4577:4578  i */\n      dup2\n        /* \"Certificate.sol\":4564:4579  bytes(baddr)[i] */\n      dup2\n      mload\n      dup2\n      lt\n      tag_89\n      jumpi\n      invalid\n    tag_89:\n      0x20\n      add\n      add\n      mload\n      0xf8\n      shr\n      0xf8\n      shl\n        /* \"Certificate.sol\":4547:4552  _data */\n      dup8\n        /* \"Certificate.sol\":4553:4560  counter */\n      dup8\n        /* \"Certificate.sol\":4547:4561  _data[counter] */\n      dup2\n      mload\n      dup2\n      lt\n      tag_90\n      jumpi\n      invalid\n    tag_90:\n      0x20\n      add\n      add\n        /* \"Certificate.sol\":4547:4579  _data[counter] = bytes(baddr)[i] */\n      swap1\n      not(0xffffffffffffffffffffffffffffffffffffffffffffffffffffffffffffff)\n      and\n      swap1\n      dup2\n      0x00\n      byte\n      swap1\n      mstore8\n      pop\n        /* \"Certificate.sol\":4594:4603  counter++ */\n      dup6\n      dup1\n      0x01\n      add\n      swap7\n      pop\n      pop\n        /* \"Certificate.sol\":4528:4531  i++ */\n      dup1\n      dup1\n      0x01\n      add\n      swap2\n      pop\n      pop\n        /* \"Certificate.sol\":4503:4615  for (uint i = 0; i < 20; i++){\r... */\n      jump(tag_86)\n    tag_87:\n      pop\n        /* \"Certificate.sol\":4630:4636  uint i */\n      0x00\n        /* \"Certificate.sol\":4625:4752  for (uint i = 0; i < bytes(name).length; i++){\r... */\n    tag_91:\n        /* \"Certificate.sol\":4652:4656  name */\n      dup14\n        /* \"Certificate.sol\":4646:4664  bytes(name).length */\n      mload\n        /* \"Certificate.sol\":4642:4643  i */\n      dup2\n        /* \"Certificate.sol\":4642:4664  i < bytes(name).length */\n      lt\n        /* \"Certificate.sol\":4625:4752  for (uint i = 0; i < bytes(name).length; i++){\r... */\n      iszero\n      tag_92\n      jumpi\n        /* \"Certificate.sol\":4708:4712  name */\n      dup14\n        /* \"Certificate.sol\":4714:4715  i */\n      dup2\n        /* \"Certificate.sol\":4702:4716  bytes(name)[i] */\n      dup2\n      mload\n      dup2\n      lt\n      tag_94\n      jumpi\n      invalid\n    tag_94:\n      0x20\n      add\n      add\n      mload\n      0xf8\n      shr\n      0xf8\n      shl\n        /* \"Certificate.sol\":4685:4690  _data */\n      dup8\n        /* \"Certificate.sol\":4691:4698  counter */\n      dup8\n        /* \"Certificate.sol\":4685:4699  _data[counter] */\n      dup2\n      mload\n      dup2\n      lt\n      tag_95\n      jumpi\n      invalid\n    tag_95:\n      0x20\n      add\n      add\n        /* \"Certificate.sol\":4685:4716  _data[counter] = bytes(name)[i] */\n      swap1\n      not(0xffffffffffffffffffffffffffffffffffffffffffffffffffffffffffffff)\n      and\n      swap1\n      dup2\n      0x00\n      byte\n      swap1\n      mstore8\n      pop\n        /* \"Certificate.sol\":4731:4740  counter++ */\n      dup6\n      dup1\n      0x01\n      add\n      swap7\n      pop\n      pop\n        /* \"Certificate.sol\":4666:4669  i++ */\n      dup1\n      dup1\n      0x01\n      add\n      swap2\n      pop\n      pop\n        /* \"Certificate.sol\":4625:4752  for (uint i = 0; i < bytes(name).length; i++){\r... */\n      jump(tag_91)\n    tag_92:\n      pop\n        /* \"Certificate.sol\":4767:4773  uint i */\n      0x00\n        /* \"Certificate.sol\":4762:4891  for (uint i = 0; i < bytes(birth).length; i++){\r... */\n    tag_96:\n        /* \"Certificate.sol\":4789:4794  birth */\n      dup13\n        /* \"Certificate.sol\":4783:4802  bytes(birth).length */\n      mload\n        /* \"Certificate.sol\":4779:4780  i */\n      dup2\n        /* \"Certificate.sol\":4779:4802  i < bytes(birth).length */\n      lt\n        /* \"Certificate.sol\":4762:4891  for (uint i = 0; i < bytes(birth).length; i++){\r... */\n      iszero\n      tag_97\n      jumpi\n        /* \"Certificate.sol\":4846:4851  birth */\n      dup13\n        /* \"Certificate.sol\":4853:4854  i */\n      dup2\n        /* \"Certificate.sol\":4840:4855  bytes(birth)[i] */\n      dup2\n      mload\n      dup2\n      lt\n      tag_99\n      jumpi\n      invalid\n    tag_99:\n      0x20\n      add\n      add\n      mload\n      0xf8\n      shr\n      0xf8\n      shl\n        /* \"Certificate.sol\":4823:4828  _data */\n      dup8\n        /* \"Certificate.sol\":4829:4836  counter */\n      dup8\n        /* \"Certificate.sol\":4823:4837  _data[counter] */\n      dup2\n      mload\n      dup2\n      lt\n      tag_100\n      jumpi\n      invalid\n    tag_100:\n      0x20\n      add\n      add\n        /* \"Certificate.sol\":4823:4855  _data[counter] = bytes(birth)[i] */\n      swap1\n      not(0xffffffffffffffffffffffffffffffffffffffffffffffffffffffffffffff)\n      and\n      swap1\n      dup2\n      0x00\n      byte\n      swap1\n      mstore8\n      pop\n        /* \"Certificate.sol\":4870:4879  counter++ */\n      dup6\n      dup1\n      0x01\n      add\n      swap7\n      pop\n      pop\n        /* \"Certificate.sol\":4804:4807  i++ */\n      dup1\n      dup1\n      0x01\n      add\n      swap2\n      pop\n      pop\n        /* \"Certificate.sol\":4762:4891  for (uint i = 0; i < bytes(birth).length; i++){\r... */\n      jump(tag_96)\n    tag_97:\n      pop\n        /* \"Certificate.sol\":4906:4912  uint i */\n      0x00\n        /* \"Certificate.sol\":4901:5015  for (uint i = 0; i < 32; i++){\r... */\n    tag_101:\n        /* \"Certificate.sol\":4922:4924  32 */\n      0x20\n        /* \"Certificate.sol\":4918:4919  i */\n      dup2\n        /* \"Certificate.sol\":4918:4924  i < 32 */\n      lt\n        /* \"Certificate.sol\":4901:5015  for (uint i = 0; i < 32; i++){\r... */\n      iszero\n      tag_102\n      jumpi\n        /* \"Certificate.sol\":4968:4975  bBefore */\n      dup4\n        /* \"Certificate.sol\":4977:4978  i */\n      dup2\n        /* \"Certificate.sol\":4962:4979  bytes(bBefore)[i] */\n      dup2\n      mload\n      dup2\n      lt\n      tag_104\n      jumpi\n      invalid\n    tag_104:\n      0x20\n      add\n      add\n      mload\n      0xf8\n      shr\n      0xf8\n      shl\n        /* \"Certificate.sol\":4945:4950  _data */\n      dup8\n        /* \"Certificate.sol\":4951:4958  counter */\n      dup8\n        /* \"Certificate.sol\":4945:4959  _data[counter] */\n      dup2\n      mload\n      dup2\n      lt\n      tag_105\n      jumpi\n      invalid\n    tag_105:\n      0x20\n      add\n      add\n        /* \"Certificate.sol\":4945:4979  _data[counter] = bytes(bBefore)[i] */\n      swap1\n      not(0xffffffffffffffffffffffffffffffffffffffffffffffffffffffffffffff)\n      and\n      swap1\n      dup2\n      0x00\n      byte\n      swap1\n      mstore8\n      pop\n        /* \"Certificate.sol\":4994:5003  counter++ */\n      dup6\n      dup1\n      0x01\n      add\n      swap7\n      pop\n      pop\n        /* \"Certificate.sol\":4926:4929  i++ */\n      dup1\n      dup1\n      0x01\n      add\n      swap2\n      pop\n      pop\n        /* \"Certificate.sol\":4901:5015  for (uint i = 0; i < 32; i++){\r... */\n      jump(tag_101)\n    tag_102:\n      pop\n        /* \"Certificate.sol\":5030:5036  uint i */\n      0x00\n        /* \"Certificate.sol\":5025:5138  for (uint i = 0; i < 32; i++){\r... */\n    tag_106:\n        /* \"Certificate.sol\":5046:5048  32 */\n      0x20\n        /* \"Certificate.sol\":5042:5043  i */\n      dup2\n        /* \"Certificate.sol\":5042:5048  i < 32 */\n      lt\n        /* \"Certificate.sol\":5025:5138  for (uint i = 0; i < 32; i++){\r... */\n      iszero\n      tag_107\n      jumpi\n        /* \"Certificate.sol\":5092:5098  bafter */\n      dup3\n        /* \"Certificate.sol\":5100:5101  i */\n      dup2\n        /* \"Certificate.sol\":5086:5102  bytes(bafter)[i] */\n      dup2\n      mload\n      dup2\n      lt\n      tag_109\n      jumpi\n      invalid\n    tag_109:\n      0x20\n      add\n      add\n      mload\n      0xf8\n      shr\n      0xf8\n      shl\n        /* \"Certificate.sol\":5069:5074  _data */\n      dup8\n        /* \"Certificate.sol\":5075:5082  counter */\n      dup8\n        /* \"Certificate.sol\":5069:5083  _data[counter] */\n      dup2\n      mload\n      dup2\n      lt\n      tag_110\n      jumpi\n      invalid\n    tag_110:\n      0x20\n      add\n      add\n        /* \"Certificate.sol\":5069:5102  _data[counter] = bytes(bafter)[i] */\n      swap1\n      not(0xffffffffffffffffffffffffffffffffffffffffffffffffffffffffffffff)\n      and\n      swap1\n      dup2\n      0x00\n      byte\n      swap1\n      mstore8\n      pop\n        /* \"Certificate.sol\":5117:5126  counter++ */\n      dup6\n      dup1\n      0x01\n      add\n      swap7\n      pop\n      pop\n        /* \"Certificate.sol\":5050:5053  i++ */\n      dup1\n      dup1\n      0x01\n      add\n      swap2\n      pop\n      pop\n        /* \"Certificate.sol\":5025:5138  for (uint i = 0; i < 32; i++){\r... */\n      jump(tag_106)\n    tag_107:\n      pop\n        /* \"Certificate.sol\":5153:5159  uint i */\n      0x00\n        /* \"Certificate.sol\":5148:5258  for (uint i = 0; i < 32; i++){\r... */\n    tag_111:\n        /* \"Certificate.sol\":5169:5171  32 */\n      0x20\n        /* \"Certificate.sol\":5165:5166  i */\n      dup2\n        /* \"Certificate.sol\":5165:5171  i < 32 */\n      lt\n        /* \"Certificate.sol\":5148:5258  for (uint i = 0; i < 32; i++){\r... */\n      iszero\n      tag_112\n      jumpi\n        /* \"Certificate.sol\":5215:5218  bId */\n      dup2\n        /* \"Certificate.sol\":5220:5221  i */\n      dup2\n        /* \"Certificate.sol\":5209:5222  bytes(bId)[i] */\n      dup2\n      mload\n      dup2\n      lt\n      tag_114\n      jumpi\n      invalid\n    tag_114:\n      0x20\n      add\n      add\n      mload\n      0xf8\n      shr\n      0xf8\n      shl\n        /* \"Certificate.sol\":5192:5197  _data */\n      dup8\n        /* \"Certificate.sol\":5198:5205  counter */\n      dup8\n        /* \"Certificate.sol\":5192:5206  _data[counter] */\n      dup2\n      mload\n      dup2\n      lt\n      tag_115\n      jumpi\n      invalid\n    tag_115:\n      0x20\n      add\n      add\n        /* \"Certificate.sol\":5192:5222  _data[counter] = bytes(bId)[i] */\n      swap1\n      not(0xffffffffffffffffffffffffffffffffffffffffffffffffffffffffffffff)\n      and\n      swap1\n      dup2\n      0x00\n      byte\n      swap1\n      mstore8\n      pop\n        /* \"Certificate.sol\":5237:5246  counter++ */\n      dup6\n      dup1\n      0x01\n      add\n      swap7\n      pop\n      pop\n        /* \"Certificate.sol\":5173:5176  i++ */\n      dup1\n      dup1\n      0x01\n      add\n      swap2\n      pop\n      pop\n        /* \"Certificate.sol\":5148:5258  for (uint i = 0; i < 32; i++){\r... */\n      jump(tag_111)\n    tag_112:\n      pop\n        /* \"Certificate.sol\":5278:5296  bytes32 verifyHash */\n      0x00\n        /* \"Certificate.sol\":5309:5314  _data */\n      dup7\n        /* \"Certificate.sol\":5299:5315  keccak256(_data) */\n      dup1\n      mload\n      swap1\n      0x20\n      add\n      keccak256\n        /* \"Certificate.sol\":5278:5315  bytes32 verifyHash = keccak256(_data) */\n      swap1\n      pop\n        /* \"Certificate.sol\":5353:5365  certificates */\n      0x05\n        /* \"Certificate.sol\":5353:5377  certificates[msg.sender] */\n      0x00\n        /* \"Certificate.sol\":5366:5376  msg.sender */\n      caller\n        /* \"Certificate.sol\":5353:5377  certificates[msg.sender] */\n      0xffffffffffffffffffffffffffffffffffffffff\n      and\n      0xffffffffffffffffffffffffffffffffffffffff\n      and\n      dup2\n      mstore\n      0x20\n      add\n      swap1\n      dup2\n      mstore\n      0x20\n      add\n      0x00\n      keccak256\n        /* \"Certificate.sol\":5353:5386  certificates[msg.sender].certhash */\n      0x00\n      add\n      sload\n        /* \"Certificate.sol\":5339:5349  verifyHash */\n      dup2\n        /* \"Certificate.sol\":5339:5386  verifyHash == certificates[msg.sender].certhash */\n      eq\n        /* \"Certificate.sol\":5336:5478  if(verifyHash == certificates[msg.sender].certhash){\r... */\n      iszero\n      tag_116\n      jumpi\n        /* \"Certificate.sol\":5409:5413  true */\n      0x01\n        /* \"Certificate.sol\":5402:5413  return true */\n      swap9\n      pop\n      pop\n      pop\n      pop\n      pop\n      pop\n      pop\n      pop\n      pop\n      jump(tag_83)\n        /* \"Certificate.sol\":5336:5478  if(verifyHash == certificates[msg.sender].certhash){\r... */\n    tag_116:\n        /* \"Certificate.sol\":5461:5466  false */\n      0x00\n        /* \"Certificate.sol\":5454:5466  return false */\n      swap9\n      pop\n      pop\n      pop\n      pop\n      pop\n      pop\n      pop\n      pop\n      pop\n        /* \"Certificate.sol\":3984:5485  function verification(string memory name, string memory birth, uint nbefore, uint nafter, bytes32 id) public view returns(bool){\r... */\n    tag_83:\n      swap6\n      swap5\n      pop\n      pop\n      pop\n      pop\n      pop\n      jump\t// out\n        /* \"Certificate.sol\":681:704  deleteInfo[] public del */\n    tag_43:\n      0x06\n      dup2\n      dup2\n      sload\n      dup2\n      lt\n      tag_118\n      jumpi\n      invalid\n    tag_118:\n      swap1\n      0x00\n      mstore\n      keccak256(0x00, 0x20)\n      add\n      0x00\n      swap2\n      pop\n      swap1\n      pop\n      dup1\n      0x00\n      add\n      sload\n      swap1\n      pop\n      dup2\n      jump\t// out\n        /* \"Certificate.sol\":574:623  mapping(address => userinfo) public addressToInfo */\n    tag_46:\n      mstore(0x20, 0x04)\n      dup1\n      0x00\n      mstore\n      keccak256(0x00, 0x40)\n      0x00\n      swap2\n      pop\n      swap1\n      pop\n      dup1\n      0x00\n      add\n      0x00\n      swap1\n      sload\n      swap1\n      0x0100\n      exp\n      swap1\n      div\n      0xffffffffffffffffffffffffffffffffffffffff\n      and\n      swap1\n      dup1\n      0x01\n      add\n      dup1\n      sload\n      0x01\n      dup2\n      0x01\n      and\n      iszero\n      0x0100\n      mul\n      sub\n      and\n      0x02\n      swap1\n      div\n      dup1\n      0x1f\n      add\n      0x20\n      dup1\n      swap2\n      div\n      mul\n      0x20\n      add\n      mload(0x40)\n      swap1\n      dup2\n      add\n      0x40\n      mstore\n      dup1\n      swap3\n      swap2\n      swap1\n      dup2\n      dup2\n      mstore\n      0x20\n      add\n      dup3\n      dup1\n      sload\n      0x01\n      dup2\n      0x01\n      and\n      iszero\n      0x0100\n      mul\n      sub\n      and\n      0x02\n      swap1\n      div\n      dup1\n      iszero\n      tag_120\n      jumpi\n      dup1\n      0x1f\n      lt\n      tag_121\n      jumpi\n      0x0100\n      dup1\n      dup4\n      sload\n      div\n      mul\n      dup4\n      mstore\n      swap2\n      0x20\n      add\n      swap2\n      jump(tag_120)\n    tag_121:\n      dup3\n      add\n      swap2\n      swap1\n      0x00\n      mstore\n      keccak256(0x00, 0x20)\n      swap1\n    tag_122:\n      dup2\n      sload\n      dup2\n      mstore\n      swap1\n      0x01\n      add\n      swap1\n      0x20\n      add\n      dup1\n      dup4\n      gt\n      tag_122\n      jumpi\n      dup3\n      swap1\n      sub\n      0x1f\n      and\n      dup3\n      add\n      swap2\n    tag_120:\n      pop\n      pop\n      pop\n      pop\n      pop\n      swap1\n      dup1\n      0x02\n      add\n      dup1\n      sload\n      0x01\n      dup2\n      0x01\n      and\n      iszero\n      0x0100\n      mul\n      sub\n      and\n      0x02\n      swap1\n      div\n      dup1\n      0x1f\n      add\n      0x20\n      dup1\n      swap2\n      div\n      mul\n      0x20\n      add\n      mload(0x40)\n      swap1\n      dup2\n      add\n      0x40\n      mstore\n      dup1\n      swap3\n      swap2\n      swap1\n      dup2\n      dup2\n      mstore\n      0x20\n      add\n      dup3\n      dup1\n      sload\n      0x01\n      dup2\n      0x01\n      and\n      iszero\n      0x0100\n      mul\n      sub\n      and\n      0x02\n      swap1\n      div\n      dup1\n      iszero\n      tag_123\n      jumpi\n      dup1\n      0x1f\n      lt\n      tag_124\n      jumpi\n      0x0100\n      dup1\n      dup4\n      sload\n      div\n      mul\n      dup4\n      mstore\n      swap2\n      0x20\n      add\n      swap2\n      jump(tag_123)\n    tag_124:\n      dup3\n      add\n      swap2\n      swap1\n      0x00\n      mstore\n      keccak256(0x00, 0x20)\n      swap1\n    tag_125:\n      dup2\n      sload\n      dup2\n      mstore\n      swap1\n      0x01\n      add\n      swap1\n      0x20\n      add\n      dup1\n      dup4\n      gt\n      tag_125\n      jumpi\n      dup3\n      swap1\n      sub\n      0x1f\n      and\n      dup3\n      add\n      swap2\n    tag_123:\n      pop\n      pop\n      pop\n      pop\n      pop\n      swap1\n      dup1\n      0x03\n      add\n      sload\n      swap1\n      dup1\n      0x04\n      add\n      sload\n      swap1\n      dup1\n      0x05\n      add\n      sload\n      swap1\n      pop\n      dup7\n      jump\t// out\n        /* \"Certificate.sol\":3198:3549  function getCertificate() public view returns(address, string memory, string memory, uint, uint, bytes32, address){\r... */\n    tag_56:\n        /* \"Certificate.sol\":3244:3251  address */\n      0x00\n        /* \"Certificate.sol\":3253:3266  string memory */\n      0x60\n        /* \"Certificate.sol\":3268:3281  string memory */\n      dup1\n        /* \"Certificate.sol\":3283:3287  uint */\n      0x00\n        /* \"Certificate.sol\":3289:3293  uint */\n      dup1\n        /* \"Certificate.sol\":3295:3302  bytes32 */\n      0x00\n        /* \"Certificate.sol\":3304:3311  address */\n      dup1\n        /* \"Certificate.sol\":3330:3343  addressToInfo */\n      0x04\n        /* \"Certificate.sol\":3330:3355  addressToInfo[msg.sender] */\n      0x00\n        /* \"Certificate.sol\":3344:3354  msg.sender */\n      caller\n        /* \"Certificate.sol\":3330:3355  addressToInfo[msg.sender] */\n      0xffffffffffffffffffffffffffffffffffffffff\n      and\n      0xffffffffffffffffffffffffffffffffffffffff\n      and\n      dup2\n      mstore\n      0x20\n      add\n      swap1\n      dup2\n      mstore\n      0x20\n      add\n      0x00\n      keccak256\n        /* \"Certificate.sol\":3330:3360  addressToInfo[msg.sender].addr */\n      0x00\n      add\n      0x00\n      swap1\n      sload\n      swap1\n      0x0100\n      exp\n      swap1\n      div\n      0xffffffffffffffffffffffffffffffffffffffff\n      and\n        /* \"Certificate.sol\":3362:3375  addressToInfo */\n      0x04\n        /* \"Certificate.sol\":3362:3387  addressToInfo[msg.sender] */\n      0x00\n        /* \"Certificate.sol\":3376:3386  msg.sender */\n      caller\n        /* \"Certificate.sol\":3362:3387  addressToInfo[msg.sender] */\n      0xffffffffffffffffffffffffffffffffffffffff\n      and\n      0xffffffffffffffffffffffffffffffffffffffff\n      and\n      dup2\n      mstore\n      0x20\n      add\n      swap1\n      dup2\n      mstore\n      0x20\n      add\n      0x00\n      keccak256\n        /* \"Certificate.sol\":3362:3392  addressToInfo[msg.sender].name */\n      0x01\n      add\n        /* \"Certificate.sol\":3394:3407  addressToInfo */\n      0x04\n        /* \"Certificate.sol\":3394:3419  addressToInfo[msg.sender] */\n      0x00\n        /* \"Certificate.sol\":3408:3418  msg.sender */\n      caller\n        /* \"Certificate.sol\":3394:3419  addressToInfo[msg.sender] */\n      0xffffffffffffffffffffffffffffffffffffffff\n      and\n      0xffffffffffffffffffffffffffffffffffffffff\n      and\n      dup2\n      mstore\n      0x20\n      add\n      swap1\n      dup2\n      mstore\n      0x20\n      add\n      0x00\n      keccak256\n        /* \"Certificate.sol\":3394:3425  addressToInfo[msg.sender].birth */\n      0x02\n      add\n        /* \"Certificate.sol\":3427:3440  addressToInfo */\n      0x04\n        /* \"Certificate.sol\":3427:3452  addressToInfo[msg.sender] */\n      0x00\n        /* \"Certificate.sol\":3441:3451  msg.sender */\n      caller\n        /* \"Certificate.sol\":3427:3452  addressToInfo[msg.sender] */\n      0xffffffffffffffffffffffffffffffffffffffff\n      and\n      0xffffffffffffffffffffffffffffffffffffffff\n      and\n      dup2\n      mstore\n      0x20\n      add\n      swap1\n      dup2\n      mstore\n      0x20\n      add\n      0x00\n      keccak256\n        /* \"Certificate.sol\":3427:3462  addressToInfo[msg.sender].notBefore */\n      0x03\n      add\n      sload\n        /* \"Certificate.sol\":3464:3477  addressToInfo */\n      0x04\n        /* \"Certificate.sol\":3464:3489  addressToInfo[msg.sender] */\n      0x00\n        /* \"Certificate.sol\":3478:3488  msg.sender */\n      caller\n        /* \"Certificate.sol\":3464:3489  addressToInfo[msg.sender] */\n      0xffffffffffffffffffffffffffffffffffffffff\n      and\n      0xffffffffffffffffffffffffffffffffffffffff\n      and\n      dup2\n      mstore\n      0x20\n      add\n      swap1\n      dup2\n      mstore\n      0x20\n      add\n      0x00\n      keccak256\n        /* \"Certificate.sol\":3464:3498  addressToInfo[msg.sender].notAfter */\n      0x04\n      add\n      sload\n        /* \"Certificate.sol\":3500:3513  addressToInfo */\n      0x04\n        /* \"Certificate.sol\":3500:3525  addressToInfo[msg.sender] */\n      0x00\n        /* \"Certificate.sol\":3514:3524  msg.sender */\n      caller\n        /* \"Certificate.sol\":3500:3525  addressToInfo[msg.sender] */\n      0xffffffffffffffffffffffffffffffffffffffff\n      and\n      0xffffffffffffffffffffffffffffffffffffffff\n      and\n      dup2\n      mstore\n      0x20\n      add\n      swap1\n      dup2\n      mstore\n      0x20\n      add\n      0x00\n      keccak256\n        /* \"Certificate.sol\":3500:3528  addressToInfo[msg.sender].id */\n      0x05\n      add\n      sload\n        /* \"Certificate.sol\":3530:3540  msg.sender */\n      caller\n        /* \"Certificate.sol\":3323:3541  return(addressToInfo[msg.sender].addr, addressToInfo[msg.sender].name, addressToInfo[msg.sender].birth, addressToInfo[msg.sender].notBefore, addressToInfo[msg.sender].notAfter, addressToInfo[msg.sender].id, msg.sender) */\n      dup6\n      dup1\n      sload\n      0x01\n      dup2\n      0x01\n      and\n      iszero\n      0x0100\n      mul\n      sub\n      and\n      0x02\n      swap1\n      div\n      dup1\n      0x1f\n      add\n      0x20\n      dup1\n      swap2\n      div\n      mul\n      0x20\n      add\n      mload(0x40)\n      swap1\n      dup2\n      add\n      0x40\n      mstore\n      dup1\n      swap3\n      swap2\n      swap1\n      dup2\n      dup2\n      mstore\n      0x20\n      add\n      dup3\n      dup1\n      sload\n      0x01\n      dup2\n      0x01\n      and\n      iszero\n      0x0100\n      mul\n      sub\n      and\n      0x02\n      swap1\n      div\n      dup1\n      iszero\n      tag_127\n      jumpi\n      dup1\n      0x1f\n      lt\n      tag_128\n      jumpi\n      0x0100\n      dup1\n      dup4\n      sload\n      div\n      mul\n      dup4\n      mstore\n      swap2\n      0x20\n      add\n      swap2\n      jump(tag_127)\n    tag_128:\n      dup3\n      add\n      swap2\n      swap1\n      0x00\n      mstore\n      keccak256(0x00, 0x20)\n      swap1\n    tag_129:\n      dup2\n      sload\n      dup2\n      mstore\n      swap1\n      0x01\n      add\n      swap1\n      0x20\n      add\n      dup1\n      dup4\n      gt\n      tag_129\n      jumpi\n      dup3\n      swap1\n      sub\n      0x1f\n      and\n      dup3\n      add\n      swap2\n    tag_127:\n      pop\n      pop\n      pop\n      pop\n      pop\n      swap6\n      pop\n      dup5\n      dup1\n      sload\n      0x01\n      dup2\n      0x01\n      and\n      iszero\n      0x0100\n      mul\n      sub\n      and\n      0x02\n      swap1\n      div\n      dup1\n      0x1f\n      add\n      0x20\n      dup1\n      swap2\n      div\n      mul\n      0x20\n      add\n      mload(0x40)\n      swap1\n      dup2\n      add\n      0x40\n      mstore\n      dup1\n      swap3\n      swap2\n      swap1\n      dup2\n      dup2\n      mstore\n      0x20\n      add\n      dup3\n      dup1\n      sload\n      0x01\n      dup2\n      0x01\n      and\n      iszero\n      0x0100\n      mul\n      sub\n      and\n      0x02\n      swap1\n      div\n      dup1\n      iszero\n      tag_130\n      jumpi\n      dup1\n      0x1f\n      lt\n      tag_131\n      jumpi\n      0x0100\n      dup1\n      dup4\n      sload\n      div\n      mul\n      dup4\n      mstore\n      swap2\n      0x20\n      add\n      swap2\n      jump(tag_130)\n    tag_131:\n      dup3\n      add\n      swap2\n      swap1\n      0x00\n      mstore\n      keccak256(0x00, 0x20)\n      swap1\n    tag_132:\n      dup2\n      sload\n      dup2\n      mstore\n      swap1\n      0x01\n      add\n      swap1\n      0x20\n      add\n      dup1\n      dup4\n      gt\n      tag_132\n      jumpi\n      dup3\n      swap1\n      sub\n      0x1f\n      and\n      dup3\n      add\n      swap2\n    tag_130:\n      pop\n      pop\n      pop\n      pop\n      pop\n      swap5\n      pop\n      swap7\n      pop\n      swap7\n      pop\n      swap7\n      pop\n      swap7\n      pop\n      swap7\n      pop\n      swap7\n      pop\n      swap7\n      pop\n        /* \"Certificate.sol\":3198:3549  function getCertificate() public view returns(address, string memory, string memory, uint, uint, bytes32, address){\r... */\n      swap1\n      swap2\n      swap3\n      swap4\n      swap5\n      swap6\n      swap7\n      jump\t// out\n        /* \"Certificate.sol\":723:884  function hasinfo() public view returns(bool){\r... */\n    tag_66:\n        /* \"Certificate.sol\":762:766  bool */\n      0x00\n        /* \"Certificate.sol\":813:814  0 */\n      dup1\n        /* \"Certificate.sol\":781:814  addressToInfo[msg.sender].id == 0 */\n      0x00\n      shl\n        /* \"Certificate.sol\":781:794  addressToInfo */\n      0x04\n        /* \"Certificate.sol\":781:806  addressToInfo[msg.sender] */\n      0x00\n        /* \"Certificate.sol\":795:805  msg.sender */\n      caller\n        /* \"Certificate.sol\":781:806  addressToInfo[msg.sender] */\n      0xffffffffffffffffffffffffffffffffffffffff\n      and\n      0xffffffffffffffffffffffffffffffffffffffff\n      and\n      dup2\n      mstore\n      0x20\n      add\n      swap1\n      dup2\n      mstore\n      0x20\n      add\n      0x00\n      keccak256\n        /* \"Certificate.sol\":781:809  addressToInfo[msg.sender].id */\n      0x05\n      add\n      sload\n        /* \"Certificate.sol\":781:814  addressToInfo[msg.sender].id == 0 */\n      eq\n        /* \"Certificate.sol\":778:855  if(addressToInfo[msg.sender].id == 0 ){\r... */\n      iszero\n      tag_134\n      jumpi\n        /* \"Certificate.sol\":838:843  false */\n      0x00\n        /* \"Certificate.sol\":831:843  return false */\n      swap1\n      pop\n      jump(tag_133)\n        /* \"Certificate.sol\":778:855  if(addressToInfo[msg.sender].id == 0 ){\r... */\n    tag_134:\n        /* \"Certificate.sol\":872:876  true */\n      0x01\n        /* \"Certificate.sol\":865:876  return true */\n      swap1\n      pop\n        /* \"Certificate.sol\":723:884  function hasinfo() public view returns(bool){\r... */\n    tag_133:\n      swap1\n      jump\t// out\n        /* \"Certificate.sol\":896:1011  function setTime() private {\r... */\n    tag_78:\n        /* \"Certificate.sol\":946:961  block.timestamp */\n      timestamp\n        /* \"Certificate.sol\":934:943  notBefore */\n      0x02\n        /* \"Certificate.sol\":934:961  notBefore = block.timestamp */\n      dup2\n      swap1\n      sstore\n      pop\n        /* \"Certificate.sol\":995:1003  365 days */\n      0x01e13380\n        /* \"Certificate.sol\":983:992  notBefore */\n      sload(0x02)\n        /* \"Certificate.sol\":983:1003  notBefore + 365 days */\n      add\n        /* \"Certificate.sol\":972:980  notAfter */\n      0x03\n        /* \"Certificate.sol\":972:1003  notAfter = notBefore + 365 days */\n      dup2\n      swap1\n      sstore\n      pop\n        /* \"Certificate.sol\":896:1011  function setTime() private {\r... */\n      jump\t// out\n        /* \"Certificate.sol\":1023:1501  function newUserInfo(string memory name, string memory birth) private {\r... */\n    tag_80:\n        /* \"Certificate.sol\":1137:1147  msg.sender */\n      caller\n        /* \"Certificate.sol\":1104:1117  addressToInfo */\n      0x04\n        /* \"Certificate.sol\":1104:1129  addressToInfo[msg.sender] */\n      0x00\n        /* \"Certificate.sol\":1118:1128  msg.sender */\n      caller\n        /* \"Certificate.sol\":1104:1129  addressToInfo[msg.sender] */\n      0xffffffffffffffffffffffffffffffffffffffff\n      and\n      0xffffffffffffffffffffffffffffffffffffffff\n      and\n      dup2\n      mstore\n      0x20\n      add\n      swap1\n      dup2\n      mstore\n      0x20\n      add\n      0x00\n      keccak256\n        /* \"Certificate.sol\":1104:1134  addressToInfo[msg.sender].addr */\n      0x00\n      add\n      0x00\n        /* \"Certificate.sol\":1104:1147  addressToInfo[msg.sender].addr = msg.sender */\n      0x0100\n      exp\n      dup2\n      sload\n      dup2\n      0xffffffffffffffffffffffffffffffffffffffff\n      mul\n      not\n      and\n      swap1\n      dup4\n      0xffffffffffffffffffffffffffffffffffffffff\n      and\n      mul\n      or\n      swap1\n      sstore\n      pop\n        /* \"Certificate.sol\":1191:1195  name */\n      dup2\n        /* \"Certificate.sol\":1158:1171  addressToInfo */\n      0x04\n        /* \"Certificate.sol\":1158:1183  addressToInfo[msg.sender] */\n      0x00\n        /* \"Certificate.sol\":1172:1182  msg.sender */\n      caller\n        /* \"Certificate.sol\":1158:1183  addressToInfo[msg.sender] */\n      0xffffffffffffffffffffffffffffffffffffffff\n      and\n      0xffffffffffffffffffffffffffffffffffffffff\n      and\n      dup2\n      mstore\n      0x20\n      add\n      swap1\n      dup2\n      mstore\n      0x20\n      add\n      0x00\n      keccak256\n        /* \"Certificate.sol\":1158:1188  addressToInfo[msg.sender].name */\n      0x01\n      add\n        /* \"Certificate.sol\":1158:1195  addressToInfo[msg.sender].name = name */\n      swap1\n      dup1\n      mload\n      swap1\n      0x20\n      add\n      swap1\n      tag_137\n      swap3\n      swap2\n      swap1\n      tag_138\n      jump\t// in\n    tag_137:\n      pop\n        /* \"Certificate.sol\":1240:1245  birth */\n      dup1\n        /* \"Certificate.sol\":1206:1219  addressToInfo */\n      0x04\n        /* \"Certificate.sol\":1206:1231  addressToInfo[msg.sender] */\n      0x00\n        /* \"Certificate.sol\":1220:1230  msg.sender */\n      caller\n        /* \"Certificate.sol\":1206:1231  addressToInfo[msg.sender] */\n      0xffffffffffffffffffffffffffffffffffffffff\n      and\n      0xffffffffffffffffffffffffffffffffffffffff\n      and\n      dup2\n      mstore\n      0x20\n      add\n      swap1\n      dup2\n      mstore\n      0x20\n      add\n      0x00\n      keccak256\n        /* \"Certificate.sol\":1206:1237  addressToInfo[msg.sender].birth */\n      0x02\n      add\n        /* \"Certificate.sol\":1206:1245  addressToInfo[msg.sender].birth = birth */\n      swap1\n      dup1\n      mload\n      swap1\n      0x20\n      add\n      swap1\n      tag_139\n      swap3\n      swap2\n      swap1\n      tag_138\n      jump\t// in\n    tag_139:\n      pop\n        /* \"Certificate.sol\":1294:1303  notBefore */\n      sload(0x02)\n        /* \"Certificate.sol\":1256:1269  addressToInfo */\n      0x04\n        /* \"Certificate.sol\":1256:1281  addressToInfo[msg.sender] */\n      0x00\n        /* \"Certificate.sol\":1270:1280  msg.sender */\n      caller\n        /* \"Certificate.sol\":1256:1281  addressToInfo[msg.sender] */\n      0xffffffffffffffffffffffffffffffffffffffff\n      and\n      0xffffffffffffffffffffffffffffffffffffffff\n      and\n      dup2\n      mstore\n      0x20\n      add\n      swap1\n      dup2\n      mstore\n      0x20\n      add\n      0x00\n      keccak256\n        /* \"Certificate.sol\":1256:1291  addressToInfo[msg.sender].notBefore */\n      0x03\n      add\n        /* \"Certificate.sol\":1256:1303  addressToInfo[msg.sender].notBefore = notBefore */\n      dup2\n      swap1\n      sstore\n      pop\n        /* \"Certificate.sol\":1351:1359  notAfter */\n      sload(0x03)\n        /* \"Certificate.sol\":1314:1327  addressToInfo */\n      0x04\n        /* \"Certificate.sol\":1314:1339  addressToInfo[msg.sender] */\n      0x00\n        /* \"Certificate.sol\":1328:1338  msg.sender */\n      caller\n        /* \"Certificate.sol\":1314:1339  addressToInfo[msg.sender] */\n      0xffffffffffffffffffffffffffffffffffffffff\n      and\n      0xffffffffffffffffffffffffffffffffffffffff\n      and\n      dup2\n      mstore\n      0x20\n      add\n      swap1\n      dup2\n      mstore\n      0x20\n      add\n      0x00\n      keccak256\n        /* \"Certificate.sol\":1314:1348  addressToInfo[msg.sender].notAfter */\n      0x04\n      add\n        /* \"Certificate.sol\":1314:1359  addressToInfo[msg.sender].notAfter = notAfter */\n      dup2\n      swap1\n      sstore\n      pop\n        /* \"Certificate.sol\":1401:1408  setId() */\n      tag_140\n        /* \"Certificate.sol\":1401:1406  setId */\n      tag_20\n        /* \"Certificate.sol\":1401:1408  setId() */\n      jump\t// in\n    tag_140:\n        /* \"Certificate.sol\":1370:1383  addressToInfo */\n      0x04\n        /* \"Certificate.sol\":1370:1395  addressToInfo[msg.sender] */\n      0x00\n        /* \"Certificate.sol\":1384:1394  msg.sender */\n      caller\n        /* \"Certificate.sol\":1370:1395  addressToInfo[msg.sender] */\n      0xffffffffffffffffffffffffffffffffffffffff\n      and\n      0xffffffffffffffffffffffffffffffffffffffff\n      and\n      dup2\n      mstore\n      0x20\n      add\n      swap1\n      dup2\n      mstore\n      0x20\n      add\n      0x00\n      keccak256\n        /* \"Certificate.sol\":1370:1398  addressToInfo[msg.sender].id */\n      0x05\n      add\n        /* \"Certificate.sol\":1370:1408  addressToInfo[msg.sender].id = setId() */\n      dup2\n      swap1\n      sstore\n      pop\n        /* \"Certificate.sol\":1450:1492  userinfoToBytes(addressToInfo[msg.sender]) */\n      tag_141\n        /* \"Certificate.sol\":1466:1479  addressToInfo */\n      0x04\n        /* \"Certificate.sol\":1466:1491  addressToInfo[msg.sender] */\n      0x00\n        /* \"Certificate.sol\":1480:1490  msg.sender */\n      caller\n        /* \"Certificate.sol\":1466:1491  addressToInfo[msg.sender] */\n      0xffffffffffffffffffffffffffffffffffffffff\n      and\n      0xffffffffffffffffffffffffffffffffffffffff\n      and\n      dup2\n      mstore\n      0x20\n      add\n      swap1\n      dup2\n      mstore\n      0x20\n      add\n      0x00\n      keccak256\n        /* \"Certificate.sol\":1450:1492  userinfoToBytes(addressToInfo[msg.sender]) */\n      mload(0x40)\n      dup1\n      0xc0\n      add\n      0x40\n      mstore\n      swap1\n      dup2\n      0x00\n      dup3\n      add\n      0x00\n      swap1\n      sload\n      swap1\n      0x0100\n      exp\n      swap1\n      div\n      0xffffffffffffffffffffffffffffffffffffffff\n      and\n      0xffffffffffffffffffffffffffffffffffffffff\n      and\n      0xffffffffffffffffffffffffffffffffffffffff\n      and\n      dup2\n      mstore\n      0x20\n      add\n      0x01\n      dup3\n      add\n      dup1\n      sload\n      0x01\n      dup2\n      0x01\n      and\n      iszero\n      0x0100\n      mul\n      sub\n      and\n      0x02\n      swap1\n      div\n      dup1\n      0x1f\n      add\n      0x20\n      dup1\n      swap2\n      div\n      mul\n      0x20\n      add\n      mload(0x40)\n      swap1\n      dup2\n      add\n      0x40\n      mstore\n      dup1\n      swap3\n      swap2\n      swap1\n      dup2\n      dup2\n      mstore\n      0x20\n      add\n      dup3\n      dup1\n      sload\n      0x01\n      dup2\n      0x01\n      and\n      iszero\n      0x0100\n      mul\n      sub\n      and\n      0x02\n      swap1\n      div\n      dup1\n      iszero\n      tag_142\n      jumpi\n      dup1\n      0x1f\n      lt\n      tag_143\n      jumpi\n      0x0100\n      dup1\n      dup4\n      sload\n      div\n      mul\n      dup4\n      mstore\n      swap2\n      0x20\n      add\n      swap2\n      jump(tag_142)\n    tag_143:\n      dup3\n      add\n      swap2\n      swap1\n      0x00\n      mstore\n      keccak256(0x00, 0x20)\n      swap1\n    tag_144:\n      dup2\n      sload\n      dup2\n      mstore\n      swap1\n      0x01\n      add\n      swap1\n      0x20\n      add\n      dup1\n      dup4\n      gt\n      tag_144\n      jumpi\n      dup3\n      swap1\n      sub\n      0x1f\n      and\n      dup3\n      add\n      swap2\n    tag_142:\n      pop\n      pop\n      pop\n      pop\n      pop\n      dup2\n      mstore\n      0x20\n      add\n      0x02\n      dup3\n      add\n      dup1\n      sload\n      0x01\n      dup2\n      0x01\n      and\n      iszero\n      0x0100\n      mul\n      sub\n      and\n      0x02\n      swap1\n      div\n      dup1\n      0x1f\n      add\n      0x20\n      dup1\n      swap2\n      div\n      mul\n      0x20\n      add\n      mload(0x40)\n      swap1\n      dup2\n      add\n      0x40\n      mstore\n      dup1\n      swap3\n      swap2\n      swap1\n      dup2\n      dup2\n      mstore\n      0x20\n      add\n      dup3\n      dup1\n      sload\n      0x01\n      dup2\n      0x01\n      and\n      iszero\n      0x0100\n      mul\n      sub\n      and\n      0x02\n      swap1\n      div\n      dup1\n      iszero\n      tag_145\n      jumpi\n      dup1\n      0x1f\n      lt\n      tag_146\n      jumpi\n      0x0100\n      dup1\n      dup4\n      sload\n      div\n      mul\n      dup4\n      mstore\n      swap2\n      0x20\n      add\n      swap2\n      jump(tag_145)\n    tag_146:\n      dup3\n      add\n      swap2\n      swap1\n      0x00\n      mstore\n      keccak256(0x00, 0x20)\n      swap1\n    tag_147:\n      dup2\n      sload\n      dup2\n      mstore\n      swap1\n      0x01\n      add\n      swap1\n      0x20\n      add\n      dup1\n      dup4\n      gt\n      tag_147\n      jumpi\n      dup3\n      swap1\n      sub\n      0x1f\n      and\n      dup3\n      add\n      swap2\n    tag_145:\n      pop\n      pop\n      pop\n      pop\n      pop\n      dup2\n      mstore\n      0x20\n      add\n      0x03\n      dup3\n      add\n      sload\n      dup2\n      mstore\n      0x20\n      add\n      0x04\n      dup3\n      add\n      sload\n      dup2\n      mstore\n      0x20\n      add\n      0x05\n      dup3\n      add\n      sload\n      dup2\n      mstore\n      pop\n      pop\n        /* \"Certificate.sol\":1450:1465  userinfoToBytes */\n      tag_148\n        /* \"Certificate.sol\":1450:1492  userinfoToBytes(addressToInfo[msg.sender]) */\n      jump\t// in\n    tag_141:\n        /* \"Certificate.sol\":1440:1493  keccak256(userinfoToBytes(addressToInfo[msg.sender])) */\n      dup1\n      mload\n      swap1\n      0x20\n      add\n      keccak256\n        /* \"Certificate.sol\":1429:1437  certhash */\n      0x00\n        /* \"Certificate.sol\":1429:1493  certhash = keccak256(userinfoToBytes(addressToInfo[msg.sender])) */\n      dup2\n      swap1\n      sstore\n      pop\n        /* \"Certificate.sol\":1023:1501  function newUserInfo(string memory name, string memory birth) private {\r... */\n      pop\n      pop\n      jump\t// out\n        /* \"Certificate.sol\":2948:3186  function newCert() private {\r... */\n    tag_82:\n        /* \"Certificate.sol\":3022:3064  0xCcB8F0A7581075b74F74cfb1E4aB6fa822FACFac */\n      0xccb8f0a7581075b74f74cfb1e4ab6fa822facfac\n        /* \"Certificate.sol\":2986:2998  certificates */\n      0x05\n        /* \"Certificate.sol\":2986:3010  certificates[msg.sender] */\n      0x00\n        /* \"Certificate.sol\":2999:3009  msg.sender */\n      caller\n        /* \"Certificate.sol\":2986:3010  certificates[msg.sender] */\n      0xffffffffffffffffffffffffffffffffffffffff\n      and\n      0xffffffffffffffffffffffffffffffffffffffff\n      and\n      dup2\n      mstore\n      0x20\n      add\n      swap1\n      dup2\n      mstore\n      0x20\n      add\n      0x00\n      keccak256\n        /* \"Certificate.sol\":2986:3019  certificates[msg.sender].caPubkey */\n      0x01\n      add\n      0x00\n        /* \"Certificate.sol\":2986:3064  certificates[msg.sender].caPubkey = 0xCcB8F0A7581075b74F74cfb1E4aB6fa822FACFac */\n      0x0100\n      exp\n      dup2\n      sload\n      dup2\n      0xffffffffffffffffffffffffffffffffffffffff\n      mul\n      not\n      and\n      swap1\n      dup4\n      0xffffffffffffffffffffffffffffffffffffffff\n      and\n      mul\n      or\n      swap1\n      sstore\n      pop\n        /* \"Certificate.sol\":3113:3123  msg.sender */\n      caller\n        /* \"Certificate.sol\":3075:3087  certificates */\n      0x05\n        /* \"Certificate.sol\":3075:3099  certificates[msg.sender] */\n      0x00\n        /* \"Certificate.sol\":3088:3098  msg.sender */\n      caller\n        /* \"Certificate.sol\":3075:3099  certificates[msg.sender] */\n      0xffffffffffffffffffffffffffffffffffffffff\n      and\n      0xffffffffffffffffffffffffffffffffffffffff\n      and\n      dup2\n      mstore\n      0x20\n      add\n      swap1\n      dup2\n      mstore\n      0x20\n      add\n      0x00\n      keccak256\n        /* \"Certificate.sol\":3075:3110  certificates[msg.sender].userPubkey */\n      0x02\n      add\n      0x00\n        /* \"Certificate.sol\":3075:3123  certificates[msg.sender].userPubkey = msg.sender */\n      0x0100\n      exp\n      dup2\n      sload\n      dup2\n      0xffffffffffffffffffffffffffffffffffffffff\n      mul\n      not\n      and\n      swap1\n      dup4\n      0xffffffffffffffffffffffffffffffffffffffff\n      and\n      mul\n      or\n      swap1\n      sstore\n      pop\n        /* \"Certificate.sol\":3170:3178  certhash */\n      sload(0x00)\n        /* \"Certificate.sol\":3134:3146  certificates */\n      0x05\n        /* \"Certificate.sol\":3134:3158  certificates[msg.sender] */\n      0x00\n        /* \"Certificate.sol\":3147:3157  msg.sender */\n      caller\n        /* \"Certificate.sol\":3134:3158  certificates[msg.sender] */\n      0xffffffffffffffffffffffffffffffffffffffff\n      and\n      0xffffffffffffffffffffffffffffffffffffffff\n      and\n      dup2\n      mstore\n      0x20\n      add\n      swap1\n      dup2\n      mstore\n      0x20\n      add\n      0x00\n      keccak256\n        /* \"Certificate.sol\":3134:3167  certificates[msg.sender].certhash */\n      0x00\n      add\n        /* \"Certificate.sol\":3134:3178  certificates[msg.sender].certhash = certhash */\n      dup2\n      swap1\n      sstore\n      pop\n        /* \"Certificate.sol\":2948:3186  function newCert() private {\r... */\n      jump\t// out\n        /* \"Certificate.sol\":1513:2797  function userinfoToBytes(userinfo memory u) private returns (bytes memory data){\r... */\n    tag_148:\n        /* \"Certificate.sol\":1574:1591  bytes memory data */\n      0x60\n        /* \"Certificate.sol\":1603:1613  uint _size */\n      0x00\n        /* \"Certificate.sol\":1651:1652  u */\n      dup3\n        /* \"Certificate.sol\":1651:1658  u.birth */\n      0x40\n      add\n      mload\n        /* \"Certificate.sol\":1645:1666  bytes(u.birth).length */\n      mload\n        /* \"Certificate.sol\":1628:1629  u */\n      dup4\n        /* \"Certificate.sol\":1628:1634  u.name */\n      0x20\n      add\n      mload\n        /* \"Certificate.sol\":1622:1642  bytes(u.name).length */\n      mload\n        /* \"Certificate.sol\":1616:1619  116 */\n      0x74\n        /* \"Certificate.sol\":1616:1642  116 + bytes(u.name).length */\n      add\n        /* \"Certificate.sol\":1616:1666  116 + bytes(u.name).length + bytes(u.birth).length */\n      add\n        /* \"Certificate.sol\":1603:1666  uint _size = 116 + bytes(u.name).length + bytes(u.birth).length */\n      swap1\n      pop\n        /* \"Certificate.sol\":1677:1695  bytes memory _data */\n      0x60\n        /* \"Certificate.sol\":1708:1713  _size */\n      dup2\n        /* \"Certificate.sol\":1698:1714  new bytes(_size) */\n      0xffffffffffffffff\n      dup2\n      gt\n      dup1\n      iszero\n      tag_151\n      jumpi\n      0x00\n      dup1\n      revert\n    tag_151:\n      pop\n      mload(0x40)\n      swap1\n      dup1\n      dup3\n      mstore\n      dup1\n      0x1f\n      add\n      not(0x1f)\n      and\n      0x20\n      add\n      dup3\n      add\n      0x40\n      mstore\n      dup1\n      iszero\n      tag_152\n      jumpi\n      dup2\n      0x20\n      add\n      0x01\n      dup3\n      mul\n      dup1\n      calldatasize\n      dup4\n      calldatacopy\n      dup1\n      dup3\n      add\n      swap2\n      pop\n      pop\n      swap1\n      pop\n    tag_152:\n      pop\n        /* \"Certificate.sol\":1677:1714  bytes memory _data = new bytes(_size) */\n      swap1\n      pop\n        /* \"Certificate.sol\":1735:1747  uint counter */\n      0x00\n        /* \"Certificate.sol\":1762:1780  bytes memory baddr */\n      0x60\n        /* \"Certificate.sol\":1800:1801  u */\n      dup6\n        /* \"Certificate.sol\":1800:1806  u.addr */\n      0x00\n      add\n      mload\n        /* \"Certificate.sol\":1783:1807  abi.encodePacked(u.addr) */\n      add(0x20, mload(0x40))\n      dup1\n      dup3\n      0xffffffffffffffffffffffffffffffffffffffff\n      and\n      0x60\n      shl\n      dup2\n      mstore\n      0x14\n      add\n      swap2\n      pop\n      pop\n      mload(0x40)\n      0x20\n      dup2\n      dup4\n      sub\n      sub\n      dup2\n      mstore\n      swap1\n      0x40\n      mstore\n        /* \"Certificate.sol\":1762:1807  bytes memory baddr = abi.encodePacked(u.addr) */\n      swap1\n      pop\n        /* \"Certificate.sol\":1818:1838  bytes memory bBefore */\n      0x60\n        /* \"Certificate.sol\":1858:1859  u */\n      dup7\n        /* \"Certificate.sol\":1858:1869  u.notBefore */\n      0x60\n      add\n      mload\n        /* \"Certificate.sol\":1841:1870  abi.encodePacked(u.notBefore) */\n      add(0x20, mload(0x40))\n      dup1\n      dup3\n      dup2\n      mstore\n      0x20\n      add\n      swap2\n      pop\n      pop\n      mload(0x40)\n      0x20\n      dup2\n      dup4\n      sub\n      sub\n      dup2\n      mstore\n      swap1\n      0x40\n      mstore\n        /* \"Certificate.sol\":1818:1870  bytes memory bBefore = abi.encodePacked(u.notBefore) */\n      swap1\n      pop\n        /* \"Certificate.sol\":1881:1900  bytes memory bAfter */\n      0x60\n        /* \"Certificate.sol\":1920:1921  u */\n      dup8\n        /* \"Certificate.sol\":1920:1930  u.notAfter */\n      0x80\n      add\n      mload\n        /* \"Certificate.sol\":1903:1931  abi.encodePacked(u.notAfter) */\n      add(0x20, mload(0x40))\n      dup1\n      dup3\n      dup2\n      mstore\n      0x20\n      add\n      swap2\n      pop\n      pop\n      mload(0x40)\n      0x20\n      dup2\n      dup4\n      sub\n      sub\n      dup2\n      mstore\n      swap1\n      0x40\n      mstore\n        /* \"Certificate.sol\":1881:1931  bytes memory bAfter = abi.encodePacked(u.notAfter) */\n      swap1\n      pop\n        /* \"Certificate.sol\":1942:1958  bytes memory bId */\n      0x60\n        /* \"Certificate.sol\":1978:1979  u */\n      dup9\n        /* \"Certificate.sol\":1978:1982  u.id */\n      0xa0\n      add\n      mload\n        /* \"Certificate.sol\":1961:1983  abi.encodePacked(u.id) */\n      add(0x20, mload(0x40))\n      dup1\n      dup3\n      dup2\n      mstore\n      0x20\n      add\n      swap2\n      pop\n      pop\n      mload(0x40)\n      0x20\n      dup2\n      dup4\n      sub\n      sub\n      dup2\n      mstore\n      swap1\n      0x40\n      mstore\n        /* \"Certificate.sol\":1942:1983  bytes memory bId = abi.encodePacked(u.id) */\n      swap1\n      pop\n        /* \"Certificate.sol\":1999:2005  uint i */\n      0x00\n        /* \"Certificate.sol\":1994:2106  for (uint i = 0; i < 20; i++){\r... */\n    tag_153:\n        /* \"Certificate.sol\":2015:2017  20 */\n      0x14\n        /* \"Certificate.sol\":2011:2012  i */\n      dup2\n        /* \"Certificate.sol\":2011:2017  i < 20 */\n      lt\n        /* \"Certificate.sol\":1994:2106  for (uint i = 0; i < 20; i++){\r... */\n      iszero\n      tag_154\n      jumpi\n        /* \"Certificate.sol\":2061:2066  baddr */\n      dup5\n        /* \"Certificate.sol\":2068:2069  i */\n      dup2\n        /* \"Certificate.sol\":2055:2070  bytes(baddr)[i] */\n      dup2\n      mload\n      dup2\n      lt\n      tag_156\n      jumpi\n      invalid\n    tag_156:\n      0x20\n      add\n      add\n      mload\n      0xf8\n      shr\n      0xf8\n      shl\n        /* \"Certificate.sol\":2038:2043  _data */\n      dup8\n        /* \"Certificate.sol\":2044:2051  counter */\n      dup8\n        /* \"Certificate.sol\":2038:2052  _data[counter] */\n      dup2\n      mload\n      dup2\n      lt\n      tag_157\n      jumpi\n      invalid\n    tag_157:\n      0x20\n      add\n      add\n        /* \"Certificate.sol\":2038:2070  _data[counter] = bytes(baddr)[i] */\n      swap1\n      not(0xffffffffffffffffffffffffffffffffffffffffffffffffffffffffffffff)\n      and\n      swap1\n      dup2\n      0x00\n      byte\n      swap1\n      mstore8\n      pop\n        /* \"Certificate.sol\":2085:2094  counter++ */\n      dup6\n      dup1\n      0x01\n      add\n      swap7\n      pop\n      pop\n        /* \"Certificate.sol\":2019:2022  i++ */\n      dup1\n      dup1\n      0x01\n      add\n      swap2\n      pop\n      pop\n        /* \"Certificate.sol\":1994:2106  for (uint i = 0; i < 20; i++){\r... */\n      jump(tag_153)\n    tag_154:\n      pop\n        /* \"Certificate.sol\":2121:2127  uint i */\n      0x00\n        /* \"Certificate.sol\":2116:2247  for (uint i = 0; i < bytes(u.name).length; i++){\r... */\n    tag_158:\n        /* \"Certificate.sol\":2143:2144  u */\n      dup10\n        /* \"Certificate.sol\":2143:2149  u.name */\n      0x20\n      add\n      mload\n        /* \"Certificate.sol\":2137:2157  bytes(u.name).length */\n      mload\n        /* \"Certificate.sol\":2133:2134  i */\n      dup2\n        /* \"Certificate.sol\":2133:2157  i < bytes(u.name).length */\n      lt\n        /* \"Certificate.sol\":2116:2247  for (uint i = 0; i < bytes(u.name).length; i++){\r... */\n      iszero\n      tag_159\n      jumpi\n        /* \"Certificate.sol\":2201:2202  u */\n      dup10\n        /* \"Certificate.sol\":2201:2207  u.name */\n      0x20\n      add\n      mload\n        /* \"Certificate.sol\":2209:2210  i */\n      dup2\n        /* \"Certificate.sol\":2195:2211  bytes(u.name)[i] */\n      dup2\n      mload\n      dup2\n      lt\n      tag_161\n      jumpi\n      invalid\n    tag_161:\n      0x20\n      add\n      add\n      mload\n      0xf8\n      shr\n      0xf8\n      shl\n        /* \"Certificate.sol\":2178:2183  _data */\n      dup8\n        /* \"Certificate.sol\":2184:2191  counter */\n      dup8\n        /* \"Certificate.sol\":2178:2192  _data[counter] */\n      dup2\n      mload\n      dup2\n      lt\n      tag_162\n      jumpi\n      invalid\n    tag_162:\n      0x20\n      add\n      add\n        /* \"Certificate.sol\":2178:2211  _data[counter] = bytes(u.name)[i] */\n      swap1\n      not(0xffffffffffffffffffffffffffffffffffffffffffffffffffffffffffffff)\n      and\n      swap1\n      dup2\n      0x00\n      byte\n      swap1\n      mstore8\n      pop\n        /* \"Certificate.sol\":2226:2235  counter++ */\n      dup6\n      dup1\n      0x01\n      add\n      swap7\n      pop\n      pop\n        /* \"Certificate.sol\":2159:2162  i++ */\n      dup1\n      dup1\n      0x01\n      add\n      swap2\n      pop\n      pop\n        /* \"Certificate.sol\":2116:2247  for (uint i = 0; i < bytes(u.name).length; i++){\r... */\n      jump(tag_158)\n    tag_159:\n      pop\n        /* \"Certificate.sol\":2262:2268  uint i */\n      0x00\n        /* \"Certificate.sol\":2257:2390  for (uint i = 0; i < bytes(u.birth).length; i++){\r... */\n    tag_163:\n        /* \"Certificate.sol\":2284:2285  u */\n      dup10\n        /* \"Certificate.sol\":2284:2291  u.birth */\n      0x40\n      add\n      mload\n        /* \"Certificate.sol\":2278:2299  bytes(u.birth).length */\n      mload\n        /* \"Certificate.sol\":2274:2275  i */\n      dup2\n        /* \"Certificate.sol\":2274:2299  i < bytes(u.birth).length */\n      lt\n        /* \"Certificate.sol\":2257:2390  for (uint i = 0; i < bytes(u.birth).length; i++){\r... */\n      iszero\n      tag_164\n      jumpi\n        /* \"Certificate.sol\":2343:2344  u */\n      dup10\n        /* \"Certificate.sol\":2343:2350  u.birth */\n      0x40\n      add\n      mload\n        /* \"Certificate.sol\":2352:2353  i */\n      dup2\n        /* \"Certificate.sol\":2337:2354  bytes(u.birth)[i] */\n      dup2\n      mload\n      dup2\n      lt\n      tag_166\n      jumpi\n      invalid\n    tag_166:\n      0x20\n      add\n      add\n      mload\n      0xf8\n      shr\n      0xf8\n      shl\n        /* \"Certificate.sol\":2320:2325  _data */\n      dup8\n        /* \"Certificate.sol\":2326:2333  counter */\n      dup8\n        /* \"Certificate.sol\":2320:2334  _data[counter] */\n      dup2\n      mload\n      dup2\n      lt\n      tag_167\n      jumpi\n      invalid\n    tag_167:\n      0x20\n      add\n      add\n        /* \"Certificate.sol\":2320:2354  _data[counter] = bytes(u.birth)[i] */\n      swap1\n      not(0xffffffffffffffffffffffffffffffffffffffffffffffffffffffffffffff)\n      and\n      swap1\n      dup2\n      0x00\n      byte\n      swap1\n      mstore8\n      pop\n        /* \"Certificate.sol\":2369:2378  counter++ */\n      dup6\n      dup1\n      0x01\n      add\n      swap7\n      pop\n      pop\n        /* \"Certificate.sol\":2301:2304  i++ */\n      dup1\n      dup1\n      0x01\n      add\n      swap2\n      pop\n      pop\n        /* \"Certificate.sol\":2257:2390  for (uint i = 0; i < bytes(u.birth).length; i++){\r... */\n      jump(tag_163)\n    tag_164:\n      pop\n        /* \"Certificate.sol\":2405:2411  uint i */\n      0x00\n        /* \"Certificate.sol\":2400:2514  for (uint i = 0; i < 32; i++){\r... */\n    tag_168:\n        /* \"Certificate.sol\":2421:2423  32 */\n      0x20\n        /* \"Certificate.sol\":2417:2418  i */\n      dup2\n        /* \"Certificate.sol\":2417:2423  i < 32 */\n      lt\n        /* \"Certificate.sol\":2400:2514  for (uint i = 0; i < 32; i++){\r... */\n      iszero\n      tag_169\n      jumpi\n        /* \"Certificate.sol\":2467:2474  bBefore */\n      dup4\n        /* \"Certificate.sol\":2476:2477  i */\n      dup2\n        /* \"Certificate.sol\":2461:2478  bytes(bBefore)[i] */\n      dup2\n      mload\n      dup2\n      lt\n      tag_171\n      jumpi\n      invalid\n    tag_171:\n      0x20\n      add\n      add\n      mload\n      0xf8\n      shr\n      0xf8\n      shl\n        /* \"Certificate.sol\":2444:2449  _data */\n      dup8\n        /* \"Certificate.sol\":2450:2457  counter */\n      dup8\n        /* \"Certificate.sol\":2444:2458  _data[counter] */\n      dup2\n      mload\n      dup2\n      lt\n      tag_172\n      jumpi\n      invalid\n    tag_172:\n      0x20\n      add\n      add\n        /* \"Certificate.sol\":2444:2478  _data[counter] = bytes(bBefore)[i] */\n      swap1\n      not(0xffffffffffffffffffffffffffffffffffffffffffffffffffffffffffffff)\n      and\n      swap1\n      dup2\n      0x00\n      byte\n      swap1\n      mstore8\n      pop\n        /* \"Certificate.sol\":2493:2502  counter++ */\n      dup6\n      dup1\n      0x01\n      add\n      swap7\n      pop\n      pop\n        /* \"Certificate.sol\":2425:2428  i++ */\n      dup1\n      dup1\n      0x01\n      add\n      swap2\n      pop\n      pop\n        /* \"Certificate.sol\":2400:2514  for (uint i = 0; i < 32; i++){\r... */\n      jump(tag_168)\n    tag_169:\n      pop\n        /* \"Certificate.sol\":2529:2535  uint i */\n      0x00\n        /* \"Certificate.sol\":2524:2637  for (uint i = 0; i < 32; i++){\r... */\n    tag_173:\n        /* \"Certificate.sol\":2545:2547  32 */\n      0x20\n        /* \"Certificate.sol\":2541:2542  i */\n      dup2\n        /* \"Certificate.sol\":2541:2547  i < 32 */\n      lt\n        /* \"Certificate.sol\":2524:2637  for (uint i = 0; i < 32; i++){\r... */\n      iszero\n      tag_174\n      jumpi\n        /* \"Certificate.sol\":2591:2597  bAfter */\n      dup3\n        /* \"Certificate.sol\":2599:2600  i */\n      dup2\n        /* \"Certificate.sol\":2585:2601  bytes(bAfter)[i] */\n      dup2\n      mload\n      dup2\n      lt\n      tag_176\n      jumpi\n      invalid\n    tag_176:\n      0x20\n      add\n      add\n      mload\n      0xf8\n      shr\n      0xf8\n      shl\n        /* \"Certificate.sol\":2568:2573  _data */\n      dup8\n        /* \"Certificate.sol\":2574:2581  counter */\n      dup8\n        /* \"Certificate.sol\":2568:2582  _data[counter] */\n      dup2\n      mload\n      dup2\n      lt\n      tag_177\n      jumpi\n      invalid\n    tag_177:\n      0x20\n      add\n      add\n        /* \"Certificate.sol\":2568:2601  _data[counter] = bytes(bAfter)[i] */\n      swap1\n      not(0xffffffffffffffffffffffffffffffffffffffffffffffffffffffffffffff)\n      and\n      swap1\n      dup2\n      0x00\n      byte\n      swap1\n      mstore8\n      pop\n        /* \"Certificate.sol\":2616:2625  counter++ */\n      dup6\n      dup1\n      0x01\n      add\n      swap7\n      pop\n      pop\n        /* \"Certificate.sol\":2549:2552  i++ */\n      dup1\n      dup1\n      0x01\n      add\n      swap2\n      pop\n      pop\n        /* \"Certificate.sol\":2524:2637  for (uint i = 0; i < 32; i++){\r... */\n      jump(tag_173)\n    tag_174:\n      pop\n        /* \"Certificate.sol\":2652:2658  uint i */\n      0x00\n        /* \"Certificate.sol\":2647:2757  for (uint i = 0; i < 32; i++){\r... */\n    tag_178:\n        /* \"Certificate.sol\":2668:2670  32 */\n      0x20\n        /* \"Certificate.sol\":2664:2665  i */\n      dup2\n        /* \"Certificate.sol\":2664:2670  i < 32 */\n      lt\n        /* \"Certificate.sol\":2647:2757  for (uint i = 0; i < 32; i++){\r... */\n      iszero\n      tag_179\n      jumpi\n        /* \"Certificate.sol\":2714:2717  bId */\n      dup2\n        /* \"Certificate.sol\":2719:2720  i */\n      dup2\n        /* \"Certificate.sol\":2708:2721  bytes(bId)[i] */\n      dup2\n      mload\n      dup2\n      lt\n      tag_181\n      jumpi\n      invalid\n    tag_181:\n      0x20\n      add\n      add\n      mload\n      0xf8\n      shr\n      0xf8\n      shl\n        /* \"Certificate.sol\":2691:2696  _data */\n      dup8\n        /* \"Certificate.sol\":2697:2704  counter */\n      dup8\n        /* \"Certificate.sol\":2691:2705  _data[counter] */\n      dup2\n      mload\n      dup2\n      lt\n      tag_182\n      jumpi\n      invalid\n    tag_182:\n      0x20\n      add\n      add\n        /* \"Certificate.sol\":2691:2721  _data[counter] = bytes(bId)[i] */\n      swap1\n      not(0xffffffffffffffffffffffffffffffffffffffffffffffffffffffffffffff)\n      and\n      swap1\n      dup2\n      0x00\n      byte\n      swap1\n      mstore8\n      pop\n        /* \"Certificate.sol\":2736:2745  counter++ */\n      dup6\n      dup1\n      0x01\n      add\n      swap7\n      pop\n      pop\n        /* \"Certificate.sol\":2672:2675  i++ */\n      dup1\n      dup1\n      0x01\n      add\n      swap2\n      pop\n      pop\n        /* \"Certificate.sol\":2647:2757  for (uint i = 0; i < 32; i++){\r... */\n      jump(tag_178)\n    tag_179:\n      pop\n        /* \"Certificate.sol\":2784:2789  _data */\n      dup6\n        /* \"Certificate.sol\":2777:2789  return _data */\n      swap8\n      pop\n      pop\n      pop\n      pop\n      pop\n      pop\n      pop\n      pop\n        /* \"Certificate.sol\":1513:2797  function userinfoToBytes(userinfo memory u) private returns (bytes memory data){\r... */\n      swap2\n      swap1\n      pop\n      jump\t// out\n    tag_70:\n      pop\n      dup1\n      sload\n      0x01\n      dup2\n      0x01\n      and\n      iszero\n      0x0100\n      mul\n      sub\n      and\n      0x02\n      swap1\n      div\n      0x00\n      dup3\n      sstore\n      dup1\n      0x1f\n      lt\n      tag_184\n      jumpi\n      pop\n      jump(tag_183)\n    tag_184:\n      0x1f\n      add\n      0x20\n      swap1\n      div\n      swap1\n      0x00\n      mstore\n      keccak256(0x00, 0x20)\n      swap1\n      dup2\n      add\n      swap1\n      tag_185\n      swap2\n      swap1\n      tag_186\n      jump\t// in\n    tag_185:\n    tag_183:\n      pop\n      jump\t// out\n    tag_138:\n      dup3\n      dup1\n      sload\n      0x01\n      dup2\n      0x01\n      and\n      iszero\n      0x0100\n      mul\n      sub\n      and\n      0x02\n      swap1\n      div\n      swap1\n      0x00\n      mstore\n      keccak256(0x00, 0x20)\n      swap1\n      0x1f\n      add\n      0x20\n      swap1\n      div\n      dup2\n      add\n      swap3\n      dup3\n      0x1f\n      lt\n      tag_188\n      jumpi\n      dup1\n      mload\n      not(0xff)\n      and\n      dup4\n      dup1\n      add\n      or\n      dup6\n      sstore\n      jump(tag_187)\n    tag_188:\n      dup3\n      dup1\n      add\n      0x01\n      add\n      dup6\n      sstore\n      dup3\n      iszero\n      tag_187\n      jumpi\n      swap2\n      dup3\n      add\n    tag_189:\n      dup3\n      dup2\n      gt\n      iszero\n      tag_190\n      jumpi\n      dup3\n      mload\n      dup3\n      sstore\n      swap2\n      0x20\n      add\n      swap2\n      swap1\n      0x01\n      add\n      swap1\n      jump(tag_189)\n    tag_190:\n    tag_187:\n      pop\n      swap1\n      pop\n      tag_191\n      swap2\n      swap1\n      tag_186\n      jump\t// in\n    tag_191:\n      pop\n      swap1\n      jump\t// out\n    tag_186:\n    tag_192:\n      dup1\n      dup3\n      gt\n      iszero\n      tag_193\n      jumpi\n      0x00\n      dup2\n      0x00\n      swap1\n      sstore\n      pop\n      0x01\n      add\n      jump(tag_192)\n    tag_193:\n      pop\n      swap1\n      jump\t// out\n\n    auxdata: 0xa2646970667358221220ddd9b1ec66ce939383e08a2ad052c4504335b06003c87a1a416b0223d179991364736f6c634300060c0033\n}\n","bytecode":{"linkReferences":{},"object":"608060405234801561001057600080fd5b5033600160006101000a81548173ffffffffffffffffffffffffffffffffffffffff021916908373ffffffffffffffffffffffffffffffffffffffff160217905550611f1a806100616000396000f3fe608060405234801561001057600080fd5b506004361061009d5760003560e01c80634ead778d116100665780634ead778d1461030657806357771a231461048c5780637f50670a146104ce578063ae15eb8e14610629578063d05c11e6146107675761009d565b806216e526146100a2578063040c2b0f14610134578063087e926c1461013e5780631532f93a1461015c578063289fd654146101b4575b600080fd5b6100e4600480360360208110156100b857600080fd5b81019080803573ffffffffffffffffffffffffffffffffffffffff169060200190929190505050610787565b604051808481526020018373ffffffffffffffffffffffffffffffffffffffff1681526020018273ffffffffffffffffffffffffffffffffffffffff168152602001935050505060405180910390f35b61013c6107f1565b005b610146610970565b6040518082815260200191505060405180910390f35b6101646109bf565b604051808481526020018373ffffffffffffffffffffffffffffffffffffffff1681526020018273ffffffffffffffffffffffffffffffffffffffff168152602001935050505060405180910390f35b610304600480360360408110156101ca57600080fd5b81019080803590602001906401000000008111156101e757600080fd5b8201836020820111156101f957600080fd5b8035906020019184600183028401116401000000008311171561021b57600080fd5b91908080601f016020809104026020016040519081016040528093929190818152602001838380828437600081840152601f19601f8201169050808301925050505050505091929192908035906020019064010000000081111561027e57600080fd5b82018360208201111561029057600080fd5b803590602001918460018302840111640100000000831117156102b257600080fd5b91908080601f016020809104026020016040519081016040528093929190818152602001838380828437600081840152601f19601f820116905080830192505050505050509192919290505050610ad8565b005b610474600480360360a081101561031c57600080fd5b810190808035906020019064010000000081111561033957600080fd5b82018360208201111561034b57600080fd5b8035906020019184600183028401116401000000008311171561036d57600080fd5b91908080601f016020809104026020016040519081016040528093929190818152602001838380828437600081840152601f19601f820116905080830192505050505050509192919290803590602001906401000000008111156103d057600080fd5b8201836020820111156103e257600080fd5b8035906020019184600183028401116401000000008311171561040457600080fd5b91908080601f016020809104026020016040519081016040528093929190818152602001838380828437600081840152601f19601f820116905080830192505050505050509192919290803590602001909291908035906020019092919080359060200190929190505050610b0b565b60405180821515815260200191505060405180910390f35b6104b8600480360360208110156104a257600080fd5b8101908080359060200190929190505050610f47565b6040518082815260200191505060405180910390f35b610510600480360360208110156104e457600080fd5b81019080803573ffffffffffffffffffffffffffffffffffffffff169060200190929190505050610f6e565b604051808773ffffffffffffffffffffffffffffffffffffffff1681526020018060200180602001868152602001858152602001848152602001838103835288818151815260200191508051906020019080838360005b83811015610582578082015181840152602081019050610567565b50505050905090810190601f1680156105af5780820380516001836020036101000a031916815260200191505b50838103825287818151815260200191508051906020019080838360005b838110156105e85780820151818401526020810190506105cd565b50505050905090810190601f1680156106155780820380516001836020036101000a031916815260200191505b509850505050505050505060405180910390f35b6106316110fa565b604051808873ffffffffffffffffffffffffffffffffffffffff16815260200180602001806020018781526020018681526020018581526020018473ffffffffffffffffffffffffffffffffffffffff168152602001838103835289818151815260200191508051906020019080838360005b838110156106bf5780820151818401526020810190506106a4565b50505050905090810190601f1680156106ec5780820380516001836020036101000a031916815260200191505b50838103825288818151815260200191508051906020019080838360005b8381101561072557808201518184015260208101905061070a565b50505050905090810190601f1680156107525780820380516001836020036101000a031916815260200191505b50995050505050505050505060405180910390f35b61076f611405565b60405180821515815260200191505060405180910390f35b60056020528060005260406000206000915090508060000154908060010160009054906101000a900473ffffffffffffffffffffffffffffffffffffffff16908060020160009054906101000a900473ffffffffffffffffffffffffffffffffffffffff16905083565b6006604051806020016040528060005481525090806001815401808255809150506001900390600052602060002001600090919091909150600082015181600001555050600460003373ffffffffffffffffffffffffffffffffffffffff1673ffffffffffffffffffffffffffffffffffffffff168152602001908152602001600020600080820160006101000a81549073ffffffffffffffffffffffffffffffffffffffff02191690556001820160006108ac9190611dff565b6002820160006108bc9190611dff565b6003820160009055600482016000905560058201600090555050600560003373ffffffffffffffffffffffffffffffffffffffff1673ffffffffffffffffffffffffffffffffffffffff1681526020019081526020016000206000808201600090556001820160006101000a81549073ffffffffffffffffffffffffffffffffffffffff02191690556002820160006101000a81549073ffffffffffffffffffffffffffffffffffffffff02191690555050565b60004233604051602001808381526020018273ffffffffffffffffffffffffffffffffffffffff1660601b81526014019250505060405160208183030381529060405280519060200120905090565b6000806000600560003373ffffffffffffffffffffffffffffffffffffffff1673ffffffffffffffffffffffffffffffffffffffff16815260200190815260200160002060000154600560003373ffffffffffffffffffffffffffffffffffffffff1673ffffffffffffffffffffffffffffffffffffffff16815260200190815260200160002060010160009054906101000a900473ffffffffffffffffffffffffffffffffffffffff16600560003373ffffffffffffffffffffffffffffffffffffffff1673ffffffffffffffffffffffffffffffffffffffff16815260200190815260200160002060020160009054906101000a900473ffffffffffffffffffffffffffffffffffffffff16925092509250909192565b60001515610ae4611405565b15151415610b0757610af4611465565b610afe828261147d565b610b066118a7565b5b5050565b6000808551875160740101905060608167ffffffffffffffff81118015610b3157600080fd5b506040519080825280601f01601f191660200182016040528015610b645781602001600182028036833780820191505090505b5090506000606033604051602001808273ffffffffffffffffffffffffffffffffffffffff1660601b8152601401915050604051602081830303815290604052905060608860405160200180828152602001915050604051602081830303815290604052905060608860405160200180828152602001915050604051602081830303815290604052905060608860405160200180828152602001915050604051602081830303815290604052905060005b6014811015610c8557848181518110610c2a57fe5b602001015160f81c60f81b878781518110610c4157fe5b60200101907effffffffffffffffffffffffffffffffffffffffffffffffffffffffffffff1916908160001a90535085806001019650508080600101915050610c15565b5060005b8d51811015610cf9578d8181518110610c9e57fe5b602001015160f81c60f81b878781518110610cb557fe5b60200101907effffffffffffffffffffffffffffffffffffffffffffffffffffffffffffff1916908160001a90535085806001019650508080600101915050610c89565b5060005b8c51811015610d6d578c8181518110610d1257fe5b602001015160f81c60f81b878781518110610d2957fe5b60200101907effffffffffffffffffffffffffffffffffffffffffffffffffffffffffffff1916908160001a90535085806001019650508080600101915050610cfd565b5060005b6020811015610de157838181518110610d8657fe5b602001015160f81c60f81b878781518110610d9d57fe5b60200101907effffffffffffffffffffffffffffffffffffffffffffffffffffffffffffff1916908160001a90535085806001019650508080600101915050610d71565b5060005b6020811015610e5557828181518110610dfa57fe5b602001015160f81c60f81b878781518110610e1157fe5b60200101907effffffffffffffffffffffffffffffffffffffffffffffffffffffffffffff1916908160001a90535085806001019650508080600101915050610de5565b5060005b6020811015610ec957818181518110610e6e57fe5b602001015160f81c60f81b878781518110610e8557fe5b60200101907effffffffffffffffffffffffffffffffffffffffffffffffffffffffffffff1916908160001a90535085806001019650508080600101915050610e59565b50600086805190602001209050600560003373ffffffffffffffffffffffffffffffffffffffff1673ffffffffffffffffffffffffffffffffffffffff16815260200190815260200160002060000154811415610f3157600198505050505050505050610f3e565b6000985050505050505050505b95945050505050565b60068181548110610f5457fe5b906000526020600020016000915090508060000154905081565b60046020528060005260406000206000915090508060000160009054906101000a900473ffffffffffffffffffffffffffffffffffffffff1690806001018054600181600116156101000203166002900480601f0160208091040260200160405190810160405280929190818152602001828054600181600116156101000203166002900480156110405780601f1061101557610100808354040283529160200191611040565b820191906000526020600020905b81548152906001019060200180831161102357829003601f168201915b505050505090806002018054600181600116156101000203166002900480601f0160208091040260200160405190810160405280929190818152602001828054600181600116156101000203166002900480156110de5780601f106110b3576101008083540402835291602001916110de565b820191906000526020600020905b8154815290600101906020018083116110c157829003601f168201915b5050505050908060030154908060040154908060050154905086565b6000606080600080600080600460003373ffffffffffffffffffffffffffffffffffffffff1673ffffffffffffffffffffffffffffffffffffffff16815260200190815260200160002060000160009054906101000a900473ffffffffffffffffffffffffffffffffffffffff16600460003373ffffffffffffffffffffffffffffffffffffffff1673ffffffffffffffffffffffffffffffffffffffff168152602001908152602001600020600101600460003373ffffffffffffffffffffffffffffffffffffffff1673ffffffffffffffffffffffffffffffffffffffff168152602001908152602001600020600201600460003373ffffffffffffffffffffffffffffffffffffffff1673ffffffffffffffffffffffffffffffffffffffff16815260200190815260200160002060030154600460003373ffffffffffffffffffffffffffffffffffffffff1673ffffffffffffffffffffffffffffffffffffffff16815260200190815260200160002060040154600460003373ffffffffffffffffffffffffffffffffffffffff1673ffffffffffffffffffffffffffffffffffffffff1681526020019081526020016000206005015433858054600181600116156101000203166002900480601f01602080910402602001604051908101604052809291908181526020018280546001816001161561010002031660029004801561134b5780601f106113205761010080835404028352916020019161134b565b820191906000526020600020905b81548152906001019060200180831161132e57829003601f168201915b50505050509550848054600181600116156101000203166002900480601f0160208091040260200160405190810160405280929190818152602001828054600181600116156101000203166002900480156113e75780601f106113bc576101008083540402835291602001916113e7565b820191906000526020600020905b8154815290600101906020018083116113ca57829003601f168201915b50505050509450965096509650965096509650965090919293949596565b60008060001b600460003373ffffffffffffffffffffffffffffffffffffffff1673ffffffffffffffffffffffffffffffffffffffff16815260200190815260200160002060050154141561145d5760009050611462565b600190505b90565b426002819055506301e1338060025401600381905550565b33600460003373ffffffffffffffffffffffffffffffffffffffff1673ffffffffffffffffffffffffffffffffffffffff16815260200190815260200160002060000160006101000a81548173ffffffffffffffffffffffffffffffffffffffff021916908373ffffffffffffffffffffffffffffffffffffffff16021790555081600460003373ffffffffffffffffffffffffffffffffffffffff1673ffffffffffffffffffffffffffffffffffffffff1681526020019081526020016000206001019080519060200190611554929190611e47565b5080600460003373ffffffffffffffffffffffffffffffffffffffff1673ffffffffffffffffffffffffffffffffffffffff16815260200190815260200160002060020190805190602001906115ab929190611e47565b50600254600460003373ffffffffffffffffffffffffffffffffffffffff1673ffffffffffffffffffffffffffffffffffffffff16815260200190815260200160002060030181905550600354600460003373ffffffffffffffffffffffffffffffffffffffff1673ffffffffffffffffffffffffffffffffffffffff16815260200190815260200160002060040181905550611646610970565b600460003373ffffffffffffffffffffffffffffffffffffffff1673ffffffffffffffffffffffffffffffffffffffff16815260200190815260200160002060050181905550611896600460003373ffffffffffffffffffffffffffffffffffffffff1673ffffffffffffffffffffffffffffffffffffffff1681526020019081526020016000206040518060c00160405290816000820160009054906101000a900473ffffffffffffffffffffffffffffffffffffffff1673ffffffffffffffffffffffffffffffffffffffff1673ffffffffffffffffffffffffffffffffffffffff168152602001600182018054600181600116156101000203166002900480601f0160208091040260200160405190810160405280929190818152602001828054600181600116156101000203166002900480156117c85780601f1061179d576101008083540402835291602001916117c8565b820191906000526020600020905b8154815290600101906020018083116117ab57829003601f168201915b50505050508152602001600282018054600181600116156101000203166002900480601f01602080910402602001604051908101604052809291908181526020018280546001816001161561010002031660029004801561186a5780601f1061183f5761010080835404028352916020019161186a565b820191906000526020600020905b81548152906001019060200180831161184d57829003601f168201915b505050505081526020016003820154815260200160048201548152602001600582015481525050611a08565b805190602001206000819055505050565b73ccb8f0a7581075b74f74cfb1e4ab6fa822facfac600560003373ffffffffffffffffffffffffffffffffffffffff1673ffffffffffffffffffffffffffffffffffffffff16815260200190815260200160002060010160006101000a81548173ffffffffffffffffffffffffffffffffffffffff021916908373ffffffffffffffffffffffffffffffffffffffff16021790555033600560003373ffffffffffffffffffffffffffffffffffffffff1673ffffffffffffffffffffffffffffffffffffffff16815260200190815260200160002060020160006101000a81548173ffffffffffffffffffffffffffffffffffffffff021916908373ffffffffffffffffffffffffffffffffffffffff160217905550600054600560003373ffffffffffffffffffffffffffffffffffffffff1673ffffffffffffffffffffffffffffffffffffffff16815260200190815260200160002060000181905550565b6060600082604001515183602001515160740101905060608167ffffffffffffffff81118015611a3757600080fd5b506040519080825280601f01601f191660200182016040528015611a6a5781602001600182028036833780820191505090505b509050600060608560000151604051602001808273ffffffffffffffffffffffffffffffffffffffff1660601b81526014019150506040516020818303038152906040529050606086606001516040516020018082815260200191505060405160208183030381529060405290506060876080015160405160200180828152602001915050604051602081830303815290604052905060608860a0015160405160200180828152602001915050604051602081830303815290604052905060005b6014811015611b9b57848181518110611b4057fe5b602001015160f81c60f81b878781518110611b5757fe5b60200101907effffffffffffffffffffffffffffffffffffffffffffffffffffffffffffff1916908160001a90535085806001019650508080600101915050611b2b565b5060005b896020015151811015611c175789602001518181518110611bbc57fe5b602001015160f81c60f81b878781518110611bd357fe5b60200101907effffffffffffffffffffffffffffffffffffffffffffffffffffffffffffff1916908160001a90535085806001019650508080600101915050611b9f565b5060005b896040015151811015611c935789604001518181518110611c3857fe5b602001015160f81c60f81b878781518110611c4f57fe5b60200101907effffffffffffffffffffffffffffffffffffffffffffffffffffffffffffff1916908160001a90535085806001019650508080600101915050611c1b565b5060005b6020811015611d0757838181518110611cac57fe5b602001015160f81c60f81b878781518110611cc357fe5b60200101907effffffffffffffffffffffffffffffffffffffffffffffffffffffffffffff1916908160001a90535085806001019650508080600101915050611c97565b5060005b6020811015611d7b57828181518110611d2057fe5b602001015160f81c60f81b878781518110611d3757fe5b60200101907effffffffffffffffffffffffffffffffffffffffffffffffffffffffffffff1916908160001a90535085806001019650508080600101915050611d0b565b5060005b6020811015611def57818181518110611d9457fe5b602001015160f81c60f81b878781518110611dab57fe5b60200101907effffffffffffffffffffffffffffffffffffffffffffffffffffffffffffff1916908160001a90535085806001019650508080600101915050611d7f565b5085975050505050505050919050565b50805460018160011615610100020316600290046000825580601f10611e255750611e44565b601f016020900490600052602060002090810190611e439190611ec7565b5b50565b828054600181600116156101000203166002900490600052602060002090601f016020900481019282601f10611e8857805160ff1916838001178555611eb6565b82800160010185558215611eb6579182015b82811115611eb5578251825591602001919060010190611e9a565b5b509050611ec39190611ec7565b5090565b5b80821115611ee0576000816000905550600101611ec8565b509056fea2646970667358221220ddd9b1ec66ce939383e08a2ad052c4504335b06003c87a1a416b0223d179991364736f6c634300060c0033","opcodes":"PUSH1 0x80 PUSH1 0x40 MSTORE CALLVALUE DUP1 ISZERO PUSH2 0x10 JUMPI PUSH1 0x0 DUP1 REVERT JUMPDEST POP CALLER PUSH1 0x1 PUSH1 0x0 PUSH2 0x100 EXP DUP2 SLOAD DUP2 PUSH20 0xFFFFFFFFFFFFFFFFFFFFFFFFFFFFFFFFFFFFFFFF MUL NOT AND SWAP1 DUP4 PUSH20 0xFFFFFFFFFFFFFFFFFFFFFFFFFFFFFFFFFFFFFFFF AND MUL OR SWAP1 SSTORE POP PUSH2 0x1F1A DUP1 PUSH2 0x61 PUSH1 0x0 CODECOPY PUSH1 0x0 RETURN INVALID PUSH1 0x80 PUSH1 0x40 MSTORE CALLVALUE DUP1 ISZERO PUSH2 0x10 JUMPI PUSH1 0x0 DUP1 REVERT JUMPDEST POP PUSH1 0x4 CALLDATASIZE LT PUSH2 0x9D JUMPI PUSH1 0x0 CALLDATALOAD PUSH1 0xE0 SHR DUP1 PUSH4 0x4EAD778D GT PUSH2 0x66 JUMPI DUP1 PUSH4 0x4EAD778D EQ PUSH2 0x306 JUMPI DUP1 PUSH4 0x57771A23 EQ PUSH2 0x48C JUMPI DUP1 PUSH4 0x7F50670A EQ PUSH2 0x4CE JUMPI DUP1 PUSH4 0xAE15EB8E EQ PUSH2 0x629 JUMPI DUP1 PUSH4 0xD05C11E6 EQ PUSH2 0x767 JUMPI PUSH2 0x9D JUMP JUMPDEST DUP1 PUSH3 0x16E526 EQ PUSH2 0xA2 JUMPI DUP1 PUSH4 0x40C2B0F EQ PUSH2 0x134 JUMPI DUP1 PUSH4 0x87E926C EQ PUSH2 0x13E JUMPI DUP1 PUSH4 0x1532F93A EQ PUSH2 0x15C JUMPI DUP1 PUSH4 0x289FD654 EQ PUSH2 0x1B4 JUMPI JUMPDEST PUSH1 0x0 DUP1 REVERT JUMPDEST PUSH2 0xE4 PUSH1 0x4 DUP1 CALLDATASIZE SUB PUSH1 0x20 DUP2 LT ISZERO PUSH2 0xB8 JUMPI PUSH1 0x0 DUP1 REVERT JUMPDEST DUP2 ADD SWAP1 DUP1 DUP1 CALLDATALOAD PUSH20 0xFFFFFFFFFFFFFFFFFFFFFFFFFFFFFFFFFFFFFFFF AND SWAP1 PUSH1 0x20 ADD SWAP1 SWAP3 SWAP2 SWAP1 POP POP POP PUSH2 0x787 JUMP JUMPDEST PUSH1 0x40 MLOAD DUP1 DUP5 DUP2 MSTORE PUSH1 0x20 ADD DUP4 PUSH20 0xFFFFFFFFFFFFFFFFFFFFFFFFFFFFFFFFFFFFFFFF AND DUP2 MSTORE PUSH1 0x20 ADD DUP3 PUSH20 0xFFFFFFFFFFFFFFFFFFFFFFFFFFFFFFFFFFFFFFFF AND DUP2 MSTORE PUSH1 0x20 ADD SWAP4 POP POP POP POP PUSH1 0x40 MLOAD DUP1 SWAP2 SUB SWAP1 RETURN JUMPDEST PUSH2 0x13C PUSH2 0x7F1 JUMP JUMPDEST STOP JUMPDEST PUSH2 0x146 PUSH2 0x970 JUMP JUMPDEST PUSH1 0x40 MLOAD DUP1 DUP3 DUP2 MSTORE PUSH1 0x20 ADD SWAP2 POP POP PUSH1 0x40 MLOAD DUP1 SWAP2 SUB SWAP1 RETURN JUMPDEST PUSH2 0x164 PUSH2 0x9BF JUMP JUMPDEST PUSH1 0x40 MLOAD DUP1 DUP5 DUP2 MSTORE PUSH1 0x20 ADD DUP4 PUSH20 0xFFFFFFFFFFFFFFFFFFFFFFFFFFFFFFFFFFFFFFFF AND DUP2 MSTORE PUSH1 0x20 ADD DUP3 PUSH20 0xFFFFFFFFFFFFFFFFFFFFFFFFFFFFFFFFFFFFFFFF AND DUP2 MSTORE PUSH1 0x20 ADD SWAP4 POP POP POP POP PUSH1 0x40 MLOAD DUP1 SWAP2 SUB SWAP1 RETURN JUMPDEST PUSH2 0x304 PUSH1 0x4 DUP1 CALLDATASIZE SUB PUSH1 0x40 DUP2 LT ISZERO PUSH2 0x1CA JUMPI PUSH1 0x0 DUP1 REVERT JUMPDEST DUP2 ADD SWAP1 DUP1 DUP1 CALLDATALOAD SWAP1 PUSH1 0x20 ADD SWAP1 PUSH5 0x100000000 DUP2 GT ISZERO PUSH2 0x1E7 JUMPI PUSH1 0x0 DUP1 REVERT JUMPDEST DUP3 ADD DUP4 PUSH1 0x20 DUP3 ADD GT ISZERO PUSH2 0x1F9 JUMPI PUSH1 0x0 DUP1 REVERT JUMPDEST DUP1 CALLDATALOAD SWAP1 PUSH1 0x20 ADD SWAP2 DUP5 PUSH1 0x1 DUP4 MUL DUP5 ADD GT PUSH5 0x100000000 DUP4 GT OR ISZERO PUSH2 0x21B JUMPI PUSH1 0x0 DUP1 REVERT JUMPDEST SWAP2 SWAP1 DUP1 DUP1 PUSH1 0x1F ADD PUSH1 0x20 DUP1 SWAP2 DIV MUL PUSH1 0x20 ADD PUSH1 0x40 MLOAD SWAP1 DUP2 ADD PUSH1 0x40 MSTORE DUP1 SWAP4 SWAP3 SWAP2 SWAP1 DUP2 DUP2 MSTORE PUSH1 0x20 ADD DUP4 DUP4 DUP1 DUP3 DUP5 CALLDATACOPY PUSH1 0x0 DUP2 DUP5 ADD MSTORE PUSH1 0x1F NOT PUSH1 0x1F DUP3 ADD AND SWAP1 POP DUP1 DUP4 ADD SWAP3 POP POP POP POP POP POP POP SWAP2 SWAP3 SWAP2 SWAP3 SWAP1 DUP1 CALLDATALOAD SWAP1 PUSH1 0x20 ADD SWAP1 PUSH5 0x100000000 DUP2 GT ISZERO PUSH2 0x27E JUMPI PUSH1 0x0 DUP1 REVERT JUMPDEST DUP3 ADD DUP4 PUSH1 0x20 DUP3 ADD GT ISZERO PUSH2 0x290 JUMPI PUSH1 0x0 DUP1 REVERT JUMPDEST DUP1 CALLDATALOAD SWAP1 PUSH1 0x20 ADD SWAP2 DUP5 PUSH1 0x1 DUP4 MUL DUP5 ADD GT PUSH5 0x100000000 DUP4 GT OR ISZERO PUSH2 0x2B2 JUMPI PUSH1 0x0 DUP1 REVERT JUMPDEST SWAP2 SWAP1 DUP1 DUP1 PUSH1 0x1F ADD PUSH1 0x20 DUP1 SWAP2 DIV MUL PUSH1 0x20 ADD PUSH1 0x40 MLOAD SWAP1 DUP2 ADD PUSH1 0x40 MSTORE DUP1 SWAP4 SWAP3 SWAP2 SWAP1 DUP2 DUP2 MSTORE PUSH1 0x20 ADD DUP4 DUP4 DUP1 DUP3 DUP5 CALLDATACOPY PUSH1 0x0 DUP2 DUP5 ADD MSTORE PUSH1 0x1F NOT PUSH1 0x1F DUP3 ADD AND SWAP1 POP DUP1 DUP4 ADD SWAP3 POP POP POP POP POP POP POP SWAP2 SWAP3 SWAP2 SWAP3 SWAP1 POP POP POP PUSH2 0xAD8 JUMP JUMPDEST STOP JUMPDEST PUSH2 0x474 PUSH1 0x4 DUP1 CALLDATASIZE SUB PUSH1 0xA0 DUP2 LT ISZERO PUSH2 0x31C JUMPI PUSH1 0x0 DUP1 REVERT JUMPDEST DUP2 ADD SWAP1 DUP1 DUP1 CALLDATALOAD SWAP1 PUSH1 0x20 ADD SWAP1 PUSH5 0x100000000 DUP2 GT ISZERO PUSH2 0x339 JUMPI PUSH1 0x0 DUP1 REVERT JUMPDEST DUP3 ADD DUP4 PUSH1 0x20 DUP3 ADD GT ISZERO PUSH2 0x34B JUMPI PUSH1 0x0 DUP1 REVERT JUMPDEST DUP1 CALLDATALOAD SWAP1 PUSH1 0x20 ADD SWAP2 DUP5 PUSH1 0x1 DUP4 MUL DUP5 ADD GT PUSH5 0x100000000 DUP4 GT OR ISZERO PUSH2 0x36D JUMPI PUSH1 0x0 DUP1 REVERT JUMPDEST SWAP2 SWAP1 DUP1 DUP1 PUSH1 0x1F ADD PUSH1 0x20 DUP1 SWAP2 DIV MUL PUSH1 0x20 ADD PUSH1 0x40 MLOAD SWAP1 DUP2 ADD PUSH1 0x40 MSTORE DUP1 SWAP4 SWAP3 SWAP2 SWAP1 DUP2 DUP2 MSTORE PUSH1 0x20 ADD DUP4 DUP4 DUP1 DUP3 DUP5 CALLDATACOPY PUSH1 0x0 DUP2 DUP5 ADD MSTORE PUSH1 0x1F NOT PUSH1 0x1F DUP3 ADD AND SWAP1 POP DUP1 DUP4 ADD SWAP3 POP POP POP POP POP POP POP SWAP2 SWAP3 SWAP2 SWAP3 SWAP1 DUP1 CALLDATALOAD SWAP1 PUSH1 0x20 ADD SWAP1 PUSH5 0x100000000 DUP2 GT ISZERO PUSH2 0x3D0 JUMPI PUSH1 0x0 DUP1 REVERT JUMPDEST DUP3 ADD DUP4 PUSH1 0x20 DUP3 ADD GT ISZERO PUSH2 0x3E2 JUMPI PUSH1 0x0 DUP1 REVERT JUMPDEST DUP1 CALLDATALOAD SWAP1 PUSH1 0x20 ADD SWAP2 DUP5 PUSH1 0x1 DUP4 MUL DUP5 ADD GT PUSH5 0x100000000 DUP4 GT OR ISZERO PUSH2 0x404 JUMPI PUSH1 0x0 DUP1 REVERT JUMPDEST SWAP2 SWAP1 DUP1 DUP1 PUSH1 0x1F ADD PUSH1 0x20 DUP1 SWAP2 DIV MUL PUSH1 0x20 ADD PUSH1 0x40 MLOAD SWAP1 DUP2 ADD PUSH1 0x40 MSTORE DUP1 SWAP4 SWAP3 SWAP2 SWAP1 DUP2 DUP2 MSTORE PUSH1 0x20 ADD DUP4 DUP4 DUP1 DUP3 DUP5 CALLDATACOPY PUSH1 0x0 DUP2 DUP5 ADD MSTORE PUSH1 0x1F NOT PUSH1 0x1F DUP3 ADD AND SWAP1 POP DUP1 DUP4 ADD SWAP3 POP POP POP POP POP POP POP SWAP2 SWAP3 SWAP2 SWAP3 SWAP1 DUP1 CALLDATALOAD SWAP1 PUSH1 0x20 ADD SWAP1 SWAP3 SWAP2 SWAP1 DUP1 CALLDATALOAD SWAP1 PUSH1 0x20 ADD SWAP1 SWAP3 SWAP2 SWAP1 DUP1 CALLDATALOAD SWAP1 PUSH1 0x20 ADD SWAP1 SWAP3 SWAP2 SWAP1 POP POP POP PUSH2 0xB0B JUMP JUMPDEST PUSH1 0x40 MLOAD DUP1 DUP3 ISZERO ISZERO DUP2 MSTORE PUSH1 0x20 ADD SWAP2 POP POP PUSH1 0x40 MLOAD DUP1 SWAP2 SUB SWAP1 RETURN JUMPDEST PUSH2 0x4B8 PUSH1 0x4 DUP1 CALLDATASIZE SUB PUSH1 0x20 DUP2 LT ISZERO PUSH2 0x4A2 JUMPI PUSH1 0x0 DUP1 REVERT JUMPDEST DUP2 ADD SWAP1 DUP1 DUP1 CALLDATALOAD SWAP1 PUSH1 0x20 ADD SWAP1 SWAP3 SWAP2 SWAP1 POP POP POP PUSH2 0xF47 JUMP JUMPDEST PUSH1 0x40 MLOAD DUP1 DUP3 DUP2 MSTORE PUSH1 0x20 ADD SWAP2 POP POP PUSH1 0x40 MLOAD DUP1 SWAP2 SUB SWAP1 RETURN JUMPDEST PUSH2 0x510 PUSH1 0x4 DUP1 CALLDATASIZE SUB PUSH1 0x20 DUP2 LT ISZERO PUSH2 0x4E4 JUMPI PUSH1 0x0 DUP1 REVERT JUMPDEST DUP2 ADD SWAP1 DUP1 DUP1 CALLDATALOAD PUSH20 0xFFFFFFFFFFFFFFFFFFFFFFFFFFFFFFFFFFFFFFFF AND SWAP1 PUSH1 0x20 ADD SWAP1 SWAP3 SWAP2 SWAP1 POP POP POP PUSH2 0xF6E JUMP JUMPDEST PUSH1 0x40 MLOAD DUP1 DUP8 PUSH20 0xFFFFFFFFFFFFFFFFFFFFFFFFFFFFFFFFFFFFFFFF AND DUP2 MSTORE PUSH1 0x20 ADD DUP1 PUSH1 0x20 ADD DUP1 PUSH1 0x20 ADD DUP7 DUP2 MSTORE PUSH1 0x20 ADD DUP6 DUP2 MSTORE PUSH1 0x20 ADD DUP5 DUP2 MSTORE PUSH1 0x20 ADD DUP4 DUP2 SUB DUP4 MSTORE DUP9 DUP2 DUP2 MLOAD DUP2 MSTORE PUSH1 0x20 ADD SWAP2 POP DUP1 MLOAD SWAP1 PUSH1 0x20 ADD SWAP1 DUP1 DUP4 DUP4 PUSH1 0x0 JUMPDEST DUP4 DUP2 LT ISZERO PUSH2 0x582 JUMPI DUP1 DUP3 ADD MLOAD DUP2 DUP5 ADD MSTORE PUSH1 0x20 DUP2 ADD SWAP1 POP PUSH2 0x567 JUMP JUMPDEST POP POP POP POP SWAP1 POP SWAP1 DUP2 ADD SWAP1 PUSH1 0x1F AND DUP1 ISZERO PUSH2 0x5AF JUMPI DUP1 DUP3 SUB DUP1 MLOAD PUSH1 0x1 DUP4 PUSH1 0x20 SUB PUSH2 0x100 EXP SUB NOT AND DUP2 MSTORE PUSH1 0x20 ADD SWAP2 POP JUMPDEST POP DUP4 DUP2 SUB DUP3 MSTORE DUP8 DUP2 DUP2 MLOAD DUP2 MSTORE PUSH1 0x20 ADD SWAP2 POP DUP1 MLOAD SWAP1 PUSH1 0x20 ADD SWAP1 DUP1 DUP4 DUP4 PUSH1 0x0 JUMPDEST DUP4 DUP2 LT ISZERO PUSH2 0x5E8 JUMPI DUP1 DUP3 ADD MLOAD DUP2 DUP5 ADD MSTORE PUSH1 0x20 DUP2 ADD SWAP1 POP PUSH2 0x5CD JUMP JUMPDEST POP POP POP POP SWAP1 POP SWAP1 DUP2 ADD SWAP1 PUSH1 0x1F AND DUP1 ISZERO PUSH2 0x615 JUMPI DUP1 DUP3 SUB DUP1 MLOAD PUSH1 0x1 DUP4 PUSH1 0x20 SUB PUSH2 0x100 EXP SUB NOT AND DUP2 MSTORE PUSH1 0x20 ADD SWAP2 POP JUMPDEST POP SWAP9 POP POP POP POP POP POP POP POP POP PUSH1 0x40 MLOAD DUP1 SWAP2 SUB SWAP1 RETURN JUMPDEST PUSH2 0x631 PUSH2 0x10FA JUMP JUMPDEST PUSH1 0x40 MLOAD DUP1 DUP9 PUSH20 0xFFFFFFFFFFFFFFFFFFFFFFFFFFFFFFFFFFFFFFFF AND DUP2 MSTORE PUSH1 0x20 ADD DUP1 PUSH1 0x20 ADD DUP1 PUSH1 0x20 ADD DUP8 DUP2 MSTORE PUSH1 0x20 ADD DUP7 DUP2 MSTORE PUSH1 0x20 ADD DUP6 DUP2 MSTORE PUSH1 0x20 ADD DUP5 PUSH20 0xFFFFFFFFFFFFFFFFFFFFFFFFFFFFFFFFFFFFFFFF AND DUP2 MSTORE PUSH1 0x20 ADD DUP4 DUP2 SUB DUP4 MSTORE DUP10 DUP2 DUP2 MLOAD DUP2 MSTORE PUSH1 0x20 ADD SWAP2 POP DUP1 MLOAD SWAP1 PUSH1 0x20 ADD SWAP1 DUP1 DUP4 DUP4 PUSH1 0x0 JUMPDEST DUP4 DUP2 LT ISZERO PUSH2 0x6BF JUMPI DUP1 DUP3 ADD MLOAD DUP2 DUP5 ADD MSTORE PUSH1 0x20 DUP2 ADD SWAP1 POP PUSH2 0x6A4 JUMP JUMPDEST POP POP POP POP SWAP1 POP SWAP1 DUP2 ADD SWAP1 PUSH1 0x1F AND DUP1 ISZERO PUSH2 0x6EC JUMPI DUP1 DUP3 SUB DUP1 MLOAD PUSH1 0x1 DUP4 PUSH1 0x20 SUB PUSH2 0x100 EXP SUB NOT AND DUP2 MSTORE PUSH1 0x20 ADD SWAP2 POP JUMPDEST POP DUP4 DUP2 SUB DUP3 MSTORE DUP9 DUP2 DUP2 MLOAD DUP2 MSTORE PUSH1 0x20 ADD SWAP2 POP DUP1 MLOAD SWAP1 PUSH1 0x20 ADD SWAP1 DUP1 DUP4 DUP4 PUSH1 0x0 JUMPDEST DUP4 DUP2 LT ISZERO PUSH2 0x725 JUMPI DUP1 DUP3 ADD MLOAD DUP2 DUP5 ADD MSTORE PUSH1 0x20 DUP2 ADD SWAP1 POP PUSH2 0x70A JUMP JUMPDEST POP POP POP POP SWAP1 POP SWAP1 DUP2 ADD SWAP1 PUSH1 0x1F AND DUP1 ISZERO PUSH2 0x752 JUMPI DUP1 DUP3 SUB DUP1 MLOAD PUSH1 0x1 DUP4 PUSH1 0x20 SUB PUSH2 0x100 EXP SUB NOT AND DUP2 MSTORE PUSH1 0x20 ADD SWAP2 POP JUMPDEST POP SWAP10 POP POP POP POP POP POP POP POP POP POP PUSH1 0x40 MLOAD DUP1 SWAP2 SUB SWAP1 RETURN JUMPDEST PUSH2 0x76F PUSH2 0x1405 JUMP JUMPDEST PUSH1 0x40 MLOAD DUP1 DUP3 ISZERO ISZERO DUP2 MSTORE PUSH1 0x20 ADD SWAP2 POP POP PUSH1 0x40 MLOAD DUP1 SWAP2 SUB SWAP1 RETURN JUMPDEST PUSH1 0x5 PUSH1 0x20 MSTORE DUP1 PUSH1 0x0 MSTORE PUSH1 0x40 PUSH1 0x0 KECCAK256 PUSH1 0x0 SWAP2 POP SWAP1 POP DUP1 PUSH1 0x0 ADD SLOAD SWAP1 DUP1 PUSH1 0x1 ADD PUSH1 0x0 SWAP1 SLOAD SWAP1 PUSH2 0x100 EXP SWAP1 DIV PUSH20 0xFFFFFFFFFFFFFFFFFFFFFFFFFFFFFFFFFFFFFFFF AND SWAP1 DUP1 PUSH1 0x2 ADD PUSH1 0x0 SWAP1 SLOAD SWAP1 PUSH2 0x100 EXP SWAP1 DIV PUSH20 0xFFFFFFFFFFFFFFFFFFFFFFFFFFFFFFFFFFFFFFFF AND SWAP1 POP DUP4 JUMP JUMPDEST PUSH1 0x6 PUSH1 0x40 MLOAD DUP1 PUSH1 0x20 ADD PUSH1 0x40 MSTORE DUP1 PUSH1 0x0 SLOAD DUP2 MSTORE POP SWAP1 DUP1 PUSH1 0x1 DUP2 SLOAD ADD DUP1 DUP3 SSTORE DUP1 SWAP2 POP POP PUSH1 0x1 SWAP1 SUB SWAP1 PUSH1 0x0 MSTORE PUSH1 0x20 PUSH1 0x0 KECCAK256 ADD PUSH1 0x0 SWAP1 SWAP2 SWAP1 SWAP2 SWAP1 SWAP2 POP PUSH1 0x0 DUP3 ADD MLOAD DUP2 PUSH1 0x0 ADD SSTORE POP POP PUSH1 0x4 PUSH1 0x0 CALLER PUSH20 0xFFFFFFFFFFFFFFFFFFFFFFFFFFFFFFFFFFFFFFFF AND PUSH20 0xFFFFFFFFFFFFFFFFFFFFFFFFFFFFFFFFFFFFFFFF AND DUP2 MSTORE PUSH1 0x20 ADD SWAP1 DUP2 MSTORE PUSH1 0x20 ADD PUSH1 0x0 KECCAK256 PUSH1 0x0 DUP1 DUP3 ADD PUSH1 0x0 PUSH2 0x100 EXP DUP2 SLOAD SWAP1 PUSH20 0xFFFFFFFFFFFFFFFFFFFFFFFFFFFFFFFFFFFFFFFF MUL NOT AND SWAP1 SSTORE PUSH1 0x1 DUP3 ADD PUSH1 0x0 PUSH2 0x8AC SWAP2 SWAP1 PUSH2 0x1DFF JUMP JUMPDEST PUSH1 0x2 DUP3 ADD PUSH1 0x0 PUSH2 0x8BC SWAP2 SWAP1 PUSH2 0x1DFF JUMP JUMPDEST PUSH1 0x3 DUP3 ADD PUSH1 0x0 SWAP1 SSTORE PUSH1 0x4 DUP3 ADD PUSH1 0x0 SWAP1 SSTORE PUSH1 0x5 DUP3 ADD PUSH1 0x0 SWAP1 SSTORE POP POP PUSH1 0x5 PUSH1 0x0 CALLER PUSH20 0xFFFFFFFFFFFFFFFFFFFFFFFFFFFFFFFFFFFFFFFF AND PUSH20 0xFFFFFFFFFFFFFFFFFFFFFFFFFFFFFFFFFFFFFFFF AND DUP2 MSTORE PUSH1 0x20 ADD SWAP1 DUP2 MSTORE PUSH1 0x20 ADD PUSH1 0x0 KECCAK256 PUSH1 0x0 DUP1 DUP3 ADD PUSH1 0x0 SWAP1 SSTORE PUSH1 0x1 DUP3 ADD PUSH1 0x0 PUSH2 0x100 EXP DUP2 SLOAD SWAP1 PUSH20 0xFFFFFFFFFFFFFFFFFFFFFFFFFFFFFFFFFFFFFFFF MUL NOT AND SWAP1 SSTORE PUSH1 0x2 DUP3 ADD PUSH1 0x0 PUSH2 0x100 EXP DUP2 SLOAD SWAP1 PUSH20 0xFFFFFFFFFFFFFFFFFFFFFFFFFFFFFFFFFFFFFFFF MUL NOT AND SWAP1 SSTORE POP POP JUMP JUMPDEST PUSH1 0x0 TIMESTAMP CALLER PUSH1 0x40 MLOAD PUSH1 0x20 ADD DUP1 DUP4 DUP2 MSTORE PUSH1 0x20 ADD DUP3 PUSH20 0xFFFFFFFFFFFFFFFFFFFFFFFFFFFFFFFFFFFFFFFF AND PUSH1 0x60 SHL DUP2 MSTORE PUSH1 0x14 ADD SWAP3 POP POP POP PUSH1 0x40 MLOAD PUSH1 0x20 DUP2 DUP4 SUB SUB DUP2 MSTORE SWAP1 PUSH1 0x40 MSTORE DUP1 MLOAD SWAP1 PUSH1 0x20 ADD KECCAK256 SWAP1 POP SWAP1 JUMP JUMPDEST PUSH1 0x0 DUP1 PUSH1 0x0 PUSH1 0x5 PUSH1 0x0 CALLER PUSH20 0xFFFFFFFFFFFFFFFFFFFFFFFFFFFFFFFFFFFFFFFF AND PUSH20 0xFFFFFFFFFFFFFFFFFFFFFFFFFFFFFFFFFFFFFFFF AND DUP2 MSTORE PUSH1 0x20 ADD SWAP1 DUP2 MSTORE PUSH1 0x20 ADD PUSH1 0x0 KECCAK256 PUSH1 0x0 ADD SLOAD PUSH1 0x5 PUSH1 0x0 CALLER PUSH20 0xFFFFFFFFFFFFFFFFFFFFFFFFFFFFFFFFFFFFFFFF AND PUSH20 0xFFFFFFFFFFFFFFFFFFFFFFFFFFFFFFFFFFFFFFFF AND DUP2 MSTORE PUSH1 0x20 ADD SWAP1 DUP2 MSTORE PUSH1 0x20 ADD PUSH1 0x0 KECCAK256 PUSH1 0x1 ADD PUSH1 0x0 SWAP1 SLOAD SWAP1 PUSH2 0x100 EXP SWAP1 DIV PUSH20 0xFFFFFFFFFFFFFFFFFFFFFFFFFFFFFFFFFFFFFFFF AND PUSH1 0x5 PUSH1 0x0 CALLER PUSH20 0xFFFFFFFFFFFFFFFFFFFFFFFFFFFFFFFFFFFFFFFF AND PUSH20 0xFFFFFFFFFFFFFFFFFFFFFFFFFFFFFFFFFFFFFFFF AND DUP2 MSTORE PUSH1 0x20 ADD SWAP1 DUP2 MSTORE PUSH1 0x20 ADD PUSH1 0x0 KECCAK256 PUSH1 0x2 ADD PUSH1 0x0 SWAP1 SLOAD SWAP1 PUSH2 0x100 EXP SWAP1 DIV PUSH20 0xFFFFFFFFFFFFFFFFFFFFFFFFFFFFFFFFFFFFFFFF AND SWAP3 POP SWAP3 POP SWAP3 POP SWAP1 SWAP2 SWAP3 JUMP JUMPDEST PUSH1 0x0 ISZERO ISZERO PUSH2 0xAE4 PUSH2 0x1405 JUMP JUMPDEST ISZERO ISZERO EQ ISZERO PUSH2 0xB07 JUMPI PUSH2 0xAF4 PUSH2 0x1465 JUMP JUMPDEST PUSH2 0xAFE DUP3 DUP3 PUSH2 0x147D JUMP JUMPDEST PUSH2 0xB06 PUSH2 0x18A7 JUMP JUMPDEST JUMPDEST POP POP JUMP JUMPDEST PUSH1 0x0 DUP1 DUP6 MLOAD DUP8 MLOAD PUSH1 0x74 ADD ADD SWAP1 POP PUSH1 0x60 DUP2 PUSH8 0xFFFFFFFFFFFFFFFF DUP2 GT DUP1 ISZERO PUSH2 0xB31 JUMPI PUSH1 0x0 DUP1 REVERT JUMPDEST POP PUSH1 0x40 MLOAD SWAP1 DUP1 DUP3 MSTORE DUP1 PUSH1 0x1F ADD PUSH1 0x1F NOT AND PUSH1 0x20 ADD DUP3 ADD PUSH1 0x40 MSTORE DUP1 ISZERO PUSH2 0xB64 JUMPI DUP2 PUSH1 0x20 ADD PUSH1 0x1 DUP3 MUL DUP1 CALLDATASIZE DUP4 CALLDATACOPY DUP1 DUP3 ADD SWAP2 POP POP SWAP1 POP JUMPDEST POP SWAP1 POP PUSH1 0x0 PUSH1 0x60 CALLER PUSH1 0x40 MLOAD PUSH1 0x20 ADD DUP1 DUP3 PUSH20 0xFFFFFFFFFFFFFFFFFFFFFFFFFFFFFFFFFFFFFFFF AND PUSH1 0x60 SHL DUP2 MSTORE PUSH1 0x14 ADD SWAP2 POP POP PUSH1 0x40 MLOAD PUSH1 0x20 DUP2 DUP4 SUB SUB DUP2 MSTORE SWAP1 PUSH1 0x40 MSTORE SWAP1 POP PUSH1 0x60 DUP9 PUSH1 0x40 MLOAD PUSH1 0x20 ADD DUP1 DUP3 DUP2 MSTORE PUSH1 0x20 ADD SWAP2 POP POP PUSH1 0x40 MLOAD PUSH1 0x20 DUP2 DUP4 SUB SUB DUP2 MSTORE SWAP1 PUSH1 0x40 MSTORE SWAP1 POP PUSH1 0x60 DUP9 PUSH1 0x40 MLOAD PUSH1 0x20 ADD DUP1 DUP3 DUP2 MSTORE PUSH1 0x20 ADD SWAP2 POP POP PUSH1 0x40 MLOAD PUSH1 0x20 DUP2 DUP4 SUB SUB DUP2 MSTORE SWAP1 PUSH1 0x40 MSTORE SWAP1 POP PUSH1 0x60 DUP9 PUSH1 0x40 MLOAD PUSH1 0x20 ADD DUP1 DUP3 DUP2 MSTORE PUSH1 0x20 ADD SWAP2 POP POP PUSH1 0x40 MLOAD PUSH1 0x20 DUP2 DUP4 SUB SUB DUP2 MSTORE SWAP1 PUSH1 0x40 MSTORE SWAP1 POP PUSH1 0x0 JUMPDEST PUSH1 0x14 DUP2 LT ISZERO PUSH2 0xC85 JUMPI DUP5 DUP2 DUP2 MLOAD DUP2 LT PUSH2 0xC2A JUMPI INVALID JUMPDEST PUSH1 0x20 ADD ADD MLOAD PUSH1 0xF8 SHR PUSH1 0xF8 SHL DUP8 DUP8 DUP2 MLOAD DUP2 LT PUSH2 0xC41 JUMPI INVALID JUMPDEST PUSH1 0x20 ADD ADD SWAP1 PUSH31 0xFFFFFFFFFFFFFFFFFFFFFFFFFFFFFFFFFFFFFFFFFFFFFFFFFFFFFFFFFFFFFF NOT AND SWAP1 DUP2 PUSH1 0x0 BYTE SWAP1 MSTORE8 POP DUP6 DUP1 PUSH1 0x1 ADD SWAP7 POP POP DUP1 DUP1 PUSH1 0x1 ADD SWAP2 POP POP PUSH2 0xC15 JUMP JUMPDEST POP PUSH1 0x0 JUMPDEST DUP14 MLOAD DUP2 LT ISZERO PUSH2 0xCF9 JUMPI DUP14 DUP2 DUP2 MLOAD DUP2 LT PUSH2 0xC9E JUMPI INVALID JUMPDEST PUSH1 0x20 ADD ADD MLOAD PUSH1 0xF8 SHR PUSH1 0xF8 SHL DUP8 DUP8 DUP2 MLOAD DUP2 LT PUSH2 0xCB5 JUMPI INVALID JUMPDEST PUSH1 0x20 ADD ADD SWAP1 PUSH31 0xFFFFFFFFFFFFFFFFFFFFFFFFFFFFFFFFFFFFFFFFFFFFFFFFFFFFFFFFFFFFFF NOT AND SWAP1 DUP2 PUSH1 0x0 BYTE SWAP1 MSTORE8 POP DUP6 DUP1 PUSH1 0x1 ADD SWAP7 POP POP DUP1 DUP1 PUSH1 0x1 ADD SWAP2 POP POP PUSH2 0xC89 JUMP JUMPDEST POP PUSH1 0x0 JUMPDEST DUP13 MLOAD DUP2 LT ISZERO PUSH2 0xD6D JUMPI DUP13 DUP2 DUP2 MLOAD DUP2 LT PUSH2 0xD12 JUMPI INVALID JUMPDEST PUSH1 0x20 ADD ADD MLOAD PUSH1 0xF8 SHR PUSH1 0xF8 SHL DUP8 DUP8 DUP2 MLOAD DUP2 LT PUSH2 0xD29 JUMPI INVALID JUMPDEST PUSH1 0x20 ADD ADD SWAP1 PUSH31 0xFFFFFFFFFFFFFFFFFFFFFFFFFFFFFFFFFFFFFFFFFFFFFFFFFFFFFFFFFFFFFF NOT AND SWAP1 DUP2 PUSH1 0x0 BYTE SWAP1 MSTORE8 POP DUP6 DUP1 PUSH1 0x1 ADD SWAP7 POP POP DUP1 DUP1 PUSH1 0x1 ADD SWAP2 POP POP PUSH2 0xCFD JUMP JUMPDEST POP PUSH1 0x0 JUMPDEST PUSH1 0x20 DUP2 LT ISZERO PUSH2 0xDE1 JUMPI DUP4 DUP2 DUP2 MLOAD DUP2 LT PUSH2 0xD86 JUMPI INVALID JUMPDEST PUSH1 0x20 ADD ADD MLOAD PUSH1 0xF8 SHR PUSH1 0xF8 SHL DUP8 DUP8 DUP2 MLOAD DUP2 LT PUSH2 0xD9D JUMPI INVALID JUMPDEST PUSH1 0x20 ADD ADD SWAP1 PUSH31 0xFFFFFFFFFFFFFFFFFFFFFFFFFFFFFFFFFFFFFFFFFFFFFFFFFFFFFFFFFFFFFF NOT AND SWAP1 DUP2 PUSH1 0x0 BYTE SWAP1 MSTORE8 POP DUP6 DUP1 PUSH1 0x1 ADD SWAP7 POP POP DUP1 DUP1 PUSH1 0x1 ADD SWAP2 POP POP PUSH2 0xD71 JUMP JUMPDEST POP PUSH1 0x0 JUMPDEST PUSH1 0x20 DUP2 LT ISZERO PUSH2 0xE55 JUMPI DUP3 DUP2 DUP2 MLOAD DUP2 LT PUSH2 0xDFA JUMPI INVALID JUMPDEST PUSH1 0x20 ADD ADD MLOAD PUSH1 0xF8 SHR PUSH1 0xF8 SHL DUP8 DUP8 DUP2 MLOAD DUP2 LT PUSH2 0xE11 JUMPI INVALID JUMPDEST PUSH1 0x20 ADD ADD SWAP1 PUSH31 0xFFFFFFFFFFFFFFFFFFFFFFFFFFFFFFFFFFFFFFFFFFFFFFFFFFFFFFFFFFFFFF NOT AND SWAP1 DUP2 PUSH1 0x0 BYTE SWAP1 MSTORE8 POP DUP6 DUP1 PUSH1 0x1 ADD SWAP7 POP POP DUP1 DUP1 PUSH1 0x1 ADD SWAP2 POP POP PUSH2 0xDE5 JUMP JUMPDEST POP PUSH1 0x0 JUMPDEST PUSH1 0x20 DUP2 LT ISZERO PUSH2 0xEC9 JUMPI DUP2 DUP2 DUP2 MLOAD DUP2 LT PUSH2 0xE6E JUMPI INVALID JUMPDEST PUSH1 0x20 ADD ADD MLOAD PUSH1 0xF8 SHR PUSH1 0xF8 SHL DUP8 DUP8 DUP2 MLOAD DUP2 LT PUSH2 0xE85 JUMPI INVALID JUMPDEST PUSH1 0x20 ADD ADD SWAP1 PUSH31 0xFFFFFFFFFFFFFFFFFFFFFFFFFFFFFFFFFFFFFFFFFFFFFFFFFFFFFFFFFFFFFF NOT AND SWAP1 DUP2 PUSH1 0x0 BYTE SWAP1 MSTORE8 POP DUP6 DUP1 PUSH1 0x1 ADD SWAP7 POP POP DUP1 DUP1 PUSH1 0x1 ADD SWAP2 POP POP PUSH2 0xE59 JUMP JUMPDEST POP PUSH1 0x0 DUP7 DUP1 MLOAD SWAP1 PUSH1 0x20 ADD KECCAK256 SWAP1 POP PUSH1 0x5 PUSH1 0x0 CALLER PUSH20 0xFFFFFFFFFFFFFFFFFFFFFFFFFFFFFFFFFFFFFFFF AND PUSH20 0xFFFFFFFFFFFFFFFFFFFFFFFFFFFFFFFFFFFFFFFF AND DUP2 MSTORE PUSH1 0x20 ADD SWAP1 DUP2 MSTORE PUSH1 0x20 ADD PUSH1 0x0 KECCAK256 PUSH1 0x0 ADD SLOAD DUP2 EQ ISZERO PUSH2 0xF31 JUMPI PUSH1 0x1 SWAP9 POP POP POP POP POP POP POP POP POP PUSH2 0xF3E JUMP JUMPDEST PUSH1 0x0 SWAP9 POP POP POP POP POP POP POP POP POP JUMPDEST SWAP6 SWAP5 POP POP POP POP POP JUMP JUMPDEST PUSH1 0x6 DUP2 DUP2 SLOAD DUP2 LT PUSH2 0xF54 JUMPI INVALID JUMPDEST SWAP1 PUSH1 0x0 MSTORE PUSH1 0x20 PUSH1 0x0 KECCAK256 ADD PUSH1 0x0 SWAP2 POP SWAP1 POP DUP1 PUSH1 0x0 ADD SLOAD SWAP1 POP DUP2 JUMP JUMPDEST PUSH1 0x4 PUSH1 0x20 MSTORE DUP1 PUSH1 0x0 MSTORE PUSH1 0x40 PUSH1 0x0 KECCAK256 PUSH1 0x0 SWAP2 POP SWAP1 POP DUP1 PUSH1 0x0 ADD PUSH1 0x0 SWAP1 SLOAD SWAP1 PUSH2 0x100 EXP SWAP1 DIV PUSH20 0xFFFFFFFFFFFFFFFFFFFFFFFFFFFFFFFFFFFFFFFF AND SWAP1 DUP1 PUSH1 0x1 ADD DUP1 SLOAD PUSH1 0x1 DUP2 PUSH1 0x1 AND ISZERO PUSH2 0x100 MUL SUB AND PUSH1 0x2 SWAP1 DIV DUP1 PUSH1 0x1F ADD PUSH1 0x20 DUP1 SWAP2 DIV MUL PUSH1 0x20 ADD PUSH1 0x40 MLOAD SWAP1 DUP2 ADD PUSH1 0x40 MSTORE DUP1 SWAP3 SWAP2 SWAP1 DUP2 DUP2 MSTORE PUSH1 0x20 ADD DUP3 DUP1 SLOAD PUSH1 0x1 DUP2 PUSH1 0x1 AND ISZERO PUSH2 0x100 MUL SUB AND PUSH1 0x2 SWAP1 DIV DUP1 ISZERO PUSH2 0x1040 JUMPI DUP1 PUSH1 0x1F LT PUSH2 0x1015 JUMPI PUSH2 0x100 DUP1 DUP4 SLOAD DIV MUL DUP4 MSTORE SWAP2 PUSH1 0x20 ADD SWAP2 PUSH2 0x1040 JUMP JUMPDEST DUP3 ADD SWAP2 SWAP1 PUSH1 0x0 MSTORE PUSH1 0x20 PUSH1 0x0 KECCAK256 SWAP1 JUMPDEST DUP2 SLOAD DUP2 MSTORE SWAP1 PUSH1 0x1 ADD SWAP1 PUSH1 0x20 ADD DUP1 DUP4 GT PUSH2 0x1023 JUMPI DUP3 SWAP1 SUB PUSH1 0x1F AND DUP3 ADD SWAP2 JUMPDEST POP POP POP POP POP SWAP1 DUP1 PUSH1 0x2 ADD DUP1 SLOAD PUSH1 0x1 DUP2 PUSH1 0x1 AND ISZERO PUSH2 0x100 MUL SUB AND PUSH1 0x2 SWAP1 DIV DUP1 PUSH1 0x1F ADD PUSH1 0x20 DUP1 SWAP2 DIV MUL PUSH1 0x20 ADD PUSH1 0x40 MLOAD SWAP1 DUP2 ADD PUSH1 0x40 MSTORE DUP1 SWAP3 SWAP2 SWAP1 DUP2 DUP2 MSTORE PUSH1 0x20 ADD DUP3 DUP1 SLOAD PUSH1 0x1 DUP2 PUSH1 0x1 AND ISZERO PUSH2 0x100 MUL SUB AND PUSH1 0x2 SWAP1 DIV DUP1 ISZERO PUSH2 0x10DE JUMPI DUP1 PUSH1 0x1F LT PUSH2 0x10B3 JUMPI PUSH2 0x100 DUP1 DUP4 SLOAD DIV MUL DUP4 MSTORE SWAP2 PUSH1 0x20 ADD SWAP2 PUSH2 0x10DE JUMP JUMPDEST DUP3 ADD SWAP2 SWAP1 PUSH1 0x0 MSTORE PUSH1 0x20 PUSH1 0x0 KECCAK256 SWAP1 JUMPDEST DUP2 SLOAD DUP2 MSTORE SWAP1 PUSH1 0x1 ADD SWAP1 PUSH1 0x20 ADD DUP1 DUP4 GT PUSH2 0x10C1 JUMPI DUP3 SWAP1 SUB PUSH1 0x1F AND DUP3 ADD SWAP2 JUMPDEST POP POP POP POP POP SWAP1 DUP1 PUSH1 0x3 ADD SLOAD SWAP1 DUP1 PUSH1 0x4 ADD SLOAD SWAP1 DUP1 PUSH1 0x5 ADD SLOAD SWAP1 POP DUP7 JUMP JUMPDEST PUSH1 0x0 PUSH1 0x60 DUP1 PUSH1 0x0 DUP1 PUSH1 0x0 DUP1 PUSH1 0x4 PUSH1 0x0 CALLER PUSH20 0xFFFFFFFFFFFFFFFFFFFFFFFFFFFFFFFFFFFFFFFF AND PUSH20 0xFFFFFFFFFFFFFFFFFFFFFFFFFFFFFFFFFFFFFFFF AND DUP2 MSTORE PUSH1 0x20 ADD SWAP1 DUP2 MSTORE PUSH1 0x20 ADD PUSH1 0x0 KECCAK256 PUSH1 0x0 ADD PUSH1 0x0 SWAP1 SLOAD SWAP1 PUSH2 0x100 EXP SWAP1 DIV PUSH20 0xFFFFFFFFFFFFFFFFFFFFFFFFFFFFFFFFFFFFFFFF AND PUSH1 0x4 PUSH1 0x0 CALLER PUSH20 0xFFFFFFFFFFFFFFFFFFFFFFFFFFFFFFFFFFFFFFFF AND PUSH20 0xFFFFFFFFFFFFFFFFFFFFFFFFFFFFFFFFFFFFFFFF AND DUP2 MSTORE PUSH1 0x20 ADD SWAP1 DUP2 MSTORE PUSH1 0x20 ADD PUSH1 0x0 KECCAK256 PUSH1 0x1 ADD PUSH1 0x4 PUSH1 0x0 CALLER PUSH20 0xFFFFFFFFFFFFFFFFFFFFFFFFFFFFFFFFFFFFFFFF AND PUSH20 0xFFFFFFFFFFFFFFFFFFFFFFFFFFFFFFFFFFFFFFFF AND DUP2 MSTORE PUSH1 0x20 ADD SWAP1 DUP2 MSTORE PUSH1 0x20 ADD PUSH1 0x0 KECCAK256 PUSH1 0x2 ADD PUSH1 0x4 PUSH1 0x0 CALLER PUSH20 0xFFFFFFFFFFFFFFFFFFFFFFFFFFFFFFFFFFFFFFFF AND PUSH20 0xFFFFFFFFFFFFFFFFFFFFFFFFFFFFFFFFFFFFFFFF AND DUP2 MSTORE PUSH1 0x20 ADD SWAP1 DUP2 MSTORE PUSH1 0x20 ADD PUSH1 0x0 KECCAK256 PUSH1 0x3 ADD SLOAD PUSH1 0x4 PUSH1 0x0 CALLER PUSH20 0xFFFFFFFFFFFFFFFFFFFFFFFFFFFFFFFFFFFFFFFF AND PUSH20 0xFFFFFFFFFFFFFFFFFFFFFFFFFFFFFFFFFFFFFFFF AND DUP2 MSTORE PUSH1 0x20 ADD SWAP1 DUP2 MSTORE PUSH1 0x20 ADD PUSH1 0x0 KECCAK256 PUSH1 0x4 ADD SLOAD PUSH1 0x4 PUSH1 0x0 CALLER PUSH20 0xFFFFFFFFFFFFFFFFFFFFFFFFFFFFFFFFFFFFFFFF AND PUSH20 0xFFFFFFFFFFFFFFFFFFFFFFFFFFFFFFFFFFFFFFFF AND DUP2 MSTORE PUSH1 0x20 ADD SWAP1 DUP2 MSTORE PUSH1 0x20 ADD PUSH1 0x0 KECCAK256 PUSH1 0x5 ADD SLOAD CALLER DUP6 DUP1 SLOAD PUSH1 0x1 DUP2 PUSH1 0x1 AND ISZERO PUSH2 0x100 MUL SUB AND PUSH1 0x2 SWAP1 DIV DUP1 PUSH1 0x1F ADD PUSH1 0x20 DUP1 SWAP2 DIV MUL PUSH1 0x20 ADD PUSH1 0x40 MLOAD SWAP1 DUP2 ADD PUSH1 0x40 MSTORE DUP1 SWAP3 SWAP2 SWAP1 DUP2 DUP2 MSTORE PUSH1 0x20 ADD DUP3 DUP1 SLOAD PUSH1 0x1 DUP2 PUSH1 0x1 AND ISZERO PUSH2 0x100 MUL SUB AND PUSH1 0x2 SWAP1 DIV DUP1 ISZERO PUSH2 0x134B JUMPI DUP1 PUSH1 0x1F LT PUSH2 0x1320 JUMPI PUSH2 0x100 DUP1 DUP4 SLOAD DIV MUL DUP4 MSTORE SWAP2 PUSH1 0x20 ADD SWAP2 PUSH2 0x134B JUMP JUMPDEST DUP3 ADD SWAP2 SWAP1 PUSH1 0x0 MSTORE PUSH1 0x20 PUSH1 0x0 KECCAK256 SWAP1 JUMPDEST DUP2 SLOAD DUP2 MSTORE SWAP1 PUSH1 0x1 ADD SWAP1 PUSH1 0x20 ADD DUP1 DUP4 GT PUSH2 0x132E JUMPI DUP3 SWAP1 SUB PUSH1 0x1F AND DUP3 ADD SWAP2 JUMPDEST POP POP POP POP POP SWAP6 POP DUP5 DUP1 SLOAD PUSH1 0x1 DUP2 PUSH1 0x1 AND ISZERO PUSH2 0x100 MUL SUB AND PUSH1 0x2 SWAP1 DIV DUP1 PUSH1 0x1F ADD PUSH1 0x20 DUP1 SWAP2 DIV MUL PUSH1 0x20 ADD PUSH1 0x40 MLOAD SWAP1 DUP2 ADD PUSH1 0x40 MSTORE DUP1 SWAP3 SWAP2 SWAP1 DUP2 DUP2 MSTORE PUSH1 0x20 ADD DUP3 DUP1 SLOAD PUSH1 0x1 DUP2 PUSH1 0x1 AND ISZERO PUSH2 0x100 MUL SUB AND PUSH1 0x2 SWAP1 DIV DUP1 ISZERO PUSH2 0x13E7 JUMPI DUP1 PUSH1 0x1F LT PUSH2 0x13BC JUMPI PUSH2 0x100 DUP1 DUP4 SLOAD DIV MUL DUP4 MSTORE SWAP2 PUSH1 0x20 ADD SWAP2 PUSH2 0x13E7 JUMP JUMPDEST DUP3 ADD SWAP2 SWAP1 PUSH1 0x0 MSTORE PUSH1 0x20 PUSH1 0x0 KECCAK256 SWAP1 JUMPDEST DUP2 SLOAD DUP2 MSTORE SWAP1 PUSH1 0x1 ADD SWAP1 PUSH1 0x20 ADD DUP1 DUP4 GT PUSH2 0x13CA JUMPI DUP3 SWAP1 SUB PUSH1 0x1F AND DUP3 ADD SWAP2 JUMPDEST POP POP POP POP POP SWAP5 POP SWAP7 POP SWAP7 POP SWAP7 POP SWAP7 POP SWAP7 POP SWAP7 POP SWAP7 POP SWAP1 SWAP2 SWAP3 SWAP4 SWAP5 SWAP6 SWAP7 JUMP JUMPDEST PUSH1 0x0 DUP1 PUSH1 0x0 SHL PUSH1 0x4 PUSH1 0x0 CALLER PUSH20 0xFFFFFFFFFFFFFFFFFFFFFFFFFFFFFFFFFFFFFFFF AND PUSH20 0xFFFFFFFFFFFFFFFFFFFFFFFFFFFFFFFFFFFFFFFF AND DUP2 MSTORE PUSH1 0x20 ADD SWAP1 DUP2 MSTORE PUSH1 0x20 ADD PUSH1 0x0 KECCAK256 PUSH1 0x5 ADD SLOAD EQ ISZERO PUSH2 0x145D JUMPI PUSH1 0x0 SWAP1 POP PUSH2 0x1462 JUMP JUMPDEST PUSH1 0x1 SWAP1 POP JUMPDEST SWAP1 JUMP JUMPDEST TIMESTAMP PUSH1 0x2 DUP2 SWAP1 SSTORE POP PUSH4 0x1E13380 PUSH1 0x2 SLOAD ADD PUSH1 0x3 DUP2 SWAP1 SSTORE POP JUMP JUMPDEST CALLER PUSH1 0x4 PUSH1 0x0 CALLER PUSH20 0xFFFFFFFFFFFFFFFFFFFFFFFFFFFFFFFFFFFFFFFF AND PUSH20 0xFFFFFFFFFFFFFFFFFFFFFFFFFFFFFFFFFFFFFFFF AND DUP2 MSTORE PUSH1 0x20 ADD SWAP1 DUP2 MSTORE PUSH1 0x20 ADD PUSH1 0x0 KECCAK256 PUSH1 0x0 ADD PUSH1 0x0 PUSH2 0x100 EXP DUP2 SLOAD DUP2 PUSH20 0xFFFFFFFFFFFFFFFFFFFFFFFFFFFFFFFFFFFFFFFF MUL NOT AND SWAP1 DUP4 PUSH20 0xFFFFFFFFFFFFFFFFFFFFFFFFFFFFFFFFFFFFFFFF AND MUL OR SWAP1 SSTORE POP DUP2 PUSH1 0x4 PUSH1 0x0 CALLER PUSH20 0xFFFFFFFFFFFFFFFFFFFFFFFFFFFFFFFFFFFFFFFF AND PUSH20 0xFFFFFFFFFFFFFFFFFFFFFFFFFFFFFFFFFFFFFFFF AND DUP2 MSTORE PUSH1 0x20 ADD SWAP1 DUP2 MSTORE PUSH1 0x20 ADD PUSH1 0x0 KECCAK256 PUSH1 0x1 ADD SWAP1 DUP1 MLOAD SWAP1 PUSH1 0x20 ADD SWAP1 PUSH2 0x1554 SWAP3 SWAP2 SWAP1 PUSH2 0x1E47 JUMP JUMPDEST POP DUP1 PUSH1 0x4 PUSH1 0x0 CALLER PUSH20 0xFFFFFFFFFFFFFFFFFFFFFFFFFFFFFFFFFFFFFFFF AND PUSH20 0xFFFFFFFFFFFFFFFFFFFFFFFFFFFFFFFFFFFFFFFF AND DUP2 MSTORE PUSH1 0x20 ADD SWAP1 DUP2 MSTORE PUSH1 0x20 ADD PUSH1 0x0 KECCAK256 PUSH1 0x2 ADD SWAP1 DUP1 MLOAD SWAP1 PUSH1 0x20 ADD SWAP1 PUSH2 0x15AB SWAP3 SWAP2 SWAP1 PUSH2 0x1E47 JUMP JUMPDEST POP PUSH1 0x2 SLOAD PUSH1 0x4 PUSH1 0x0 CALLER PUSH20 0xFFFFFFFFFFFFFFFFFFFFFFFFFFFFFFFFFFFFFFFF AND PUSH20 0xFFFFFFFFFFFFFFFFFFFFFFFFFFFFFFFFFFFFFFFF AND DUP2 MSTORE PUSH1 0x20 ADD SWAP1 DUP2 MSTORE PUSH1 0x20 ADD PUSH1 0x0 KECCAK256 PUSH1 0x3 ADD DUP2 SWAP1 SSTORE POP PUSH1 0x3 SLOAD PUSH1 0x4 PUSH1 0x0 CALLER PUSH20 0xFFFFFFFFFFFFFFFFFFFFFFFFFFFFFFFFFFFFFFFF AND PUSH20 0xFFFFFFFFFFFFFFFFFFFFFFFFFFFFFFFFFFFFFFFF AND DUP2 MSTORE PUSH1 0x20 ADD SWAP1 DUP2 MSTORE PUSH1 0x20 ADD PUSH1 0x0 KECCAK256 PUSH1 0x4 ADD DUP2 SWAP1 SSTORE POP PUSH2 0x1646 PUSH2 0x970 JUMP JUMPDEST PUSH1 0x4 PUSH1 0x0 CALLER PUSH20 0xFFFFFFFFFFFFFFFFFFFFFFFFFFFFFFFFFFFFFFFF AND PUSH20 0xFFFFFFFFFFFFFFFFFFFFFFFFFFFFFFFFFFFFFFFF AND DUP2 MSTORE PUSH1 0x20 ADD SWAP1 DUP2 MSTORE PUSH1 0x20 ADD PUSH1 0x0 KECCAK256 PUSH1 0x5 ADD DUP2 SWAP1 SSTORE POP PUSH2 0x1896 PUSH1 0x4 PUSH1 0x0 CALLER PUSH20 0xFFFFFFFFFFFFFFFFFFFFFFFFFFFFFFFFFFFFFFFF AND PUSH20 0xFFFFFFFFFFFFFFFFFFFFFFFFFFFFFFFFFFFFFFFF AND DUP2 MSTORE PUSH1 0x20 ADD SWAP1 DUP2 MSTORE PUSH1 0x20 ADD PUSH1 0x0 KECCAK256 PUSH1 0x40 MLOAD DUP1 PUSH1 0xC0 ADD PUSH1 0x40 MSTORE SWAP1 DUP2 PUSH1 0x0 DUP3 ADD PUSH1 0x0 SWAP1 SLOAD SWAP1 PUSH2 0x100 EXP SWAP1 DIV PUSH20 0xFFFFFFFFFFFFFFFFFFFFFFFFFFFFFFFFFFFFFFFF AND PUSH20 0xFFFFFFFFFFFFFFFFFFFFFFFFFFFFFFFFFFFFFFFF AND PUSH20 0xFFFFFFFFFFFFFFFFFFFFFFFFFFFFFFFFFFFFFFFF AND DUP2 MSTORE PUSH1 0x20 ADD PUSH1 0x1 DUP3 ADD DUP1 SLOAD PUSH1 0x1 DUP2 PUSH1 0x1 AND ISZERO PUSH2 0x100 MUL SUB AND PUSH1 0x2 SWAP1 DIV DUP1 PUSH1 0x1F ADD PUSH1 0x20 DUP1 SWAP2 DIV MUL PUSH1 0x20 ADD PUSH1 0x40 MLOAD SWAP1 DUP2 ADD PUSH1 0x40 MSTORE DUP1 SWAP3 SWAP2 SWAP1 DUP2 DUP2 MSTORE PUSH1 0x20 ADD DUP3 DUP1 SLOAD PUSH1 0x1 DUP2 PUSH1 0x1 AND ISZERO PUSH2 0x100 MUL SUB AND PUSH1 0x2 SWAP1 DIV DUP1 ISZERO PUSH2 0x17C8 JUMPI DUP1 PUSH1 0x1F LT PUSH2 0x179D JUMPI PUSH2 0x100 DUP1 DUP4 SLOAD DIV MUL DUP4 MSTORE SWAP2 PUSH1 0x20 ADD SWAP2 PUSH2 0x17C8 JUMP JUMPDEST DUP3 ADD SWAP2 SWAP1 PUSH1 0x0 MSTORE PUSH1 0x20 PUSH1 0x0 KECCAK256 SWAP1 JUMPDEST DUP2 SLOAD DUP2 MSTORE SWAP1 PUSH1 0x1 ADD SWAP1 PUSH1 0x20 ADD DUP1 DUP4 GT PUSH2 0x17AB JUMPI DUP3 SWAP1 SUB PUSH1 0x1F AND DUP3 ADD SWAP2 JUMPDEST POP POP POP POP POP DUP2 MSTORE PUSH1 0x20 ADD PUSH1 0x2 DUP3 ADD DUP1 SLOAD PUSH1 0x1 DUP2 PUSH1 0x1 AND ISZERO PUSH2 0x100 MUL SUB AND PUSH1 0x2 SWAP1 DIV DUP1 PUSH1 0x1F ADD PUSH1 0x20 DUP1 SWAP2 DIV MUL PUSH1 0x20 ADD PUSH1 0x40 MLOAD SWAP1 DUP2 ADD PUSH1 0x40 MSTORE DUP1 SWAP3 SWAP2 SWAP1 DUP2 DUP2 MSTORE PUSH1 0x20 ADD DUP3 DUP1 SLOAD PUSH1 0x1 DUP2 PUSH1 0x1 AND ISZERO PUSH2 0x100 MUL SUB AND PUSH1 0x2 SWAP1 DIV DUP1 ISZERO PUSH2 0x186A JUMPI DUP1 PUSH1 0x1F LT PUSH2 0x183F JUMPI PUSH2 0x100 DUP1 DUP4 SLOAD DIV MUL DUP4 MSTORE SWAP2 PUSH1 0x20 ADD SWAP2 PUSH2 0x186A JUMP JUMPDEST DUP3 ADD SWAP2 SWAP1 PUSH1 0x0 MSTORE PUSH1 0x20 PUSH1 0x0 KECCAK256 SWAP1 JUMPDEST DUP2 SLOAD DUP2 MSTORE SWAP1 PUSH1 0x1 ADD SWAP1 PUSH1 0x20 ADD DUP1 DUP4 GT PUSH2 0x184D JUMPI DUP3 SWAP1 SUB PUSH1 0x1F AND DUP3 ADD SWAP2 JUMPDEST POP POP POP POP POP DUP2 MSTORE PUSH1 0x20 ADD PUSH1 0x3 DUP3 ADD SLOAD DUP2 MSTORE PUSH1 0x20 ADD PUSH1 0x4 DUP3 ADD SLOAD DUP2 MSTORE PUSH1 0x20 ADD PUSH1 0x5 DUP3 ADD SLOAD DUP2 MSTORE POP POP PUSH2 0x1A08 JUMP JUMPDEST DUP1 MLOAD SWAP1 PUSH1 0x20 ADD KECCAK256 PUSH1 0x0 DUP2 SWAP1 SSTORE POP POP POP JUMP JUMPDEST PUSH20 0xCCB8F0A7581075B74F74CFB1E4AB6FA822FACFAC PUSH1 0x5 PUSH1 0x0 CALLER PUSH20 0xFFFFFFFFFFFFFFFFFFFFFFFFFFFFFFFFFFFFFFFF AND PUSH20 0xFFFFFFFFFFFFFFFFFFFFFFFFFFFFFFFFFFFFFFFF AND DUP2 MSTORE PUSH1 0x20 ADD SWAP1 DUP2 MSTORE PUSH1 0x20 ADD PUSH1 0x0 KECCAK256 PUSH1 0x1 ADD PUSH1 0x0 PUSH2 0x100 EXP DUP2 SLOAD DUP2 PUSH20 0xFFFFFFFFFFFFFFFFFFFFFFFFFFFFFFFFFFFFFFFF MUL NOT AND SWAP1 DUP4 PUSH20 0xFFFFFFFFFFFFFFFFFFFFFFFFFFFFFFFFFFFFFFFF AND MUL OR SWAP1 SSTORE POP CALLER PUSH1 0x5 PUSH1 0x0 CALLER PUSH20 0xFFFFFFFFFFFFFFFFFFFFFFFFFFFFFFFFFFFFFFFF AND PUSH20 0xFFFFFFFFFFFFFFFFFFFFFFFFFFFFFFFFFFFFFFFF AND DUP2 MSTORE PUSH1 0x20 ADD SWAP1 DUP2 MSTORE PUSH1 0x20 ADD PUSH1 0x0 KECCAK256 PUSH1 0x2 ADD PUSH1 0x0 PUSH2 0x100 EXP DUP2 SLOAD DUP2 PUSH20 0xFFFFFFFFFFFFFFFFFFFFFFFFFFFFFFFFFFFFFFFF MUL NOT AND SWAP1 DUP4 PUSH20 0xFFFFFFFFFFFFFFFFFFFFFFFFFFFFFFFFFFFFFFFF AND MUL OR SWAP1 SSTORE POP PUSH1 0x0 SLOAD PUSH1 0x5 PUSH1 0x0 CALLER PUSH20 0xFFFFFFFFFFFFFFFFFFFFFFFFFFFFFFFFFFFFFFFF AND PUSH20 0xFFFFFFFFFFFFFFFFFFFFFFFFFFFFFFFFFFFFFFFF AND DUP2 MSTORE PUSH1 0x20 ADD SWAP1 DUP2 MSTORE PUSH1 0x20 ADD PUSH1 0x0 KECCAK256 PUSH1 0x0 ADD DUP2 SWAP1 SSTORE POP JUMP JUMPDEST PUSH1 0x60 PUSH1 0x0 DUP3 PUSH1 0x40 ADD MLOAD MLOAD DUP4 PUSH1 0x20 ADD MLOAD MLOAD PUSH1 0x74 ADD ADD SWAP1 POP PUSH1 0x60 DUP2 PUSH8 0xFFFFFFFFFFFFFFFF DUP2 GT DUP1 ISZERO PUSH2 0x1A37 JUMPI PUSH1 0x0 DUP1 REVERT JUMPDEST POP PUSH1 0x40 MLOAD SWAP1 DUP1 DUP3 MSTORE DUP1 PUSH1 0x1F ADD PUSH1 0x1F NOT AND PUSH1 0x20 ADD DUP3 ADD PUSH1 0x40 MSTORE DUP1 ISZERO PUSH2 0x1A6A JUMPI DUP2 PUSH1 0x20 ADD PUSH1 0x1 DUP3 MUL DUP1 CALLDATASIZE DUP4 CALLDATACOPY DUP1 DUP3 ADD SWAP2 POP POP SWAP1 POP JUMPDEST POP SWAP1 POP PUSH1 0x0 PUSH1 0x60 DUP6 PUSH1 0x0 ADD MLOAD PUSH1 0x40 MLOAD PUSH1 0x20 ADD DUP1 DUP3 PUSH20 0xFFFFFFFFFFFFFFFFFFFFFFFFFFFFFFFFFFFFFFFF AND PUSH1 0x60 SHL DUP2 MSTORE PUSH1 0x14 ADD SWAP2 POP POP PUSH1 0x40 MLOAD PUSH1 0x20 DUP2 DUP4 SUB SUB DUP2 MSTORE SWAP1 PUSH1 0x40 MSTORE SWAP1 POP PUSH1 0x60 DUP7 PUSH1 0x60 ADD MLOAD PUSH1 0x40 MLOAD PUSH1 0x20 ADD DUP1 DUP3 DUP2 MSTORE PUSH1 0x20 ADD SWAP2 POP POP PUSH1 0x40 MLOAD PUSH1 0x20 DUP2 DUP4 SUB SUB DUP2 MSTORE SWAP1 PUSH1 0x40 MSTORE SWAP1 POP PUSH1 0x60 DUP8 PUSH1 0x80 ADD MLOAD PUSH1 0x40 MLOAD PUSH1 0x20 ADD DUP1 DUP3 DUP2 MSTORE PUSH1 0x20 ADD SWAP2 POP POP PUSH1 0x40 MLOAD PUSH1 0x20 DUP2 DUP4 SUB SUB DUP2 MSTORE SWAP1 PUSH1 0x40 MSTORE SWAP1 POP PUSH1 0x60 DUP9 PUSH1 0xA0 ADD MLOAD PUSH1 0x40 MLOAD PUSH1 0x20 ADD DUP1 DUP3 DUP2 MSTORE PUSH1 0x20 ADD SWAP2 POP POP PUSH1 0x40 MLOAD PUSH1 0x20 DUP2 DUP4 SUB SUB DUP2 MSTORE SWAP1 PUSH1 0x40 MSTORE SWAP1 POP PUSH1 0x0 JUMPDEST PUSH1 0x14 DUP2 LT ISZERO PUSH2 0x1B9B JUMPI DUP5 DUP2 DUP2 MLOAD DUP2 LT PUSH2 0x1B40 JUMPI INVALID JUMPDEST PUSH1 0x20 ADD ADD MLOAD PUSH1 0xF8 SHR PUSH1 0xF8 SHL DUP8 DUP8 DUP2 MLOAD DUP2 LT PUSH2 0x1B57 JUMPI INVALID JUMPDEST PUSH1 0x20 ADD ADD SWAP1 PUSH31 0xFFFFFFFFFFFFFFFFFFFFFFFFFFFFFFFFFFFFFFFFFFFFFFFFFFFFFFFFFFFFFF NOT AND SWAP1 DUP2 PUSH1 0x0 BYTE SWAP1 MSTORE8 POP DUP6 DUP1 PUSH1 0x1 ADD SWAP7 POP POP DUP1 DUP1 PUSH1 0x1 ADD SWAP2 POP POP PUSH2 0x1B2B JUMP JUMPDEST POP PUSH1 0x0 JUMPDEST DUP10 PUSH1 0x20 ADD MLOAD MLOAD DUP2 LT ISZERO PUSH2 0x1C17 JUMPI DUP10 PUSH1 0x20 ADD MLOAD DUP2 DUP2 MLOAD DUP2 LT PUSH2 0x1BBC JUMPI INVALID JUMPDEST PUSH1 0x20 ADD ADD MLOAD PUSH1 0xF8 SHR PUSH1 0xF8 SHL DUP8 DUP8 DUP2 MLOAD DUP2 LT PUSH2 0x1BD3 JUMPI INVALID JUMPDEST PUSH1 0x20 ADD ADD SWAP1 PUSH31 0xFFFFFFFFFFFFFFFFFFFFFFFFFFFFFFFFFFFFFFFFFFFFFFFFFFFFFFFFFFFFFF NOT AND SWAP1 DUP2 PUSH1 0x0 BYTE SWAP1 MSTORE8 POP DUP6 DUP1 PUSH1 0x1 ADD SWAP7 POP POP DUP1 DUP1 PUSH1 0x1 ADD SWAP2 POP POP PUSH2 0x1B9F JUMP JUMPDEST POP PUSH1 0x0 JUMPDEST DUP10 PUSH1 0x40 ADD MLOAD MLOAD DUP2 LT ISZERO PUSH2 0x1C93 JUMPI DUP10 PUSH1 0x40 ADD MLOAD DUP2 DUP2 MLOAD DUP2 LT PUSH2 0x1C38 JUMPI INVALID JUMPDEST PUSH1 0x20 ADD ADD MLOAD PUSH1 0xF8 SHR PUSH1 0xF8 SHL DUP8 DUP8 DUP2 MLOAD DUP2 LT PUSH2 0x1C4F JUMPI INVALID JUMPDEST PUSH1 0x20 ADD ADD SWAP1 PUSH31 0xFFFFFFFFFFFFFFFFFFFFFFFFFFFFFFFFFFFFFFFFFFFFFFFFFFFFFFFFFFFFFF NOT AND SWAP1 DUP2 PUSH1 0x0 BYTE SWAP1 MSTORE8 POP DUP6 DUP1 PUSH1 0x1 ADD SWAP7 POP POP DUP1 DUP1 PUSH1 0x1 ADD SWAP2 POP POP PUSH2 0x1C1B JUMP JUMPDEST POP PUSH1 0x0 JUMPDEST PUSH1 0x20 DUP2 LT ISZERO PUSH2 0x1D07 JUMPI DUP4 DUP2 DUP2 MLOAD DUP2 LT PUSH2 0x1CAC JUMPI INVALID JUMPDEST PUSH1 0x20 ADD ADD MLOAD PUSH1 0xF8 SHR PUSH1 0xF8 SHL DUP8 DUP8 DUP2 MLOAD DUP2 LT PUSH2 0x1CC3 JUMPI INVALID JUMPDEST PUSH1 0x20 ADD ADD SWAP1 PUSH31 0xFFFFFFFFFFFFFFFFFFFFFFFFFFFFFFFFFFFFFFFFFFFFFFFFFFFFFFFFFFFFFF NOT AND SWAP1 DUP2 PUSH1 0x0 BYTE SWAP1 MSTORE8 POP DUP6 DUP1 PUSH1 0x1 ADD SWAP7 POP POP DUP1 DUP1 PUSH1 0x1 ADD SWAP2 POP POP PUSH2 0x1C97 JUMP JUMPDEST POP PUSH1 0x0 JUMPDEST PUSH1 0x20 DUP2 LT ISZERO PUSH2 0x1D7B JUMPI DUP3 DUP2 DUP2 MLOAD DUP2 LT PUSH2 0x1D20 JUMPI INVALID JUMPDEST PUSH1 0x20 ADD ADD MLOAD PUSH1 0xF8 SHR PUSH1 0xF8 SHL DUP8 DUP8 DUP2 MLOAD DUP2 LT PUSH2 0x1D37 JUMPI INVALID JUMPDEST PUSH1 0x20 ADD ADD SWAP1 PUSH31 0xFFFFFFFFFFFFFFFFFFFFFFFFFFFFFFFFFFFFFFFFFFFFFFFFFFFFFFFFFFFFFF NOT AND SWAP1 DUP2 PUSH1 0x0 BYTE SWAP1 MSTORE8 POP DUP6 DUP1 PUSH1 0x1 ADD SWAP7 POP POP DUP1 DUP1 PUSH1 0x1 ADD SWAP2 POP POP PUSH2 0x1D0B JUMP JUMPDEST POP PUSH1 0x0 JUMPDEST PUSH1 0x20 DUP2 LT ISZERO PUSH2 0x1DEF JUMPI DUP2 DUP2 DUP2 MLOAD DUP2 LT PUSH2 0x1D94 JUMPI INVALID JUMPDEST PUSH1 0x20 ADD ADD MLOAD PUSH1 0xF8 SHR PUSH1 0xF8 SHL DUP8 DUP8 DUP2 MLOAD DUP2 LT PUSH2 0x1DAB JUMPI INVALID JUMPDEST PUSH1 0x20 ADD ADD SWAP1 PUSH31 0xFFFFFFFFFFFFFFFFFFFFFFFFFFFFFFFFFFFFFFFFFFFFFFFFFFFFFFFFFFFFFF NOT AND SWAP1 DUP2 PUSH1 0x0 BYTE SWAP1 MSTORE8 POP DUP6 DUP1 PUSH1 0x1 ADD SWAP7 POP POP DUP1 DUP1 PUSH1 0x1 ADD SWAP2 POP POP PUSH2 0x1D7F JUMP JUMPDEST POP DUP6 SWAP8 POP POP POP POP POP POP POP POP SWAP2 SWAP1 POP JUMP JUMPDEST POP DUP1 SLOAD PUSH1 0x1 DUP2 PUSH1 0x1 AND ISZERO PUSH2 0x100 MUL SUB AND PUSH1 0x2 SWAP1 DIV PUSH1 0x0 DUP3 SSTORE DUP1 PUSH1 0x1F LT PUSH2 0x1E25 JUMPI POP PUSH2 0x1E44 JUMP JUMPDEST PUSH1 0x1F ADD PUSH1 0x20 SWAP1 DIV SWAP1 PUSH1 0x0 MSTORE PUSH1 0x20 PUSH1 0x0 KECCAK256 SWAP1 DUP2 ADD SWAP1 PUSH2 0x1E43 SWAP2 SWAP1 PUSH2 0x1EC7 JUMP JUMPDEST JUMPDEST POP JUMP JUMPDEST DUP3 DUP1 SLOAD PUSH1 0x1 DUP2 PUSH1 0x1 AND ISZERO PUSH2 0x100 MUL SUB AND PUSH1 0x2 SWAP1 DIV SWAP1 PUSH1 0x0 MSTORE PUSH1 0x20 PUSH1 0x0 KECCAK256 SWAP1 PUSH1 0x1F ADD PUSH1 0x20 SWAP1 DIV DUP2 ADD SWAP3 DUP3 PUSH1 0x1F LT PUSH2 0x1E88 JUMPI DUP1 MLOAD PUSH1 0xFF NOT AND DUP4 DUP1 ADD OR DUP6 SSTORE PUSH2 0x1EB6 JUMP JUMPDEST DUP3 DUP1 ADD PUSH1 0x1 ADD DUP6 SSTORE DUP3 ISZERO PUSH2 0x1EB6 JUMPI SWAP2 DUP3 ADD JUMPDEST DUP3 DUP2 GT ISZERO PUSH2 0x1EB5 JUMPI DUP3 MLOAD DUP3 SSTORE SWAP2 PUSH1 0x20 ADD SWAP2 SWAP1 PUSH1 0x1 ADD SWAP1 PUSH2 0x1E9A JUMP JUMPDEST JUMPDEST POP SWAP1 POP PUSH2 0x1EC3 SWAP2 SWAP1 PUSH2 0x1EC7 JUMP JUMPDEST POP SWAP1 JUMP JUMPDEST JUMPDEST DUP1 DUP3 GT ISZERO PUSH2 0x1EE0 JUMPI PUSH1 0x0 DUP2 PUSH1 0x0 SWAP1 SSTORE POP PUSH1 0x1 ADD PUSH2 0x1EC8 JUMP JUMPDEST POP SWAP1 JUMP INVALID LOG2 PUSH5 0x6970667358 0x22 SLT KECCAK256 0xDD 0xD9 0xB1 0xEC PUSH7 0xCE939383E08A2A 0xD0 MSTORE 0xC4 POP NUMBER CALLDATALOAD 0xB0 PUSH1 0x3 0xC8 PUSH27 0x1A416B0223D179991364736F6C634300060C003300000000000000 "},"gasEstimates":{"creation":{"codeDepositCost":"1592400","executionCost":"22532","totalCost":"1614932"},"external":{"addressToInfo(address)":"infinite","certificates(address)":"2932","del(uint256)":"2016","deleteCert()":"infinite","getCertInfo()":"3117","getCertificate()":"infinite","hasinfo()":"1245","issue(string,string)":"infinite","setId()":"427","verification(string,string,uint256,uint256,bytes32)":"infinite"},"internal":{"newCert()":"62847","newUserInfo(string memory,string memory)":"infinite","setTime()":"40842","userinfoToBytes(struct certificate.userinfo memory)":"infinite"}},"methodIdentifiers":{"addressToInfo(address)":"7f50670a","certificates(address)":"0016e526","del(uint256)":"57771a23","deleteCert()":"040c2b0f","getCertInfo()":"1532f93a","getCertificate()":"ae15eb8e","hasinfo()":"d05c11e6","issue(string,string)":"289fd654","setId()":"087e926c","verification(string,string,uint256,uint256,bytes32)":"4ead778d"}},"storageLayout":{"storage":[{"astId":26,"contract":"Certificate.sol:certificate","label":"certhash","offset":0,"slot":"0","type":"t_bytes32"},{"astId":28,"contract":"Certificate.sol:certificate","label":"addr","offset":0,"slot":"1","type":"t_address"},{"astId":30,"contract":"Certificate.sol:certificate","label":"notBefore","offset":0,"slot":"2","type":"t_uint256"},{"astId":32,"contract":"Certificate.sol:certificate","label":"notAfter","offset":0,"slot":"3","type":"t_uint256"},{"astId":45,"contract":"Certificate.sol:certificate","label":"addressToInfo","offset":0,"slot":"4","type":"t_mapping(t_address,t_struct(userinfo)14_storage)"},{"astId":49,"contract":"Certificate.sol:certificate","label":"certificates","offset":0,"slot":"5","type":"t_mapping(t_address,t_struct(cert)21_storage)"},{"astId":52,"contract":"Certificate.sol:certificate","label":"del","offset":0,"slot":"6","type":"t_array(t_struct(deleteInfo)24_storage)dyn_storage"}],"types":{"t_address":{"encoding":"inplace","label":"address","numberOfBytes":"20"},"t_array(t_struct(deleteInfo)24_storage)dyn_storage":{"base":"t_struct(deleteInfo)24_storage","encoding":"dynamic_array","label":"struct certificate.deleteInfo[]","numberOfBytes":"32"},"t_bytes32":{"encoding":"inplace","label":"bytes32","numberOfBytes":"32"},"t_mapping(t_address,t_struct(cert)21_storage)":{"encoding":"mapping","key":"t_address","label":"mapping(address => struct certificate.cert)","numberOfBytes":"32","value":"t_struct(cert)21_storage"},"t_mapping(t_address,t_struct(userinfo)14_storage)":{"encoding":"mapping","key":"t_address","label":"mapping(address => struct certificate.userinfo)","numberOfBytes":"32","value":"t_struct(userinfo)14_storage"},"t_string_storage":{"encoding":"bytes","label":"string","numberOfBytes":"32"},"t_struct(cert)21_storage":{"encoding":"inplace","label":"struct certificate.cert","members":[{"astId":16,"contract":"Certificate.sol:certificate","label":"certhash","offset":0,"slot":"0","type":"t_bytes32"},{"astId":18,"contract":"Certificate.sol:certificate","label":"caPubkey","offset":0,"slot":"1","type":"t_address"},{"astId":20,"contract":"Certificate.sol:certificate","label":"userPubkey","offset":0,"slot":"2","type":"t_address"}],"numberOfBytes":"96"},"t_struct(deleteInfo)24_storage":{"encoding":"inplace","label":"struct certificate.deleteInfo","members":[{"astId":23,"contract":"Certificate.sol:certificate","label":"certhash","offset":0,"slot":"0","type":"t_bytes32"}],"numberOfBytes":"32"},"t_struct(userinfo)14_storage":{"encoding":"inplace","label":"struct certificate.userinfo","members":[{"astId":3,"contract":"Certificate.sol:certificate","label":"addr","offset":0,"slot":"0","type":"t_address"},{"astId":5,"contract":"Certificate.sol:certificate","label":"name","offset":0,"slot":"1","type":"t_string_storage"},{"astId":7,"contract":"Certificate.sol:certificate","label":"birth","offset":0,"slot":"2","type":"t_string_storage"},{"astId":9,"contract":"Certificate.sol:certificate","label":"notBefore","offset":0,"slot":"3","type":"t_uint256"},{"astId":11,"contract":"Certificate.sol:certificate","label":"notAfter","offset":0,"slot":"4","type":"t_uint256"},{"astId":13,"contract":"Certificate.sol:certificate","label":"id","offset":0,"slot":"5","type":"t_bytes32"}],"numberOfBytes":"192"},"t_uint256":{"encoding":"inplace","label":"uint256","numberOfBytes":"32"}}},"userdoc":{"kind":"user","methods":{},"version":1}}